S315080100000CE000201D00010831000108310001083B
S3150801001031000108310001083100010801F006BF6D
S31508010020DFF808D001F065FF01F0FEBFF83F0010C8
S31508010030FEE76E2900F03884702900F08985662963
S315080100402BF03D8465292BF03A8467292BF03784F8
S315080100506129AFF3008003681B0A28BF41F08001BC
S31508010060692900F0E583642900F0E283752900F027
S31508010070DF836F2900F01485782900F05585E92971
S3150801008000F0AC84E42900F0A984F52900F0A684DF
S31508010090EF2900F01185F82900F054850368DB097A
S315080100A028BF41F08001632901F0BA81732901F063
S315080100B0BF81E32901F0CA81F32901F0CF8100202C
S315080100C07047000040BA7047C0BA704700BEFEE7E5
S315080100D07047704753EA020C00F069802DE9F04B2E
S315080100E04FF00006002B1FBFB3FA83F503FA05F498
S315080100F024FA05F65E4012BF1643B2FA82F502FAF1
S3150801010005F4C5F120051EBF22FA05FC44EA0C04D4
S31508010110203556EA044C4FEA144418BF641C4FF0C4
S3150801012000084FF00009904271EB030C39D30029FE
S3150801013019BFB1FA81F701FA07F6B0FA80F700FAA2
S3150801014007F6C7F120071EBF20FA07FC46EA0C0688
S315080101502037B6FBF4FCA7EB0507103F07F01F0B8A
S31508010160CBF120060CFA0BFB2CFA06F644BFB34674
S315080101700026202FA4BF5E464FF0000B5BEA060C53
S3150801018008BF4FF0010B19EB0B09ABFB027C48EBDF
S315080101900608C01B06FB02CC0BFB03CC71EB0C015A
S315080101A0C1E70B46024641464846BDE8F08B13B502
S315080101B04FF000004FF0000100F0C8FABDE81C40FE
S315080101C07047B2F120030AD5C2F1200301FA02F100
S315080101D020FA03F300FA02F041EA0301704700FA34
S315080101E003F14FF000007047B2F120030AD5C2F1BE
S315080101F0200320FA02F001FA03F321FA02F140EA98
S315080102000300704721FA03F04FF000017047B2F17D
S3150801021020030AD5C2F1200320FA02F001FA03F3FA
S3150801022041FA02F140EA0300704741FA03F04FEA46
S31508010230E171704710B54C1084EA530404D5404265
S31508010240C1F1000138BF491E1B4204D55242C3F110
S31508010250000338BF5B1EFFF73DFF14F0804F04D043
S315080102604042C1F1000138BF491E14F0004F04D0C5
S315080102705242C3F1000338BF5B1E10BD7CB515465B
S315080102801A460C00009001D02044401E074B7B44BF
S3150801029069460190284600F022FB05461CB100205C
S315080102A0694600F02FFB28467CBD00007D0600004C
S315080102B00A460146014800F06ABD000084A50010FF
S315080102C02DE9F04782460E4614469846DDF82090F9
S315080102D094B1012C0BD04A465046650805FB0867C0
S315080102E03946904700280CD00DDA2C46F0E74A46E5
S315080102F031465046904710B10020BDE8F087304698
S31508010300FBE73846F9E7641B641E07EB0806DFE7D7
S31508010310401ECAB210F8011F8A4202D00029F9D13B
S315080103200020704740EA010310B59B070FD1042A44
S315080103300DD310C808C9121F9C42F8D020BA19BAA1
S31508010340884201D9012010BD4FF0FF3010BD1AB106
S31508010350D30703D0521C07E0002010BD10F8013B5B
S3150801036011F8014B1B1B07D110F8013B11F8014B82
S315080103701B1B01D1921EF1D1184610BD40EA01039B
S31508010380024630B59B0710D14FF0013400E008C290
S3150801039008C91D1B9D4315EAC41FF8D013F0FF01B8
S315080103A002F8011B0DD01B0AF8E711F8013B002BD7
S315080103B002F8013B05D011F8013B002B02F8013B7D
S315080103C0F3D130BD032A40F2308010F0030C00F05F
S315080103D0158011F8013BBCF1020F624498BF11F870
S315080103E001CB00F8013B38BF11F8013BA2F1040229
S315080103F098BF00F801CB38BF00F8013B11F00303A1
S3150801040000F06780083AC0F0088051F8043B083AC2
S3150801041051F804CBA0E80810F5E7121D5CBF51F8A6
S31508010420043B40F8043BAFF30080D20724BF11F820
S31508010430013B11F801CB48BF11F8012B24BF00F885
S31508010440013B00F801CB48BF00F8012B7047431A5E
S3150801045028BF9A427FF6B6AF032A1044114440F2E8
S31508010460268010F0030F1EBF11F8013D521E00F839
S31508010470013D10F0030F7FF4F6AF11F0030300F00E
S315080104806D80083AC0F00B8051F8043D083A51F8DE
S3150801049004CD40F8043D40F804CDFFF7F3BF121D23
S315080104A05CBF51F8043D40F8043DAFF30080D20724
S315080104B024BF11F8013D11F801CD48BF11F8012CEF
S315080104C024BF00F8013D00F801CD48BF00F8012C12
S315080104D0704710B5203AC0F00B80B1E81850203AA1
S315080104E0A0E81850B1E81850A0E81850BFF4F5AFC5
S315080104F05FEA027C24BFB1E81850A0E8185044BF4F
S3150801050018C918C0BDE810405FEA827C24BF51F8BB
S31508010510043B40F8043B08BF7047D20728BF31F8AF
S31508010520023B48BF11F8012B28BF20F8023B48BF00
S3150801053000F8012B7047431A28BF9A427FF6C9AFC4
S31508010540104410F0030F11441EBF11F8013D521E4D
S3150801055000F8013D10F0030F7FF4F6AF103AC0F032
S315080105600A8010B531E91850103A20E91850BFF43D
S31508010570F9AFBDE81040530724BF31E9081020E957
S31508010580081044BF51F8043D40F8043D12F0030F2A
S3150801059008BF7047D20728BF31F8023D48BF11F896
S315080105A0012C28BF20F8023D48BF00F8012C7047EE
S315080105B002F0FF0343EA032242EA024200F002B8CC
S315080105C04FF000020429C0F0128010F0030C00F06D
S315080105D01B80CCF1040CBCF1020F18BF00F8012BEB
S315080105E0A8BF20F8022BA1EB0C0100F00DB85FEAB9
S315080105F0C17C24BF00F8012B00F8012B48BF00F885
S31508010600012B70474FF0000200B5134694469646F3
S31508010610203922BFA0E80C50A0E80C50B1F1200106
S31508010620BFF4F7AF090728BFA0E80C5048BF0CC0B4
S315080106305DF804EB890028BF40F8042B08BF704712
S3150801064048BF20F8022B11F0804F18BF00F8012B84
S31508010650704710B5044610F0030F08BF11F0030FD9
S3150801066040F015804FF0013E121FC0F20E8051F87E
S31508010670043BA3EB0E0C2CEA030C1CEACE1C08BFA8
S3150801068040F8043BF0D0A1F1040102F10402521E24
S3150801069008DB11F8013B002B00F8013BF7D11146A5
S315080106A0FFF78EFF204610BD4FF0013C50F8042B92
S315080106B051F8043B9A4221D1A2EB0C03934313EA66
S315080106C0CC1317D150F8042B51F8043B9A4215D193
S315080106D0A2EB0C03934313EACC130BD150F8042B6A
S315080106E051F8043B9A4209D1A2EB0C03934313EA4E
S315080106F0CC13DBD04FF00000704700BFD01A01BA07
S31508010700B1FA81F101F0180122FA01F0CB40C1F1E9
S315080107102001DBB2C0B2C01A2CFA01F3D11A9143F7
S3150801072011EAC311E6D1704770B5064C7C44064DF3
S315080107307D4403E0206820448047241DAC42F9D15A
S3150801074070BD0000A02E0300A42E030029F078BE78
S3150801075010B500F0A7FB006810BD10B5044600F0FF
S31508010760A1FB046010BD70B5044685690068C10621
S3150801077001D5302600E02026C00708D070BDD4E98F
S31508010780012130469047206A00F1010020626D1E62
S31508010790F5D570BD70B5044685690068C00708D1EE
S315080107A070BDD4E9012120209047206A00F101009B
S315080107B020626D1EF5D570BD09684A0501D540B29E
S315080107C07047C905FCD500B2704709684A0501D5C5
S315080107D0C0B27047C905FCD580B2704770B50546E9
S315080107E00C46012A05D02868800600D5EA69002347
S315080107F002E0012305E05B1C934202D2E05C00287B
S31508010800F9D1A869E618C01AA861286A18442862A5
S315080108102846FFF7A8FF04E0D5E9012114F8010BE2
S315080108209047B442F8D32846FFF7B4FF70BD0000DD
S315080108302DE9F0410746002510687529394616A4A1
S3150801084011D0FFF7B9FF002803DAC0F1000013A49D
S3150801085007E039688A0701D511A402E0490704D5DA
S3150801086010A4012501E0FFF7B0FF00210A2307F1D3
S31508010870240607E0B0FBF3F203FB12003030705494
S315080108801046491C0028F5D12B4622463846BDE8B4
S31508010890F04100F050BB0000000000002D000000F0
S315080108A02B0000002000000011680268006A530549
S315080108B001D508700BE0D30501D5088007E01306BA
S315080108C003D5C217C1E9000201E0520608600120FA
S315080108D07047000001694A1C02610878704700B533
S315080108E08FB0CDE901310021059105497944CDE95A
S315080108F003101146684600F037F90FB000BD000035
S31508010900E5FFFFFF0A6802F8010B0A607047D1E9A3
S3150801091000239A4202D2531C0B60107070470000E4
S315080109202DE9FF5F04468A461546DFF8AC80F84490
S315080109300027D8E900103E46CDE9001011E03AF843
S3150801094016106A4602A800F08DFD411C07D02168E1
S31508010950890603D5E269391891420ED8074406F18A
S3150801096001062068800602D5E069B84205DDAE4277
S31508010970E5DB3AF816000028E1D1A069C01BA061A1
S315080109802046FFF7F0FED8E90010CDE90010002057
S3150801099016E03AF818106A4602A800F063FD814687
S315080109A0401C0BD000250DF1080B05E0D4E9012107
S315080109B01BF8050090476D1C4D45F7D308F101005A
S315080109C0B0428046E5DB206A384420622046FFF7BC
S315080109D0E1FEBDE8FF9F0000AE2103002DE9F041CD
S315080109E08046D21D22F007020026D2E90002F52927
S315080109F014A512D0002A06DA0023D0EB030063EB14
S31508010A00020211A508E0D8F800108B0701D50FA539
S31508010A1002E0490701D50EA501261146002408F171
S31508010A20240704E000F042FA30323A55641C50EAD1
S31508010A300102F7D133462A4621464046BDE8F04130
S31508010A4000F079BA000000002D0000002B0000001C
S31508010A502000000030B4002100F124040CE002F06B
S31508010A60070505F130054FEAD20242EA4372655499
S31508010A7001F101014FEAD30352EA0305EFD10468F4
S31508010A80002310A2250708D504F020040C4304D03E
S31508010A90C46901230CA2641EC46130BC00F04BBAC0
S31508010AA010B5044621461068FFF78FFE0246204618
S31508010AB0BDE810400023CDE7D21D22F00701D1E998
S31508010AC00023C7E70000000030000000F0B40F461D
S31508010AD00168090502D5234C7C4402E0214C7C447B
S31508010AE00E34002100F124050BE002F00F064FEA4F
S31508010AF01212A65D42EA03724FEA13136E5401F10C
S31508010B00010152EA0306F0D12246046800232407AC
S31508010B1004D5702F05D009B111320223F0BC00F0BB
S31508010B200ABA10320123F9E770B504460D46214683
S31508010B301068FFF74AFE024629462046BDE870407E
S31508010B400023C3E7D21D22F00703D3E90023BDE73B
S31508010B500368126843F0200303600823C361002376
S31508010B60B4E700000C2003002DE9F05F044689462E
S31508010B704FF0000ADFF878B1FB44C0F820A0204600
S31508010B80E1688847002875D0252806D0D4E90121CF
S31508010B909047206A401C2062F1E700265F462046FE
S31508010BA0E16888472028054608DB312D06D207EB80
S31508010BB0050010F8200C08B10643F0E7B00701D587
S31508010BC026F00406C4F81CA00027C4F818A02A2D8C
S31508010BD009D0284629F05DFC38B304EB8708303D77
S31508010BE0C8F8185019E059F8041B204604EB870287
S31508010BF09161E1688847012F054618D1E069002807
S31508010C0020DA26F020061DE0D8F8180000EB80004F
S31508010C1005EB40003038C8F818002046E1688847D7
S31508010C20054629F036FC0028EED1012F0AD02E2DD3
S31508010C3008D12046E16888477F1C0546022F46F001
S31508010C402006C4DBA069002803DA404246F0010603
S31508010C50A061F00701D026F010066C2D0BD0682D87
S31508010C6009D04C2D39D06A2D35D0742D35D07A2D31
S31508010C7033D016E038E0E1682F4620468847B84267
S31508010C80054609D16C2F26D04FF48060E1680643EA
S31508010C9020468847054604E06C2F1AD04FF4807029
S31508010CA006430DB3A5F14100192802D8203546F4AB
S31508010CB000664A462946204626604E46FFF7B9F998
S31508010CC080B101280BD0F61D26F0070000F10809AE
S31508010CD055E74020E4E78020D8E70020D6E706F16B
S31508010CE004094CE7284651E7206ABDE8F09F000051
S31508010CF0941F030070B50646484231EA00000FD03A
S31508010D002A20741C0025307000F0C8F8034600201C
S31508010D1053F82520110F120109292BD957312AE039
S31508010D20042913D004DC012908D0022904D109E0D9
S31508010D3008290FD0102911D0002070BD00F0AEF897
S31508010D4000680EE000F0AAF840680AE000F0A6F88C
S31508010D50806806E000F0A2F8C06802E000F09EF89C
S31508010D60006928B120F0030050F8041C084470BD3E
S31508010D7048A070BD3031401C082804F8011BC9DBA6
S31508010D806D1C052DC3DB00202070304670BD2DE992
S31508010D90F04709B14B0902D00020BDE8F08732B10E
S31508010DA013782A2B06D0BDE8F04700F025B8BDE830
S31508010DB0F0479FE7551C81460F464FF0010800246E
S31508010DC00026314615F8010B392801D8303800E0DC
S31508010DD05738491C082940EA0616F3DB08FA04F0D5
S31508010DE0384203D000F05AF840F82460641C052CF8
S31508010DF0E6DB39464846DAE72DE9F04106460C4670
S31508010E00154688070AD511462348784429F0E8FB90
S31508010E1007003CD000F042F87F1C4760E0070AD083
S31508010E2029461D4878441A38AFF3008007002ED0AA
S31508010E3000F034F8076060070AD529461648784451
S31508010E403438AFF30080070021D000F027F8876017
S31508010E5020070AD52946104878444E3829F0AAFBB6
S31508010E60070014D000F01AF8C760E0060AD529462B
S31508010E70094878446838AFF30080050007D000F0C8
S31508010E800DF8056121463046BDE8F04132E7BDE877
S31508010E90F0810000430000009226030000487047D5
S31508010EA0B0A5001000487047C4A5001030B5B0F1D0
S31508010EB00A024FEA900E71F100034EEA817EB0EB09
S31508010EC00E0061EB91014FEA101E4EEA017E10EB0E
S31508010ED00E0041EB11114FEA102E4EEA016E10EB8E
S31508010EE00E0041EB11214FEA104E4EEA014E10EB6E
S31508010EF00E0041EB1141401841F100014FEAD000C3
S31508010F0040EA41704FEAD10110EB80054FEA8104AE
S31508010F1044EA907444EB01046D1944EB0404521B32
S31508010F20A3414FF0000348BF0A3200D530BD401C2B
S31508010F3041F1000130BD2DE9F0470D4604469246C0
S31508010F40994600F124080168880604D5E06921F06C
S31508010F501001216000E00120A84202DDA0EB05078F
S31508010F6000E00027A16907EB050202EB0300A1EBEC
S31508010F700000A0612068C00602D42046FFF7F3FBF3
S31508010F80002608E0D4E901211AF806009047206AEC
S31508010F90401C761C20624E45F4DB2068C0060AD543
S31508010FA02046FFF7E0FB06E0D4E90121302090470F
S31508010FB0206A401C2062381EA7F10107F4DC07E00D
S31508010FC0D4E9012118F805009047206A401C2062DF
S31508010FD0281EA5F10105F3DC2046FFF7DBFB206897
S31508010FE0000602D50220BDE8F0870120FBE770471D
S31508010FF02DE9FF4F0C461E464FF0FF378BB0D2E95D
S315080110000001DDF860800A908A46C1F30A5505B9E0
S315080110103D46002108464FF00000BAF1000F00F4E2
S31508011020400005DA00EB80004FF4400101EA500068
S315080110304FEA9059B9F1010F00DDB9460A9850EA0D
S315080110404A000ED044F61050A5F2FF3545432F1439
S31508011050B8F1000F1ED07542291E1EDDC9F1000226
S315080110601CE0B8F1010F4FF0000001D1F24307E08F
S31508011070302101E02154401CB042FBDB30460022FE
S31508011080002121540B99C1F80880C1E900200FB04D
S31508011090BDE8F08FBD1B6D1CDEE74A4600DA6942E2
S315080110A006A800F047FA06AB07CB03AB07C35046C1
S315080110B00A9900F0B1FA8DE80700A0F500501F382B
S315080110C000900398002D09DD42F21F014A460844A3
S315080110D003A90390684600F010FD08E0A0F500504A
S315080110E04A461F3803A90390684600F01AFD8DE8A1
S315080110F007000004000C03D04FF0FF30410800E060
S315080111001046B8F1000F03D00022009215461FE0E1
S31508011110751E06D4FFF7CAFE02F1300262556D1E2E
S31508011120F8D5B3460122084302D000227F1C04E009
S315080111302078302801D100227F1E002A099787D0FE
S315080111401DE0112D07DAFFF7B1FE303262556D1C2D
S3150801115050EA0102F5D108430FD10021681E05E0C6
S31508011160235C625C6354491C2254401E8142F7DBAE
S31508011170AB46A81B401E099001E0009848B1002023
S3150801118004F80B000B98099AC0F80880C0E9002BEF
S315080111907DE711264FF000085AE72DE9F04F8846FA
S315080111A00446D21D22F0070191B0D1E90001CDE92B
S315080111B00A0125F0F5F902460B98C00F01D02D203A
S315080111C007E02068810701D52B2002E0202101EAEA
S315080111D0C000032A099001D0072A05DB03464146C8
S315080111E0204600F067F90EE12068800601D5E0691E
S315080111F000E00620B8F1650F814606D0B8F1660F02
S3150801120018D0B8F1670F72D132E00020B9F1110F89
S315080112100090484601DB112300E0431C0AAA01A9F4
S315080112200CA8FFF7E5FEDDE90C70002609F10105BA
S31508011230834648E001204B4600904FF000470AAA32
S3150801124001A90CA8FFF7D4FEDDE90C050E990026C5
S31508011250AB4619B909F1010100EB0105B9EB050026
S3150801126003D4C0F1FF3609F10105A5EB09002BE00E
S31508011270B9F1010F01DA4FF001090020B9F1110F97
S315080112800090484601DD112300E003460AAA01A998
S315080112900CA8FFF7ADFEDDE90C704D460026834626
S315080112A0206800070AD4AB4500DA5D4601A8012D7E
S315080112B004DD411911F8011C302907D04F4502DA1E
S315080112C017F1040F04DA0120824610E06D1EEEE7DD
S315080112D0002F02DCED1B3E4403E0781CA84200DD2A
S315080112E00546A7EB060000F1010A4FF00047206802
S315080112F0000703D4AA4501DB4FF0FF3A0021B7F1F5
S31508011300004F0DF143088DF8431022D002202B23FC
S31508011310002F01DA7F422D230A22011EA0F10100C6
S3150801132000DC4FB197FBF2F102FB117C0F460CF181
S31508011330300C08F801CDF0E7A8F101000370216827
S31508011340090501D5452100E06521A0F1010800F84C
S31508011350011C09980FA9A1EB080707F1070700B1B6
S31508011360012000EB050101EBEA70A1693844A1EB04
S315080113700000A0F10100A0612068C00602D4204641
S31508011380FFF7F1F9099830B1D4E901219047206AAC
S3150801139000F1010020622068C00620D52046FFF72B
S315080113A0E2F91CE0002E04DBB34502DD01A8805DED
S315080113B000E03020D4E901219047206A761C401CC0
S315080113C0BAF1010A20620AD1FFF768FDC06801680F
S315080113D0405CD4E901219047206A401C2062281EFE
S315080113E0A5F10105DEDC07E0D4E9012118F8010BB6
S315080113F09047206A401C2062381EA7F10107F3DCDA
S315080114002046FFF7C7F9022011B041E610B5436936
S3150801141013B1AFF3008001E0FFF7E0F9012010BD39
S31508011420126800F124010A7000224A700122EDE7D0
S3150801143011684FF0FF32E9E710B5436913B1AFF30D
S31508011440008001E0FFF76CFA012010BD126800F177
S31508011450240182840022C2840122EDE711684FF03B
S31508011460FF32E9E770B505460C46164600F01AF84C
S31508011470036893F80101012806D0FF2C0FD8185DDF
S3150801148068B101202C7070BDD3F807013246214698
S3150801149003442846BDE8704003F2071318474FF086
S315080114A0FF3070BD10B5FFF7F9FC001D10BD00BF78
S315080114B0319102002DE9F04104461F4603260168D1
S315080114C0072A01F4006004DB08B116A505E016A594
S315080114D003E008B115A500E015A521F0100020606C
S315080114E0A069C01EA0610FB1401EA0612046FFF78A
S315080114F03AF94FB1D4E9012138469047206A401C90
S315080115002062C01C206206E0206AFAE7D4E90121BC
S3150801151015F8010B9047761EF8D22046FFF73AF9DF
S31508011520BDE8F0814E414E006E616E00494E46009F
S31508011530696E66002DE9F047814616468AB0354838
S315080115407844D0E9002380680092CDE9013031481A
S3150801155078440C38D0E90223006903924FF0370228
S31508011560CDE9043041F69B30014491FBF2F0A0F13C
S31508011570800502FB10141B3C02D56442012000E0E1
S315080115800020DFF890A080460027FA44AAF1C60A8F
S315080115900DE0E00709D03246684607EB47010AEB3A
S315080115A0810100F0BEFA8DE8070064107F1C002C4B
S315080115B0EFD1184F7F44B43F17E0E80713D007EB84
S315080115C004100DF1180A90E80E00AAE80E00C0688A
S315080115D0F04201D198190890324606A903A800F0ED
S315080115E0A0FA03AB07C36D10641C002DE5D1324682
S315080115F06946B8F1000F03A802D000F07EFA01E0AF
S3150801160000F08FFAC9E90001C9F808200AB0BDE857
S31508011610F0870000101803005FEA400C08BF91F03C
S31508011620000F4FEA8C234FEAC12243EA51514FEA90
S315080116301C5018BF00F5F0404FEA300018BF41F0C2
S3150801164000415FEA6C5C00F02980BCF1FF3F08BFEE
S3150801165040F080407047130C06BF12044FF0100C7F
S315080116604FF0000C130E04BF12020CF1080C130FF5
S3150801167004BF12010CF1040C930F04BF92000CF184
S31508011680020CD30F04BF52000CF1010C11464FF0A6
S315080116900002A0F11F00A0EB0C00704711F0004FEB
S315080116A008BF704731F000413FF4D5AF0B0C06BFB8
S315080116B009044FF0100C4FF0000C0B0E04BF090281
S315080116C00CF1080C0B0F04BF09010CF1040C8B0F6C
S315080116D004BF89000CF1020CCB0F04BF49000CF1C1
S315080116E0010CCCF12003A0EB0C0022FA03F302FA59
S315080116F00CF241EA030100F10100704720F07F4C2A
S3150801170080EA030023F07F47ACEB070303F57C531C
S3150801171000F0004003F1FF032DE980494FEA154B1C
S3150801172009B44FEA144325EA0B4E24EA03480FF29B
S31508011730042606EB132749083E785FEA320203FBC3
S315080117400667C7F5000707FB06F64FEA54374FEA5F
S31508011750D64606F1020607FB066CCCF1005C4FEA99
S315080117601C472CEA074C07FB06F40CFB06F504EBB1
S3150801177015464FEA961634BF00204FF000404FEA4F
S31508011780D13706FB07FC4FEA1C4C0CFB0BF7D21BA7
S3150801179003FB0CF761EB07010CFB0EF7B0EB0740F7
S315080117A072EB17420CFB08F734BFA2EB0742B2EB08
S315080117B0074261EB17414FEA0C444FEA910706FBD2
S315080117C007FC4FEA1C4C0CFB0BF7B0EBC74072EB5E
S315080117D0573203FB0CF734BFA2EBC742B2EBC74241
S315080117E061EB57310CFB0EF7B0EBC70072EB577282
S315080117F00CFB08F734BFA2EBC702B2EBC70261EBD9
S315080118005771039F4FEA816141EA921104EBCC04B7
S315080118104FEAD1374FEA826206FB07FC42EA901289
S315080118204FEA80604FEA1C4C0CFB0BF7D21B03FBFB
S315080118300CF761EB07010CFB0EF7B0EB074072EBF7
S3150801184017420CFB08F734BFA2EB0742B2EB07427B
S3150801185061EB17414FEA8C554FEA910704EB9C243B
S3150801186006FB07FC4FEA1C4C0CFB0BF7B0EBC74019
S3150801187072EB573203FB0CF734BFA2EBC742B2EB4C
S31508011880C74261EB57310CFB0EF7B0EBC70072EBA1
S3150801189057720CFB08F734BFA2EBC702B2EBC702BB
S315080118A061EB577115EB4C254FEA816141EA9211BB
S315080118B04FEA82624FEAD13742EA901206FB07FCE9
S315080118C044F100044FEA80604FEA1C4C0CFB0BF70D
S315080118D0D21B03FB0CF761EB07010CFB0EF7B0EB10
S315080118E0074072EB17420CFB08F734BFA2EB07421D
S315080118F0B2EB074261EB174115EB1C154FEA813133
S3150801190041EA92414FEA823242EA90424FEA8030F6
S315080119104FEA0C7644F1000448EA03434EEA0B48C1
S315080119204FF0000EB2EB080C71EB030724BF6246B9
S3150801193039464EEB0E0E4FF0000B00185241494145
S315080119404BEB0B0BB2EB080C71EB03077BF1000BAE
S3150801195024BF624639464EEB0E0E4FF0000B0018B7
S31508011960524149414BEB0B0BB2EB080C71EB0307E8
S315080119707BF1000B24BF624639464EEB0E0E51EA47
S31508011980020718BF46F0010616EB0E7655F100025E
S3150801199054F1000103D5BDE88901BDE80088BDE819
S315080119A08901BDE80048B619524141EB0101A3F18D
S315080119B00103704780807F7E7D7C7B7A7978777694
S315080119C076757473727171706F6E6E6D6C6C6B6A0D
S315080119D06A696868676666656464636362616160AB
S315080119E0605F5F5E5E5D5D5C5C5B5B5A5A59595828
S315080119F05857575656555555545453535252525192
S31508011A00515050504F4F4F4E4E4D4D4D4C4C4C4BE7
S31508011A104B4B4A4A4A49494948484847474747462E
S31508011A20464645454544444444434343434242426A
S31508011A3042414141002B26D4770021D01CB54FEAFB
S31508011A40370703B44FF010004FF010014FF00000B4
S31508011A500FBCBDE810400BF1010BBBF1010F08BF2C
S31508011A605FEA170722BF12F1010211F101014FF0D6
S31508011A70004143F1000300F0004043EA00007047CB
S31508011A80F9D35708DAE746EA064613F1400F4FEA53
S31508011A9016461FDD13F1200FDFBF16430A46002144
S31508011AA020335B42C8D0C3F1200746EA064602FA4C
S31508011AB007F74FEA164646EA0706C3F1200722FA50
S31508011AC003F201FA07F721FA03F14FF0000342EA9C
S31508011AD00702B1E746EA020646EA06464FEA16460D
S31508011AE046EA0106BCBF46EA0646360C4FF0000335
S31508011AF04FF000024FF000019EE72DE9C0489346DA
S31508011B0030B491E8380007C831EA400C48BF34EAD6
S31508011B10430C03D5FFF7F2FDFFF78CFFF0BCBDE8D8
S31508011B2000882DE9C048934630B491E8380007C8C3
S31508011B3010F0804F08BF13F0804F03D100F005F86D
S31508011B40FFF778FFF0BCBDE8008820F07F4780EA00
S31508011B50030023F07F4C07EB0C03A3F57C5300F03D
S31508011B600040A3F1FE0392F0000F00F0B38095F058
S31508011B70000F00F077802DE901494FEA11404FEA3D
S31508011B80144621EA004800FB06FC24EA064708FB3E
S31508011B9006F607FB08F800FB07F718EB06484CEBB7
S31508011BA0164C4FEA124B18EB07484FEA15464CEB11
S31508011BB0174022EA0B4E0BFB06FC25EA06470EFBED
S31508011BC006F607FB0EFE0BFB07F71EEB064E4CEB64
S31508011BD0164C4FF000061EEB074E4CEB174B18EB55
S31508011BE00B0840F1000018EB0E0B58EB000840F10A
S31508011BF000008F1A4FF000013CBFC943661B14BF92
S31508011C00B5EB040C00213CBFC943F61B4FEA174448
S31508011C104EEA8E0E27EA04454FEA1C4704FB076283
S31508011C202CEA074C05FB07F70CFB05F604FB0CFC35
S31508011C3016EB074642EB174216EB0C4642EB1C42E3
S31508011C401BEB060658EB0202414146EA9E0601D500
S31508011C50BDE80189B619524141EB0101A3F101031E
S31508011C60BDE801894FEA14454FEA114724EA0546BA
S31508011C7021EA074C05FB07F406FB07F70CFB06F1FF
S31508011C8005FB0CFC11EB074144EB17444FEA1247DD
S31508011C9011EB0C4144EB1C4422EA074C05FB07F205
S31508011CA006FB07F70CFB06F605FB0CFC16EB0746CD
S31508011CB042EB174216EB0C4642EB1C456A1854F1E7
S31508011CC0000148BF7047B619524141EB0101A3F122
S31508011CD00103704795F0000F37D04FEA11424FEADA
S31508011CE0144721EA024624EA074C02FB07F106FBE0
S31508011CF007F70CFB06F402FB0CFC14EB074441EB5B
S31508011D0017414FEA154714EB0C4441EB1C4125EAF0
S31508011D10074C02FB07F506FB07F70CFB06F602FB69
S31508011D200CFC16EB074645EB174516EB0C4645EB3F
S31508011D301C42121951F1000148BF7047B6195241A8
S31508011D4041EB0101A3F1010370474FEA14454FEA3C
S31508011D50114724EA054621EA074C05FB07F106FB6C
S31508011D6007F70CFB06F24FF0000605FB0CFC12EB1D
S31508011D70074241EB174112EB0C4251EB1C4148BF9C
S31508011D807047921841EB0101A3F101037047000066
S31508011D90814208BF704702F0030332F0030205D0FF
S31508011DA050F804CB41F804CB121FF9D1002BD8BF48
S31508011DB0704710F8012B5B1E01F8012B002BF8DC8C
S31508011DC0704701F0030231F003014FF0000303D01D
S31508011DD040F8043B091FFBD1002AD8BF704700F819
S31508011DE0013B521E002AFADC704710B5074808491C
S31508011DF0084AFFF7CDFF08480849094AFFF7C8FF0F
S31508011E00BDE8104007480849DBE70000C44E05084D
S31508011E100040001000000000C44E050800400010F4
S31508011E20D0010000D041001060680000FEF7F8B844
S31508011E3010B472B63748016841F470010160364C36
S31508011E40012262603548016821F402710160344853
S31508011E50016841F4FE6101603248016841F00101FF
S31508011E600160016811F0020FFBD0DFF8BCC0002346
S31508011E70CCF80030016821F0A0610160016841F4E5
S31508011E8080310160016811F4003FFBD02168CCB2B2
S31508011E902649112C0CBF40F2056440F205740C600A
S31508011EA0244C23492160016841F080710160016871
S31508011EB011F0007FFBD049F20241CCF80010DFF89F
S31508011EC078C04FF48011CCF800100CF104010B60B6
S31508011ED0091D0B60194B4FF08051196089131B1DA1
S31508011EE01960016821F0010101601548026010BC02
S31508011EF0704710B5FFF79CFF01F05EFCBDE8104086
S31508011F00FFF773BF10B5FFF793FFBDE8104001F067
S31508011F1053BC000088ED00E0002004E014ED00E069
S31508011F20FCED00E00038024008380240003C02405F
S31508011F30085440070438024030380240403802400D
S31508011F4000380140EFF3108272B6026070470168EB
S31508011F5081F310887047EFF30581006809B14FF0E6
S31508011F6001007047016881F31088704772B670479F
S31508011F700168EFF3108281F3108882F310887047A5
S31508011F80EFF31080EFF3058180F0010009B14FF0FE
S31508011F9000007047EFF3108072B680F001007047B9
S31508011FA0EFF3108062B680F001007047EFF31081FD
S31508011FB072B601607047016881F3108870470000A6
S31508011FC070477047144A13071168586AD2F800C057
S31508011FD08C45F9D1704730B583B00446002168466F
S31508011FE0FFF7B0FFFFF7EEFF05462046FFF7E9FFCB
S31508011FF0032894BF0024C41EFFF7E4FF401BA04238
S31508012000FAD96846FFF7A3FF03B030BDA8214843B4
S31508012010401F00F01BB90000240400408068406896
S31508012020704780688068704710B584B06FF0030008
S3150801203032496844884228BF314A03D340F8042903
S315080120408842FBD2304C2F4860603048A06000F0CF
S3150801205057FC2F482F490844A1680844A06002F09C
S31508012060F5FD206000F05BFE02F052F800F060FE1C
S315080120700020034600900222042127A000F0EDFB70
S315080120802BA32EA2304931A000F0E7FB364937A031
S3150801209000F0E3FB01A902A800F026FCDDE9011026
S315080120A0FEF78EFA38A028F037FA274937A028F024
S315080120B033FA38A135A028F02FFA20A138A028F044
S315080120C02BFA1BA136A028F027FA01214EF660202B
S315080120D003F0B6F90121022003F038FB0121084675
S315080120E003F0ACF902F0D6FC30A028F015FA38A0B6
S315080120F028F0DEF905F04AF804B010BD000000101A
S315080121000DF0ADBA0000010800400010C44E0400ED
S3150801211000000000D00100002E4E65744D46207661
S3150801212025642E25642E25642E25640D0A000000DB
S3150801213031343A31353A31330000000041756720B0
S31508012140313520323031320098BA030825732C20F4
S315080121504275696C6420446174653A0D0A092573F0
S315080121602025730D0A000000A744060041524D20A0
S31508012170436F6D70696C65722076657273696F6EEF
S315080121802025640D0A0000000C000000252D3135BC
S31508012190730D0A004275696C6420446174653A00DE
S315080121A02020252D3133730D0A0000000C6D61695D
S315080121B06E2065786974656421213F3F3F2E202092
S315080121C048616C74696E67204350550D0A0000001A
S315080121D06D61696E2065786974656421213F3F3FA9
S315080121E02E202048616C74696E67204350550D0A8C
S315080121F00000000010B502F0D9FABDE8104004F05D
S31508012200C5BF000004B02DE9FF0F6846EFF305814D
S31508012210FFF7F0BF81B000B52DE9FF5F6846EFF320
S315080122200381C163AFF3008010B582B00446002173
S315080122306846FFF787FE0021204602F0B7FA04F048
S31508012240A5FF6846FFF783FE02B010BD001FFDDC3F
S31508012250F7460000034951F82020521E41F8202074
S315080122607047000010420010034951F82000002869
S31508012270CCBF01200020704710420010034951F8D5
S315080122802020521C41F820207047000010420010FF
S315080122902DE9F04F8046BE48BE499BB0081AC01CBE
S315080122A016904FEA186017901FFA88F04FF0000B46
S315080122B018904FF0000A0AF031FB0023022204218C
S315080122C0B5A0CDF800B023F0C1FE07F04DFABBA0CA
S315080122D023F0BCFEBD4CC4F8008015F02DF900288A
S315080122E0C0F20D81BAA023F0B1FEC8F3074020B1B0
S315080122F0BB48016841F000410160B94815F016F97B
S315080123000028C0F2FC80B7A023F0A0FE0CF0D8F894
S3150801231001202071DFF8B492B7A023F097FE169832
S315080123209B4920F003079B4D0C4601AA68460BF012
S315080123309BFC00281CBF0099002907D0C86889683A
S3150801234089688847006810F0020F0FD0002000281E
S315080123503DDB2A462146ACA023F078FE291B002244
S31508012360204601F0BDFBB049086026E00C2138463D
S3150801237007F0EEF9060008BF4FF07A40E7D0DDE92D
S31508012380001E0346C86889683A46D1F80CC07146EA
S31508012390E04700280EBF4FF077403446F519D6D0EE
S315080123A0D4E76A462146484623F078FD00280EDB25
S315080123B0606E2044C01C20F0030404F17C00A8428E
S315080123C004D2204624F032F80028EAD10020002859
S315080123D07DDB96A023F03AFE50210AA811F0B2FB44
S315080123E018B99BA023F032FE67E01398C26880688B
S315080123F08168104688470AA97C2691EC080A8DEC63
S31508012400080ADDE91212CDE908120068CDF850B0C4
S31508012410C0F340044CB90121304607F0BDF91490C8
S31508012420002845D03146FEF7CBF87742324614A943
S31508012430684611F0D6FC80B3149D284623F0BEFFEA
S3150801244058B3686EC01C20F003052CB90C21284628
S3150801245007F07EF91590F8B101223946684611F060
S3150801246017FD2A4615A9684611F0BBFCA8B1159DAA
S31508012470284623F0DBFF58B182A023F0E7FD19AA0D
S315080124802946484623F00AFD002807DA0CB10FE071
S3150801249074B9159807F06EF907E005E0199801690E
S315080124A041F008010161C1E714B9149807F062F90E
S315080124B00AA811F07BFB002897D179A023F0C6FD65
S315080124C07B4810F0EBFA002815DB7A4800E012E0A9
S315080124D019F044FB764811F03FF900280BDB76A08A
S315080124E023F0B4FD00213E48189A16F041FD75A067
S315080124F023F0ACFD03E0014674A023F0A7FD384C98
S31508012500206810F0005F17D1206820F44060206031
S31508012510206840F40060206070480068006830B1A7
S315080125200121002300911A46092107F0FFF817989F
S31508012530002818BF0CF006FC206810F0005F20D0B8
S31508012540A06810F0010F1AD0052131EA00000CBF6E
S315080125500120002060F317480020FFF71BFD5548AE
S3150801256019F0A1FE14F0F8FF184880F804B000F03D
S315080125708FFE00F0DDFB0020FFF712FD99E604F05F
S315080125804DFEBAF1000F7FF494AE1BB0BDE8F08F93
S31508012590D8350408C44E05080D0A54696E79434CAA
S315080125A05220284275696C642025642E25642E25DF
S315080125B0642E2564290D0A0D0A0000005374617200
S315080125C074696E672E2E2E0D0A0000001440001045
S315080125D0437265617465642045452E0D0A00000045
S315080125E058520010537461727465642048617264AC
S315080125F0776172652E0D0A00437265617465205410
S31508012600532E0D0A00000000204C6F6164696E6745
S315080126102073746172742061742025782C20656E8C
S31508012620642025780D0A0000904000104C6F616403
S31508012630696E67204465706C6F796D656E742041AB
S315080126407373656D626C6965732E0D0A000000006F
S315080126504552524F523A20436F756C64206E6F741F
S315080126602066696E642064657669636520666F72A3
S31508012670204445504C4F594D454E5420757361675A
S31508012680650D0A00417474616368696E6720646543
S31508012690706C6F7965642066696C652E0D0A000099
S315080126A05265736F6C76696E672E0D0A000000001D
S315080126B08C5500101059001052656164792E0D0A67
S315080126C000000000446F6E652E0D0A004572726F98
S315080126D0723A20253038780D0A000000844000102F
S315080126E030B583B0044600216846FFF72BFC06483F
S315080126F0016801EA04050168A14301606846FFF71C
S3150801270026FC03B0284630BD6C40001010B582B0D7
S31508012710044600216846FFF715FC0748016821436E
S315080127200160416800291CBF806888476846FFF731
S315080127300EFC02B010BD00006C4000102DE9F043FC
S3150801274089B00500109E0F4698467CD03C68002C3F
S3150801275011BF002A002009B0BDE8F08304F1B000DA
S315080127603860A2F10109B0212046FDF74BFFB8F107
S31508012770000F08BFA846C4F800802878606068780A
S31508012780A0606888E060002E18BF306814D0C4F8CD
S31508012790980060681B2856D2DFE800F0551717170E
S315080127A017171717171717171717171C3741414503
S315080127B03755555555174F00294602A812F07CFA88
S315080127C00028A8BF0398E4DBE1E7D5E90101C4E9DC
S315080127D0040138E06D688DB12846C4F8945000F0BC
S315080127E0C0F8C4F890007F2828BF7F2003462A46F0
S315080127F0802104F1100000F079FA24E00020C4F8E1
S315080128009400C4F8900020741DE0686800234A46C5
S3150801281039460096FFF792FF09B0BDE8F08368686C
S31508012820C4F898000FE0E868C4F89C00E888C4F882
S31508012830A000A868C4F8A40005E06868C4F8A80060
S31508012840A868C4F8AC0009B00120BDE8F08304F01B
S3150801285005BE0120704706F065B90FB410B503A986
S31508012860029800F025F810BC5DF814FB04F01EBEB2
S3150801287006F00ABA06F0B6BA0FB410B504AA039957
S3150801288000F078F810BC5DF814FB10F8012B412A0A
S3150801289002D35A2AD8BF203211F8013B412B02D361
S315080128A05A2BD8BF20330AB19A42EED0D01A7047B4
S315080128B0034603480A461946406900F05BB800001A
S315080128C03840001010B582B0044600216846FFF76B
S315080128D039FB04480168A14301606846FFF737FBE5
S315080128E002B010BD6C400010034A02600348801A0A
S315080128F0001D08607047000000000020F8FD012057
S3150801290010B528F0F6FEBDE8104002A11F20FDF71C
S31508012910CFBC00000000000000207047002070476F
S3150801292005F091BC0FB410B505AB049A00F0F5F9A2
S3150801293010BC5DF814FB70B505000B4614461CBFA8
S31508012940002C002B05D0104600F00BF8401C9842CD
S3150801295001D9012070BD21462846FDF70FFD00204B
S3150801296070BD014611F8012B002AFBD1081A401E39
S315080129707047000070B51346ADF5007D04460A465A
S315080129804FF40071684600F0C8F9054604F47F4023
S31508012990B0F5407F0FD006DCB0F5807F18BFB0F5E3
S315080129A0007F1FD107E06E46B0F5A06F11D0B0F5D4
S315080129B0C06F17D105E02A466946204601F045F859
S315080129C010E00A48016869B1002070553046884709
S315080129D008E00024002D05DD305D02F069FB641C6A
S315080129E0A542F9DC0DF5007D284670BD10400010A2
S315080129F0072070470F4910B50A6812F4807F0FD176
S31508012A000A6842F480720A600B490022C1F804235D
S31508012A10CA624A6001228A60084ACA60084A0A618B
S31508012A2001F0D4F800220123114601F0E8F801204B
S31508012A3010BD00004438024000200140922449029A
S31508012A409224491270B59EB004460E4600214348A9
S31508012A50CDE900011AA8694611F0B8FC0EA920466D
S31508012A6001F068FC002871DB03A9304601F062FC1D
S31508012A7000286BDB9DF8100070B19DF83E00002818
S31508012A8008BF4FF0224061D00022214668460EF069
S31508012A90D7FB00285ADB58E0314668460EF066FC3B
S31508012AA0002853DB9DF83C0003A9A8B19DF8120044
S31508012AB028B90C3168460EF0EBF8002846DBBDF85C
S31508012AC00200012818BFFDF701FBDDE90001029AA2
S31508012AD0A260C4E9000138E09DF80000102808D179
S31508012AE0019830B10278122A03D1407810F0100FFC
S31508012AF003D02078102822D112E02078102808D196
S31508012B00606830B10278122A03D1407810F0100FAC
S31508012B1015D00C3168460EF0BBF8002816DB0EE01E
S31508012B20606860B10278122A09D1407810F0100F56
S31508012B3005D10C3168460EF07FFA002806DB694696
S31508012B4020460EF0D3FD002800DB002005461AA812
S31508012B5011F062FC1EB0284670BD0000100001008D
S31508012B607047000010B542694FF4B473526892FB7E
S31508012B70F3FC03FB1C220A4B83FB0232A2EBE27233
S31508012B80002AB8BF3C32074B002903EB820214BF67
S31508012B90B2F90210B2F900100FF0CAF9002010BDFF
S31508012BA0ABAAAA2ABCBA0308022070470C291CBF83
S31508012BB00020704710B504460A48016841F00051E3
S31508012BC00160002201231146201D01F018F806486C
S31508012BD0002C016814BF41F4803141F00101016004
S31508012BE0012010BD4038024000740040704770470C
S31508012BF00020704740F2812070470020704700206E
S31508012C0070470020704705F03FBB05F075BB2DE9FD
S31508012C10F04105000E46174601D0062E01DBFDF7E9
S31508012C2055FA05EB8604206908B1606B08B1FDF712
S31508012C304DFA20690268511C082908BF00210123A1
S31508012C40D0F808C0BCF1000F18BF4FF000080BD12F
S31508012C50D0F804C08C4508BF8360016002EB0211FD
S31508012C6000EB810000F10C08206903FA06F180687F
S31508012C7038606879FFF754FE4046BDE8F08170B5C3
S31508012C8004000D46164601D0062D01DBFDF71EFA96
S31508012C9004EB8504206900281ABF606B0028FDF73C
S31508012CA015FAA6B100202169D1E90032934202BF83
S31508012CB08B68002B70BD531C082B08BF0023C1E984
S31508012CC0013002EB021001EB80000C3070BD206967
S31508012CD0D0E900218A4207BF8268002A01EB011167
S31508012CE000EB810008BF0020EFD170BD10B59446F6
S31508012CF01A46002819BFBCF1000F0029012010BD92
S31508012D00541C00238C4282BF0370012010BD8354DA
S31508012D106146FDF79EFC002010BDFDF7AFBA10B560
S31508012D2001F01EF8012010BD112101600120704734
S31508012D3000B5254883B0007904281CBF23A027F0D5
S31508012D40B7FB0EF0B9FE09F06BFB0020019000906D
S31508012D50694601A800F05EFEDDE9001002F01FF8E1
S31508012D6000F096F900F092FC00F072FF00F042FDC7
S31508012D700020FFF715F90AF0B5FE02F065FB0AF027
S31508012D80E1FEFFF734FF11F003FDFFF72FFF11F006
S31508012D9000FD00F032F803F015FB00F029F800F009
S31508012DA027FD01F013FB00F01AFB00F003FD00F00C
S31508012DB02FFE01F02BFA00F085FE00F01BF803B098
S31508012DC05DF804EB02F0DEBA00C00008436F6E66D8
S31508012DD0696775726174696F6E2076657273696F5A
S31508012DE06E20213D2076657273696F6E0A000000B8
S31508012DF004F0D4BA4FF04A407047012070470000EA
S31508012E00082824BF0020704730B420490B5C0831DC
S31508012E100A5C01F1100000EB83001D4950F8040C0F
S31508012E2010F4803F18BF1B49C0F3842C01240D6898
S31508012E3004FA0CFC15EA0C0F11D10D6845EA0C0CC5
S31508012E40C1F800C0842101808482012B18BF082B98
S31508012E5005D1B0F8441041F40041A0F8441000EB44
S31508012E60820300219986682312F0010F18BF4FF4D7
S31508012E70D04300F1180112F0020F18BF00F11C012E
S31508012E8008881843088030BC0120704708280408C0
S31508012E904038024044380240002808BF704730B520
S31508012EA083B004460D4600216846FFF74BF8002219
S31508012EB02946204602F062FF6846FFF748F803B044
S31508012EC030BD00002DE9F04784B007000C46904656
S31508012ED04FF0000638D03D7844F480300090D8F899
S31508012EE000000190D8F804000290A54208BF012607
S31508012EF023D0192C12D0102C16D0DFF86CA005EBB4
S31508012F0085095AF8290010F4003F08BFFDF7DEF8D5
S31508012F100AEB89004079042816D119E0102D04BF5F
S31508012F207868002805D106E00198002808BF192D00
S31508012F3001D0002600E0012636B13C70D8F8000021
S31508012F407860D8F80400B86004B03046BDE8F08768
S31508012F5004EB84000AEB8000407904283CBF2C4628
S31508012F600126F1D2E9E70000AC01040804F0B0BD7E
S31508012F7030B4C0680024002804BF30BC70474388B9
S31508012F8003EB000C0378012B18BF022B06D0032B89
S31508012F9009D0FF2B10D030BC002070478B4204BFEC
S31508012FA030BC70471AE0032918D155884378EDB229
S31508012FB0AB4213D130BC704703791578AB420DD1BA
S31508012FC043795578AB4209D1C3885588AB4205D1B7
S31508012FD003899588AB4204BF30BC7047002C08BFF3
S31508012FE06046CCD030BC704704F09CBD04F03ABEB4
S31508012FF040F674610160012070470FB410B505AB46
S31508013000049A00F0AEF810BC5DF814FB4FF0FF3CD3
S31508013010C3F800C0C2F800C0C1F800C0032828BF21
S315080130207047DFF818C01CF800C0C1F800C0044991
S31508013030095C11600349085C18607047A4BA030863
S31508013040A7BA0308AABA030800487047007A030A10
S3150801305010B40A22A0FB023401FB02414FF0000C16
S3150801306000FB0C1110BC18467047B0F90000B1F905
S315080130700010401A70470020704708207047072241
S315080130800FF0F8BC014804F051BA0000E8910010AD
S31508013090014804F055BA0000E891001008B50B463E
S315080130A000920246014804F081FA08BDE891001031
S315080130B010B50120FFF7E2F80220FFF7DFF84FF617
S315080130C0FD7081070882FEF77DFF084AD2E90032C2
S315080130D0C01A71EB020028BF09F056F90220FFF762
S315080130E0B9F8BDE810400120FFF7B4B83040001028
S315080130F0F0B583B005460C46164600216846FEF72C
S3150801310021FF0027002C18BF00240FD005EB8401EE
S31508013110086940B1496B31B9076047608760214644
S31508013120284600F041F8641C062CEFDB002E18BF78
S3150801313000200DD005EB8002116900291CBF526BD6
S31508013140002A02D00F604F608F60401C0628F1DB11
S315080131506846FEF7FCFE03B0F0BD04F0F2BD04F0CC
S315080131602BBE70B505460C4609680068FFF7D5FD04
S31508013170012111EBE07208BF206829680023014488
S3150801318029600B702168081A2060104670BD00007E
S31508013190022824BF0020704735214843014901EB25
S315080131A0800070472092001070B582B004000D4669
S315080131B005D004EB8500016909B1406B10B102B075
S315080131C0002070BD6079002814BF114E4FF0A0464B
S315080131D000216846FEF7B6FE06EB451000F530619C
S315080131E0D0F8002B12F0004F0BD1621992F82E205D
S315080131F042F40022C0F8102BD0F8000B40F004402E
S3150801320008606846FEF7A3FE02B0012070BD000003
S3150801321000000440034A10B50021116003F027FDA0
S31508013220002010BD984100107047000010B50446F3
S3150801323004202080022060800020A080E0803723BF
S3150801324008A2382104F10800FFF750FD0E48302284
S315080132500E49D0F85004206404F14400FDF7B2F891
S31508013260012010BD436F70797269676874204F62D7
S3150801327065726F6E206D6963726F73797374656DAC
S31508013280732C20496E632E0000C0000854C4000840
S3150801329070B51E4D002455F8240018B18047641CEA
S315080132A0102CF8D300F058F800F032F801F092F833
S315080132B001F083FE00F00FFC01F08AF801F02CFA08
S315080132C002F07EFC00F026F801F003FB01F065FD33
S315080132D002F0D8FA03F0A2FA11F05DFA0AF098FCA6
S315080132E000F0AEFF01F0C4F801F048FD01F0F0FB73
S315080132F00020FEF74FFE00F04DFE00F02BFA0EF00F
S31508013300B7FBBDE8704009F01BB80000D0410010BA
S3150801331004F066B84FF04A407047802070470000B5
S3150801332000B587B00146684611F0C6FC00280EDBD9
S3150801333003980849C07B00EB800051F820004FF440
S31508013340C02131EA000002BF012007B000BD0020FC
S3150801335007B000BDAC0104080120704740F2012006
S3150801336070470020704700001649174AFF23095C79
S31508013370125C164812F0010F00EB810050F8040C9C
S3150801338018BF4FF47F4300F1180112F0020F18BF5E
S3150801339000F11C010A889A430A80018B828B11432A
S315080133A00DD10B4910F4803F18BF0A49C0F3842098
S315080133B0012202FA00F00A6822EA000008600120E8
S315080133C07047000008280408102804082028040863
S315080133D040380240443802404FF400707047704745
S315080133E02DE9F041DFF84080044682B0D8F80000A4
S315080133F00D4616461F46002804BF02B0BDE8F081F7
S3150801340000216846FEF79EFD300440EA042040EAA2
S3150801341005013A46D8F8000002F0B0FC6846FEF706
S3150801342096FD02B0BDE8F0819841001070B50546D9
S315080134300120FEF723FF0220FEF720FF224905EBB4
S31508013440450001EB0014204609F02AF801201F4E19
S3150801345000FA05F3336094F8200000F0CBFF054627
S3150801346030681842F6D1636A33B394F8220050B132
S31508013470FEF7A8FD164A1268821841F10003204694
S3150801348008F020FF18E094F8231094F82000A26AA7
S31508013490984794F8210003280ED194F82300A842EE
S315080134A004BF80F0010084F8230005D0636A94F80C
S315080134B020002946A26A98470220FEF7CBFEBDE8FE
S315080134C070400120FEF7C6BE28430010143C014097
S315080134D02040001013460A460146014804F076B812
S315080134E0E891001000B583B09DED040ADDED050AEB
S315080134F08DED000ACDED010A05F0ACF803B000BD6B
S3150801350070B5044690F85F00B4F87C50A84238BFFD
S3150801351005462A46A16FA06DFCF754FF84F85C5056
S31508013520A06F00212844A067B4F87C00401BA4F8CA
S315080135307C0094F85F00A84218BFA4F87E100BD14E
S31508013540B4F87E00401B0004000CA4F87E001EBFE0
S31508013550AFF25300606770BD616770BD30B50C4648
S31508013560154600220221FFF703FD002808BF30BDDA
S3150801357000F10D0241880144206878B1904288BF64
S3150801358081422ED92B68934228BF994229D942787C
S31508013590052A04BF0278072A23D10BE000202260FE
S315080135A02860206888421CD24378042B0BD0052B4F
S315080135B00ED010E05A78042A01BF1A78092AC01DCC
S315080135C020600ED1EEE70278092A08BF286002E0DA
S315080135D00078072807D020680278104420608842BE
S315080135E0E2D3002030BD012030BD04F00DBC00003F
S315080135F010B44FF0FF3C019C0628C4F800C0C3F87C
S3150801360000C0C2F800C0C1F800C024BF10BC704792
S31508013610DFF828C003281CF800C0C1F800C0084913
S31508013620095C116024BF10BC70470649095C196022
S315080136300549085C206010BC70470000E60E0408C6
S31508013640EC0E0408E00E0408E30E040800F47F43B8
S3150801365010B54FF0000CC0B2B3F5807F06D0B3F5B4
S31508013660007F07D0B3F5407F0DD108E0401EFFF774
S31508013670F2F802E0401E03F0CFFD844603E0401E47
S31508013680FFF74CF98446604610BD00000349002047
S31508013690086048600249086001207047D8A70010F1
S315080136A06C40001001490968084070476C400010D9
S315080136B010B5044684B014A0FFF753F9002212A1ED
S315080136C0CDE900211346029002220421204608F082
S315080136D08DFD1648D0F8040100281CBF4069002852
S315080136E004F1400409D0818BC28B038C408C218064
S315080136F06280A380E08004B010BD00202080608035
S31508013700A080E08004B010BD436F70797269676864
S3150801371074204F6265726F6E206D6963726F73797B
S315080137207374656D732C20496E632E008C550010D9
S3150801373000207047014803F094BF0000E89100108B
S3150801374008B50B4600920246014803F0ABFF08BDD7
S31508013750E8910010014804F06FB80000E8910010E4
S3150801376010B50446007994F85E10884208BF10BD6A
S31508013770052804D1012211462046FFF7B9FC94F821
S315080137805E002071072811D2DFE800F00408080856
S31508013790080908000020A4F87C00606710BD2046CF
S315080137A00022BDE810400121FFF7A2BCBDE8104088
S315080137B0FCF78CBC012070470C4810B5016840F233
S315080137C0FF121143016000213C2001F0DCFF0021BA
S315080137D03D2001F0D8FF00213E2001F0D4FF002151
S315080137E0BDE810403F2001F0CEBF0000303802404E
S315080137F010F0A2BC012070470320704700487047AB
S3150801380040420F002DE9F04F85B08046022822BFBD
S31508013810012005B0BDE8F08FB8F1000F14BF744858
S315080138207448016814BF41F0005141F080010160FC
S315080138304FF03500704908FB00F001EB800414BF16
S315080138406E4D4FF0A0454FF000016846FEF77AFB32
S315080138500220C5F804088020A8606948E8604FF48A
S315080138601020A863D5F8000840F00300C5F8000841
S31508013870A86B40F40010A8634FF0010A04F1C000D8
S31508013880C4F8D0A0E066B8F1000F14BF06200420E2
S3150801389084F87000002201212046FFF769FB002801
S315080138A014BFC07A082084F85F0094F870100120CC
S315080138B04FF000090129C8BF40210BDD04EB800246
S315080138C0C2F834902218401C82F82E1094F8702001
S315080138D08242F3DC0026B8F1000F14BF0327002744
S315080138E0CDF8089003AA02A92046CDF80C90FFF757
S315080138F035FE002818BFDFF80CB15CD0029894F8A1
S315080139007020807800F07F018A4254DD039A92780C
S31508013910032A50D810F0800F1CBF04EB8100C0F8B1
S3150801392034A002988088082818BF102803D02028B8
S3150801393018BF40283FD1621882F82E008B207843A1
S315080139400BEB800004EB8102C0F80090C0F80490EC
S31508013950C0F80890106102987F1CC07800F0030037
S31508013960012821D049008840064303AA02A9204616
S31508013970FFF7F4FD0028C1D1EEB1A4F8CC604FF4ED
S315080139807A70FEF728FB0021404600F01BFAB8F1D1
S31508013990000F4FF0000215D01B494D2002F0DCFB49
S315080139A0002219494C2014E06846FEF7D0FA05B002
S315080139B00020BDE8F08F6846FEF7C9FA05B0012078
S315080139C0BDE8F08F1149432002F0C6FB00220F49DA
S315080139D02A2002F0C1FB4FF0FF3068614FF4805096
S315080139E0A861C5F83498A86840F00100A860DBE72B
S315080139F0303802403438024020920010000004405A
S31508013A00400C0040C8930010B96C0108A96C010864
S31508013A1001207047002202600A60704700F47F4166
S31508013A20C0B2B1F5807F0AD0B1F5007F0AD0B1F5F1
S31508013A30407F1CBF00207047401EFFF7E0B8401EBC
S31508013A40FEF716BF401E03F08CBC2DE9F0470F4662
S31508013A50164600F47F494FF000086424C5B22BE0EE
S31508013A60B9F5807F06D0B9F5007F09D0B9F5407F51
S31508013A7014D10BE0681E32463946FEF7FBFE0AE012
S31508013A80681E3246394603F06EFC04E0681E32466B
S31508013A903946FFF7B6F8002811DB09D10020FEF7F1
S31508013AA06FFA60B100210122202000F037FE03E001
S31508013AB03224361A074480440EB1641ED0D24046D9
S31508013AC0BDE8F0874FF04A40704700207047002054
S31508013AD070470120704770470120704700207047E2
S31508013AE04B1E0029C8BF08490CDD10F801CB8CEA2A
S31508013AF0126C51F82CC08CEA0222B3F1000CA3F126
S31508013B000103F2DC10467047B8070408704704F051
S31508013B1017BE4FF0FF30704770B5044682B00D46A8
S31508013B20164610EE100A27F073FD41EC100B3246CB
S31508013B308DED000B29462046FEF7F4FE02B070BD56
S31508013B402DE9FF4F82468DB04069171E8B46C26B21
S31508013B50DDE91A6889B2DDF87090104400EBC105F9
S31508013B604FF000042BD92988504609F087FF109990
S31508013B70FCF79AFDF8B996B12A465146684616F0F9
S31508013B8050FA7069816D084400EB0802314606A8AF
S31508013B9016F04FFA06A968460FF066FD58B1DAF82D
S31508013BA00C000BEB040141EA0040C9F8000011B012
S31508013BB00120BDE8F08F641C0835BC42D3D3002030
S31508013BC0C9F8000011B0BDE8F08F0000072824BF2E
S31508013BD04FF0FF3070470249085CC91D085C704701
S31508013BE06628040810B5FA210160084601F056FA5C
S31508013BF0012010BD502834BF0320002070475028EB
S31508013C0028BF704738B504468C4603F00F001146A5
S31508013C10012808BF032102D0002818BF02216246E5
S31508013C20204601F007FD00200346024601460090A2
S31508013C30204602F0D7FA38BD002203238A4228BF5C
S31508013C407047502ABCBF8354521CF7DB70470000EB
S31508013C502DE9F0411420002100F0DEFB00201F4968
S31508013C60054621F81050401C0528FADB00241C4E95
S31508013C70012704EB440006EB00101A49002287616C
S31508013C800DF024FF641C102CF3DB17480560002295
S31508013C901649062002F060FA00221549072002F0AB
S31508013CA05BFA00221349082002F056FA002212494B
S31508013CB0092002F051FA002210490A2002F04CFAB2
S31508013CC000220F49172002F047FA00220D49282041
S31508013CD002F042FA0120BDE8F081000028460010F2
S31508013CE0284300109B650108003C0140E555010881
S31508013CF0EB550108F1550108F7550108FD5501086D
S31508013D000556010889580108502824BF0020704724
S31508013D1070B50E46040900F00F00012101FA00F5FD
S31508013D2082B000216846FEF70DF90C49002E31F8DC
S31508013D30140008BFA84309D0284208BF284305D064
S31508013D406846FEF704F902B0002070BD21F8140098
S31508013D506846FEF7FCF802B0012070BD284600103F
S31508013D6012494FF0FF30086048608860C1F80001C9
S31508013D70C1F80401C1F808010E480D498160C16006
S31508013D80016141618161C16201638163BFF35F8F33
S31508013D900A4AC16308491160A2F10401086008488A
S31508013DA0016841F4E02101607047000080E100E00C
S31508013DB00522010800FE01200007FA050CED00E0C6
S31508013DC024ED00E02DE9F04305460F463520394933
S31508013DD0684301EB800483B0B4F8CC00002804BF23
S31508013DE003B0BDE8F083002D0CBF4FF0A046324E5C
S31508013DF000216846FEF7A6F8D4F8D0004FF000086F
S31508013E004FF0010947B300284DD1C4F8D090D6F830
S31508013E10041841F00201C6F8041894F87000012547
S31508013E20012813DD04EB8500016900291CBF406BDD
S31508013E30002806D0012229462046FEF720FF002841
S31508013E40F8D194F870006D1CA842EBDC84F85E800A
S31508013E502046FFF785FC26E028B3C4F8D080002D5C
S31508013E6014BF40F2C22040F2A220C7B214BF1E20DE
S31508013E700B203B464FF000021146FFF7C0FE002D0E
S31508013E8014BF1F200C203B4600221146FFF7B7FE40
S31508013E90D6F8041821F00201C6F8041884F85E90D1
S31508013EA02046FFF75DFC6846FEF751F803B001208E
S31508013EB0BDE8F083209200100000044070B582B07E
S31508013EC0041E0D461CBF94F87000A842DEBF0020F0
S31508013ED002B070BD6079002814BF1B4E4FF0A04692
S31508013EE000216846FEF72EF804EB850001690029D2
S31508013EF01CBF406B002812D0E06E30F8150010F098
S31508013F00010F12D0012229462046FEF7B8FE0028E5
S31508013F10F8D16846FEF71BF802B0012070BD684665
S31508013F20FEF715F802B0002070BD6846FEF713F8D3
S31508013F3018B12146304602F0C9FB2A4621463046C9
S31508013F4002F04DFBE5E700000000044002282CBF03
S31508013F504FF0FF30001D704770B504460D460B48FB
S31508013F6008F09EFA002C08BF70BD084801230849CD
S31508013F70224683610DF0AAFD4FF47A7005FB00F124
S31508013F80BDE87040014808F098B90000D8A70010AC
S31508013F90496F010810B5024808F082FA012010BDE0
S31508013FA0D8A700102DE9F04F87B05748DFF8509190
S31508013FB0CDF81090DFF84CA1046800260AF16008D4
S31508013FC0002C04BF07B0BDE8F08FD4E90210896858
S31508013FD0884707463020039001A80290D4E90210C9
S31508013FE00DF1140B896806AD8847DDE902215B46A8
S31508013FF0009522F05BF8386810F0020F08D1D4E971
S3150801400002C040F60C12DCF80CC03E4B0199E047A1
S31508014010DFF8F8B0002558F82500B0F1FF3F03D0C6
S3150801402010EB0B0027D125E000F0C6FF386810F029
S31508014030020F10D008EB850001F0BBFB4FF0000C16
S31508014040CDF800C0D4E902160422D1F810C0014601
S3150801405004AB30460DE00AEB85005346C0F8609084
S3150801406000200090D4E902C040F60C12DCF810C01A
S315080140700199E04701266D1C002E3CD1322DCAD389
S315080140800598B96900EB800001EB800500F094FF03
S31508014090A86826F056FA06002DD0386810F0020FE7
S315080140A005D0AA6830460199FCF78CF907E0D4E9EE
S315080140B002C00199DCF80CC0AA683346E047FF2222
S315080140C0C82106F16000FCF773FAC6F86090D4E9D6
S315080140D002200199526A904700F06EFF0020AA68F3
S315080140E00090D4E902C00199DCF810C03346E047D4
S315080140F0304626F024FA03F091F807B0BDE8F08FB0
S31508014100444C544200C0000864400010BCB3ABBD27
S31508014110214830B44FF0FF310A0CC0E900121F489C
S31508014120016841F0030101601D484FF0010CC0F818
S3150801413008C00423400403802021818000210181D5
S3150801414002228281018381835322028541634A1EA9
S31508014150C262A0F814C0134A1380131D1980124CA9
S3150801416017232380231D1980104B19801B1D4FF619
S31508014170FF7119600E49A1F800C0118841F00101CB
S315080141801180018841F001010180002230BC0949F2
S315080141901C2001F0E1BF0000304000104038024009
S315080141A0002004E000040040080400402804004000
S315080141B014040040B130010870B582B004460D46BA
S315080141C000216846FDF7BEFE09484FF08046C0E962
S315080141D000457463FDF7F6FE001B71EB050024BF6D
S315080141E00220B0826846FDF7B2FE02B070BD00003B
S315080141F030400010014908600020704798410010BE
S31508014200002070474FF0FF307047704708F07CB9BF
S315080142100020704713460A460146014803F016BBBB
S31508014220E89100100146014803F03ABBE8910010F5
S31508014230014803F0B7BB0000E891001004F0B0BADA
S3150801424004F0C2BA04F0D6BA90F85C10002904BF8B
S3150801425002207047816D4A780A2A13D2DFE802F0F4
S3150801426005071209120B12120D0F00F00DB801F015
S315080142709DB800F09BBB00F073BB02F05DB801224C
S3150801428002F076B802F070BD81B00022ADF80020C8
S315080142904A88002A04BFCA88022A24D190F85E30C7
S315080142A0032B20D00A7812F00F0208BF00F168012B
S315080142B01CD0012A02D0022A05D014E0052B08BF1A
S315080142C0694610D112E0042B01D18A885AB98A8825
S315080142D002F07F028A8090F870108A423CBFC16E54
S315080142E001EB420102D3012001B070478167022127
S315080142F0A0F87C1002494167002001B07047000010
S31508014300013501080FB40A4608B505A90091014609
S315080143100348049B03F0AEF901B05DF814FB0000F5
S31508014320E891001000B583B08DED000BFEF7FAFA9F
S3150801433003B000BD2DE9F04105000C4603D02878ED
S31508014340142808BF6D6800270126256095B12878CD
S31508014350102801D1686868B1294604F1080010F0EF
S31508014360ABFC0028B8BFBDE8F08127712878102872
S315080143700BD103E0267167718E7122E06868407877
S3150801438010F0100F18BF012000D100206071A1683C
S3150801439001F06002202A18BF402A06D001F01F0149
S315080143A001291CBF0829102901D0A67109E030B9D5
S315080143B00549E068896B884218BF002000D10120B1
S315080143C0A0710020BDE8F081185400100120704743
S315080143D0012070470FF0E6BE7047000003484FF40E
S315080143E07A710068B0FBF1F07047000020400010B8
S315080143F050207047502824BF002070470109054AFC
S3150801440002EB8121096900F00F0021FA00F000F0A2
S3150801441001007047000002400022134610B5121A27
S3150801442073EB01020BDA42F21072821A71F1000182
S3150801443005DA01F020F803490860012010BD0020C3
S3150801444010BD000020400010502828BF70470209FF
S3150801445000F00F00054B03EB8222012303FA00F05B
S3150801446080B2002914BF10835083704700000240B0
S315080144707047000030B50446006A294985B051F8ED
S315080144802000018911F0800FFBD100210180E0692C
S31508014490002818BFFDF7BAFD606800280CBF012186
S315080144A000212068FFF7D0FFA0680125002818BF62
S315080144B0022503AB02AA01A9206AFEF7A7FD00237C
S315080144C01A4619460095019800F0CAFF00230125EE
S315080144D01A4619460095029800F0C2FF00231A46AB
S315080144E019460095039800F0BBFF206A68B10D498B
S315080144F0012804BF086820F480400CD0022804BFB4
S31508014500086820F4004006D006E00748016821F44F
S315080145108051016000E0086005B0012030BD00004F
S31508014520B0BA030840380240443802400628B2BFF0
S31508014530032A002070472DE9F04387B004468946CF
S3150801454090461F46002102A80F9EFDF7FBFC544822
S315080145505449052C50F82450534804BF0A6842F0C0
S3150801456020020ED0002C04BF0A6842F0100208D0BF
S315080145704E4801684FF48032A240114301604C480D
S3150801458000E00A6000EB6900B0FBF9F028810C2015
S31508014590092F08BF41F20C00B8F1000F06D040F40C
S315080145A08060B8F1010F08BF40F40070A881012F9F
S315080145B008BF002738032882002016F0040F18BF09
S315080145C04FF4007016F0020F18BF40F48070A882ED
S315080145D004A8009001AB06AA05A92046FFF708F82A
S315080145E07220032CA8BF8220C7B23B4600220221B3
S315080145F00598FFF704FB3B46012200210698FFF7C1
S31508014600FEFA16F0040F02D00198401C1CD00022B5
S315080146103B4611460198FFF7F2FA16F0020F02D04F
S315080146200498401C10D03B46012200210498FFF74C
S31508014630E6FA0021204600F0F3FA062C24D2DFE838
S3150801464004F00A0E12161A1E02A8FDF780FC07B01E
S315080146500020BDE8F08300221649252012E0002239
S31508014660154926200EE00022144927200AE00022D7
S315080146701349342006E000221249352002E00022BF
S315080146801149472001F068FDA88940F40050A88126
S3150801469002A8FDF75CFC07B00120BDE8F083000025
S315080146A0F40E04084438024000BD010540380240B2
S315080146B080DE8002B95A0108E55A0108115B010832
S315080146C03D5B0108695B0108955B01080620704797
S315080146D010B5040004D04C2001F033FF4D2003E04F
S315080146E02A2001F02EFF432001F02BFF012120464D
S315080146F0FFF768FB002C14BF05480648016814BF7C
S3150801470021F0005121F080010160002010BD000058
S315080147103038024034380240012070472DE9F04311
S31508014720814685B00F46104600F0A5FE04460D46A3
S31508014730002102A8FDF706FCFDF744FC04194D41CA
S3150801474001263846FEF7AEFF38B1804602A8FDF7C6
S31508014750FEFB05B04046BDE8F083FDF733FC001BC0
S3150801476071EB050006D302A8FDF7F1FB05B00020A1
S31508014770BDE8F0831EB10220FDF776FD60B1002089
S31508014780CDE9007001264A462046294607F052FE21
S3150801479002A8FDF7EDFBD4E702A8FDF7E3FB0DF050
S315080147A09BF9064602A8FDF7E1FBCAE730B50C46B8
S315080147B083B0054600210120CDE900010A460823F8
S315080147C04FF4E1310220FEF78DFE24B1214612A0F5
S315080147D000F046F902E015A000F042F916A0E96BCF
S315080147E000F03EF918A0A96B00F03AF91AA0696B16
S315080147F000F036F905F140011BA000F031F900245B
S31508014800214655F824201CA000F02AF9641C0C2C1A
S31508014810F6DD03B030BD0000455843455054494FB5
S315080148204E203078253032783A0D0A004552524FDB
S31508014830523A0D0A000000002020637073723D3061
S3150801484078253038780D0A002020706320203D3005
S3150801485078253038780D0A0020206C7220203D30EA
S3150801486078253038780D0A002020737020203D30D5
S3150801487078253038780D0A002020722530326420D8
S315080148803D3078253038780D0A00000030B50C46E1
S315080148900546011D808885B0022806D103AA684607
S315080148A016F060FD08B1039810B105B0284630BD71
S315080148B0294620460CF0F0FE019A0099201D926FB8
S315080148C089B202EBC101496818F030F805B02046F3
S315080148D030BD4FF04A40704730B505460B4887B0A2
S315080148E02A46D0F8B0410A48CDE90004694603A82A
S315080148F00CF062FE0028BEBF002007B030BD04F1EF
S315080149001400617C07B001FB050030BD5852001048
S315080149101000010000B5FDF755FB5DF804EBFEF745
S3150801492097BBFEF795BB16220260192008607047EF
S3150801493081777047002070470120704708282EBFED
S315080149404FF0FF300149085C704700001828040839
S3150801495001207047002070470120704703F0A0BA74
S3150801496010B5044648887F289CBF8A88002A04BF58
S31508014970C988002903D194F85E10052901D30120BD
S3150801498010BD10F0FF0084F85D000CBF0320042061
S3150801499084F85E002046FEF7E3FE0020A4F87C00BA
S315080149A001486067032010BD0135010810B50446AA
S315080149B0C888002832D194F85E20032A2ED00878B8
S315080149C010F00F0005D0012808BF10BD022825D117
S315080149D014E04888012821D10A4602212046FEF71B
S315080149E0C7FAD8B1C07A10F0200F05D0B4F868001C
S315080149F040F00200A4F8680006201CE0042A01D150
S31508014A00888858B9888800F07F00888000281CBFEC
S31508014A1094F87020824201D94A880AB1012010BD52
S31508014A20E26E32F8103043F0010322F8103088881C
S31508014A3084F8710004200021A4F87C1001496167FB
S31508014A4010BD00000135010808B5009313460A4652
S31508014A500146024802F00EFE08BD0000E89100106A
S31508014A600FB4FF2110B5C0B043AB6846429AFEF7B2
S31508014A7054F904460220FDF7FBFE22466946022048
S31508014A80FDF7F8FE0220FDF7F3FE40B010BC5DF815
S31508014A9014FB000000213222084662F30F0061F37D
S31508014AA0174010B5012161F31F60FDF7F1FBBDE861
S31508014AB0104001A025F0FCBC45786974696E672E23
S31508014AC00D0A0000002070474B2101700120704734
S31508014AD070B5124D002404EB440005EB001007F0F5
S31508014AE0DFFC641C102CF6DB0D490020086006204B
S31508014AF001F027FD072001F024FD082001F021FD22
S31508014B00092001F01EFD0A2001F01BFD172001F006
S31508014B1018FD282001F015FD012070BD284300105D
S31508014B20003C014030B50446006A83B0032822BF21
S31508014B30002003B030BD68B13649012804BF0868B2
S31508014B4040F480400CD0022804BF086840F40040B5
S31508014B5006D006E03048016841F48051016000E062
S31508014B6008602E48226A216950F822304FF45170A4
S31508014B70002918BF40F64430A168002918BF40F043
S31508014B800300E168002908BF80F001004AF21041DC
S31508014B90002A18BF45F208216269B1EBC20F84BF2A
S31508014BA0090940F02000B1EB420F84BF890840F0A3
S31508014BB010008A4238BF40F00800188002AB01AAEB
S31508014BC06946206AFEF722FA216A40F25220022932
S31508014BD008BF40F26220C3B21D4601220021009897
S31508014BE0FFF70DF800222B4611460198FFF707F843
S31508014BF02B46012200210298FFF701F8D4E90001AA
S31508014C0000F0C1FDA069002818BFFDF7FFF90120D2
S31508014C1003B030BD4038024044380240B0BA0308F8
S31508014C2000B5034641B1002102F0AEF9002118464C
S31508014C305DF804EB02F0C2B9012102F0BFF90121C6
S31508014C4018465DF804EB02F09FB9000070B5002222
S31508014C50064D074C20211046FEF742FF0246214623
S31508014C602846BDE87040FEF73BBF00000040001033
S31508014C700000000038B578B1C46901F0F8FF0020DA
S31508014C800346024600900121204600F085FB0028D4
S31508014C9004BF4FF07D4038BD002038BD30B40C1D2F
S31508014CA000F1040C012B2CD0022B1BD0042B02D0B3
S31508014CB0082B37D10AE0406849681AB188422DDCC9
S31508014CC034DA2FE0884229D830D22BE0002AD4E9F9
S31508014CD00023DCE9000102D030BC00F02AB830BC60
S31508014CE000F036B83AB1B0F90400B1F904108842B7
S31508014CF014DC1BDA16E08088898888420ED815D21A
S31508014D0010E03AB190F9040091F90410884205DCE3
S31508014D100CDA07E000790979884202D930BC01200A
S31508014D20704703D230BC4FF0FF30704730BC0020CB
S31508014D307047B2EB000C73EB010CBCBF0120704746
S31508014D40801A71EB0300B4BF4FF0FF3000207047A3
S31508014D50B2EB000C73EB010C3CBF01207047801AC3
S31508014D6071EB030034BF4FF0FF300020704700009D
S31508014D700146014801F054BFAC40001010B5FFF7D9
S31508014D8037FB441E48BF10BD00212046FEF7BCFF75
S31508014D90641EF9D510BD0020704707F0C7BB7047E0
S31508014DA02DE9F00F00268BB00146374630463246CC
S31508014DB03346E84608F80230521C1F2AFADB00225D
S31508014DC0FF230DF1200B0BF80230521C0A2AFADBDD
S31508014DD000280FBF4FF001090BB0BDE8F00F70476F
S31508014DE04B880A7803EB010A022A39D003DA82B121
S31508014DF0012A06D115E0032A00F0CC80FF2A00F02B
S31508014E00D580172051460028EAD00BB0BDE8F00F2F
S31508014E1070473E420FBF01200BB0BDE8F00F704747
S31508014E20F0E7002E18BF0220ECD1162B06BF0A792F
S31508014E30122A0320E6D14A79012A18BF0420E1D1B2
S31508014E40CA7A082A18BF102A04D0202A1CBF402A69
S31508014E500520D7D1497D012914BF06200126D1E7AE
S31508014E60002F18BF0720CDD10A79092A72D1CA881D
S31508014E70121D93426ED14A79022A18BF0920C1D15F
S31508014E800A7A002A08BF0A20BCD04B7A012B88BFB0
S31508014E900B20B7D8CB7A03F08F03802B18BF0C20D1
S31508014EA0B0D10D31521ED5B24A78042A01D00E204E
S31508014EB0A8E70A78092A01D00D20A3E7CA780AB11A
S31508014EC00F209FE70B79002B18BF002210D01BF883
S31508014ED002C0BCF1FF0F07D00A2A07DA8C78A4456D
S31508014EE018BF521CF3D11A200A2A03DB1B2089E7B3
S31508014EF0102087E791F802C009310BF802C04A78F9
S31508014F00052A05D091F800C061444A78052AF9D1E5
S31508014F105A1ED2B22BB92EE04B78052B01D012209E
S31508014F2070E70B78072B01D011206BE78B7803F01C
S31508014F307F03A3F1010CBCF11F0F01D3182061E710
S31508014F4091F803C01CF0030F02D01CF0C00F02D069
S31508014F50132057E71CE0434413F801CCBCF1000FBA
S31508014F6001D019204EE703F8019CC91D1300A2F1CF
S31508014F700102D2B2D0D100287FF444AF2A00A5F1AC
S31508014F800103DDB290D1514508BF01273FF43AAF7D
S31508014F90082037E70A79121D934218BF14207FF4B7
S31508014FA031AF4979032918BF15202BE7097911F083
S31508014FB0800F08BF162025E770477047F0B50746EA
S31508014FC02DED028B89B00C4615461E469DED108ABD
S31508014FD0DDED118AFFF7A6FD002802BF09B0BDEC79
S31508014FE0028BF0BD02968DED038ACDED048ACDE9DB
S31508014FF00045386A0590684601F038FD00281CBF4F
S315080150003846FFF737FA09B0BDEC028BF0BD000050
S3150801501010B582B0044600216846FCF793FF1C4987
S31508015020002051F824108881062C11D2DFE804F0FB
S31508015030030507090B0D252008E0262006E0272091
S3150801504004E0342002E0352000E0472001F079FA37
S3150801505001212046FFF7E4FD0E48052C12D0002C4D
S3150801506004BF016821F0100105D00B4801684FF40F
S315080150708032A240914301606846FCF768FF02B09E
S31508015080012010BD016821F020010160F4E700004C
S31508015090F40E0408443802404038024070470020A4
S315080150A07047C0697047807F084018BF0120704764
S315080150B070472DE9F04FD1F8009083B0002800F031
S315080150C0E480022289F80020002389F801304FF094
S315080150D0090C89F804C089F80520012289F80920F4
S315080150E090F8282089F80A2090F8342089F80B20AE
S315080150F090F8402089F80C20D0F81CE0BEF1000F8A
S3150801510000F0C380DEF80C00009089F8080009F168
S315080151100D00086000989A460028C4BF0EF11400D5
S3150801512001907EDD9EF811200198002502FB0A00F8
S3150801513000281CBF4468002C74D0D1F800C009208F
S315080151408CF8000004208CF80100207C8CF8020001
S3150801515000208CF8030094F834008CF8050094F8C4
S3150801516040008CF8060094F84C008CF8070094F877
S3150801517058008CF808000CF109000860A66A002E90
S315080151801CBFF068002884BF06F1140002902FD9CD
S31508015190727C02FB050000281FBF4768002FFB69C8
S315080151A0002B72D0D1F8008013F1140208F1020025
S315080151B06BD0D3F80CB00BF1020B88F800B03F7C2A
S315080151C088F80170D3F80C800027B8F1000F08D9C8
S315080151D012F8018B00F8018BD3F80C807F1CB845B7
S315080151E0F6D80860F0686D1CA84288BF0298CFD827
S315080151F0E369002B49D0D8688CF80400D8684FF0C9
S31508015200000C00282CD903F114074FF007084FF0BA
S31508015210050B587C00FB0C7000281CBF4268002A4D
S3150801522001E023E031E030D008680CF1010C80F888
S31508015230008080F801B0167C8670147FC470158DC5
S31508015240858092F83420827104F08002324382709C
S3150801525024F08002C270C01D0860D8686045D8D89D
S3150801526000980AF1010A8245FFF65CAF0868092130
S31508015270A0EB0900A9F8020089F80410001FA9F893
S31508015280060003B00020BDE8F08F03B04FF02140BF
S31508015290BDE8F08FF0B4DFF8D8C0DDE904161CF8D4
S315080152A000500CF1080C1CF800700CF1100000EB12
S315080152B0850050F804CC10681A680B68824288BFCA
S315080152C002462C491CF4803F18BF2B49B1FBF3F168
S315080152D0C1B1B1F5803F08D9B0F1004F0FD24908E5
S315080152E040005200B1F5803FF6D8022D18BF052DB2
S315080152F025D0B0F5803F22D3B1F5004F19D9F0BCBE
S31508015300002070471D49B3FBF1F454231CF4803F78
S3150801531018BFA8231A49884284BF1946B0FBF4F07E
S3150801532004D85843B0FBF4F001215A43B2FBF4F216
S31508015330DBE7490040085208B0F5803FDCD2491E38
S31508015340ACF82810401ECCF82C000CEB870082869E
S31508015350B800022101FA00F0BCF82010002E14BF93
S31508015360084321EA0000ACF82000F0BC0120704790
S315080153700828040800BD0105007A030A40420F0007
S31508015380611886014FF04A4070470000014802F053
S3150801539095BB0000E891001008B5DDF808C0CDF806
S315080153A000C003F0B3FA08BD02F0B2BD10B5044659
S315080153B0C888002804BF94F85E00052829D1087812
S315080153C010F00F0005D0012808BF10BD022820D112
S315080153D014E0488801281CD10A4602212046FDF717
S315080153E0C7FDB0B1C07A10F0200F12D0B4F868002A
S315080153F020F00200A4F86800062017E0888810F05B
S315080154007F00888005D094F87020824201D94A88A5
S315080154100AB1012010BDE26E32F8103023F0010303
S3150801542022F81030888884F8710004200021A4F835
S315080154307C100149616710BD0135010800207047DC
S3150801544000207047002070470023024A024903489A
S3150801545008F054BC10410010DC40001010920010F6
S3150801546000B583B0DDF810C0CDE9003C002300F09B
S3150801547071F903B000BD4FF47A71A0FB01017047C1
S31508015480044951F82000008810F0800018BF012057
S3150801549070470000F40E040830B500F47F4183B06C
S315080154A0C4B2B1F5807F06D0B1F5007F10D0B1F551
S315080154B0407F14D125E000210120CDE900011448DF
S315080154C0082300220169601EFEF70CF803B030BDFF
S315080154D0C0F3421000210546FDF795FB10B103B054
S315080154E0002030BD2846FDF77FFD002804BF03B024
S315080154F030BD601E03B00222BDE830400121FDF730
S3150801550075BD03B0601EBDE83040FEF7E5BA000080
S315080155103840001000F47F41B1F5407F1CBF0020E0
S315080155207047C0B2401EFEF7D9BA10B50446084600
S31508015530FEF760FB10F0FF0005D0012121EA5000BB
S31508015540204008BF10BD4FF07D4010BD70B51C4C02
S31508015550206810F4001F31D11A480025432305603D
S3150801556045602A4602211920FEF749FB43230022FA
S3150801557002211620FEF743FB206840F40010206044
S3150801558011484FF400110160056010492A2008806E
S315080155900F49D22008802B20091D088008140D49BF
S315080155A008800D490120088000220C491F2000F0BF
S315080155B0D3FD00220A49202000F0CEFD012070BD4E
S315080155C0403802404441001020380240045400404B
S315080155D01C5400400854004000540040F15801088A
S315080155E0B95801080020FDF721BF0120FDF71EBFAC
S315080155F00220FDF71BBF0320FDF718BF0420FDF7A6
S3150801560015BF000070B509480068094909680525EC
S31508015610084000F47870440914F0010F1CBF2846AD
S31508015620FDF704FF6D1C6408F6D170BD143C0140FA
S31508015630003C01402DE9FF4F1E460309DFF8A8C0CB
S3150801564000F00F000CEB8324012303FA00F7430053
S315080156504FF0030C0CFA03F583B04FF0000C022A45
S3150801566008BF4FF0010C03D0012A08BF4FF0020C06
S315080156700CFA03F299400491310A01FA03F8410739
S31508015680C90E4FEAD0090292C6F303100F2200FA97
S3150801569001FB02FA01FA00216846FCF753FC20686F
S315080156A00499A84308432060E068029AA843104376
S315080156B0E060A068A84340EA0800A06004EB8900FE
S315080156C0016A21EA0A0141EA0B010162606816F0E2
S315080156D0010F14BF3843B84360606846FCF737FCCE
S315080156E007B0BDE8F08F00000000024010B504467F
S315080156F084B008A0FDF735F9002206A1CDE90021FD
S315080157001346029002220421204606F06FFD04B0DA
S31508015710012010BD436F70797269676874204F6202
S3150801572065726F6E206D6963726F73797374656DD7
S31508015730732C20496E632E0013460A46014601481A
S3150801574002F04AB9E891001003F010B90020704739
S315080157500EF042BD502824BF002070472DE9F843BA
S3150801576017469846DDE908620D46002304461946A0
S31508015770FFF760FF3346424639462046009500F05A
S3150801578031FDBDE8F883502828BF704738B504466F
S31508015790FEF75AFE00231A4601212046FFF74AFF63
S315080157A000200346024601460090204600F01AFDF5
S315080157B038BD7047F0B507462DED028B89B00C460A
S315080157C015461E469DED108ADDED118AFFF7AAF9E9
S315080157D0002802BF09B0BDEC028BF0BD02968DED23
S315080157E0038ACDED048ACDE90045386A05906846F5
S315080157F001F052FB00281CBF3846FEF73BFE09B0F4
S31508015800BDEC028BF0BD00000B48008810F0020FBA
S3150801581008D00A48018811F4007F03D1018841F4B0
S31508015820007101800648018821F4E061018005487C
S31508015830002101604160704718540040005400403F
S31508015840045400404441001010B582B004004FF0E2
S3150801585000011046019102BF4FF07F4002B010BD12
S3150801586001A90091002322460121FFF795FD002891
S3150801587002BF4FF07D4002B010BD0198E06102B051
S31508015880002010BD7047000070B509480068094935
S3150801589009680A25084000F47C40840A14F0010FBF
S315080158A01CBF2846FDF7C2FD6D1C6408F6D170BD04
S315080158B0143C0140003C014010B50120FCF7DEFC18
S315080158C00220FCF7DBFC0848084A00210068118021
S315080158D00122102108F0F5F80220FCF7BBFCBDE80F
S315080158E010400120FCF7B6BC444100101454004096
S315080158F02DE9F05F0120FCF7C1FC0220FCF7BEFC94
S31508015900DFF8A8E1DFF8A8B1DEE90001BBF800C0BD
S315080159108A690BF104031B88664F3B88CC6907F13A
S3150801592004094FF00008ABF1040A002C64D01CF0FE
S31508015930010F0FD0012A08BF23F4806104D0022A7F
S3150801594008BF43F4006100D13980417F4906090E39
S31508015950491C57E01CF0020F0BD0012A04BF43F47F
S315080159600070388041D0022A08BF23F480607DD0B8
S3150801597076E01CF0400F36D0022A08BF43F40073C4
S3150801598007D0032A06D11CF0040F18BF23F480633D
S315080159906DD03B80BAF800C0CD680CF0FF04D1F891
S315080159A000C0002D18BFC4460FD10CF101050D60CA
S315080159B08E68B54208BFC1F80080D1E90056B542E4
S315080159C004BF0125CD600D69AC44521E8CF8004018
S315080159D0D1F814C00CF1010CC1E905C2BBF800C02D
S315080159E01CF0400FC8D1012A3AD1B9F8000040F499
S315080159F08060A9F8000051E01CF0010F27D0417F13
S31508015A004906090EAAF800102AE0D1E900C3634540
S31508015A1002BFD1F80CC0BCF1000F43460DD003F10B
S31508015A20010CC1F804C08C68A44508BFC1F80480FC
S31508015A30C1F80C80D1F810C063441B78AAF800306D
S31508015A404B695B1C521EC1E90532BBF800C0002A2E
S31508015A5018BF1CF0800FD8D11CF0040F08BF521CC8
S31508015A602AB9D0E905128A4207D101E015E015E005
S31508015A700122082108F025F810E0B9F8001021F4F0
S31508015A808061A9F80010816902698B00491C81614E
S31508015A90D058CEF8040040F2015038800220FCF7B5
S31508015AA0D9FBBDE8F05F0120FCF7D4BB44410010E7
S31508015AB0145400400054004070B5094D2C8814F068
S31508015AC0200F03D02946002000F001FD14F0800FB5
S31508015AD008BF70BD2946BDE87040002000F010BD22
S31508015AE00010014070B5094D2C8814F0200F03D021
S31508015AF02946012000F0EBFC14F0800F08BF70BDA9
S31508015B002946BDE87040012000F0FABC0044004077
S31508015B1070B5094D2C8814F0200F03D029460220B0
S31508015B2000F0D5FC14F0800F08BF70BD2946BDE80A
S31508015B307040022000F0E4BC0048004070B5094DF1
S31508015B402C8814F0200F03D02946032000F0BFFC4F
S31508015B5014F0800F08BF70BD2946BDE870400320C8
S31508015B6000F0CEBC004C004070B5094D2C8814F0ED
S31508015B70200F03D02946042000F0A9FC14F0800F59
S31508015B8008BF70BD2946BDE87040042000F0B8BCC6
S31508015B900050004070B5094D2C8814F0200F03D031
S31508015BA02946052000F093FC14F0800F08BF70BD4C
S31508015BB02946BDE87040052000F0A2BC001401404A
S31508015BC04FF04A407047012070470020704738B5AA
S31508015BD078B1C46901F04BF80020034602460090EB
S31508015BE002212046FFF7D8FB002804BF4FF07D406D
S31508015BF038BD002038BD10B500F47F410446C0B257
S31508015C00B1F5807F0CD0B1F5007F0ED0B1F5407F9C
S31508015C101CBF002010BD401EBDE81040FEF798BE0F
S31508015C20BDE81040401EFDF772BF401EFDF795FA0C
S31508015C30C4F34210BDE81040FDF7D7BC30B50446A1
S31508015C4000F47F40B0F5407F87B04FF000001CBFDD
S31508015C5007B030BD0290104D039004900590069050
S31508015C602A6812B104A903A89047696800291CBFCC
S31508015C7002A88847AA6812B106A905A890470299F9
S31508015C800698CDE90001DDE90312E0B2401E059B45
S31508015C90FEF760FE07B030BD4C41001007F002BFA9
S31508015CA0B0F5C87F8CBF4FF4C87064280AD845F28E
S31508015CB00723B3FBF0F0401CB0F5805F28BF40F620
S31508015CC0FF7006E043F2AF63B3FBF0F0401C40F40B
S31508015CD000400870000A10707047000010B51F20B8
S31508015CE000F02FFC202000F02CFC0549002008803C
S31508015CF00448016821F400110160012010BD00006B
S31508015D000054004040380240164A10608169036910
S31508015D104FEA810C491C816153F80C105160017FCF
S31508015D20C07FDFF844C001EB0020BCF80010002357
S31508015D300E4A814209D010F4004F14BF0D212B21C0
S31508015D401380ACF800000A48018001201080094838
S31508015D5003800948018841F44071018040F20150ED
S31508015D6010807047444100101C5400400054004004
S31508015D702054004014540040045400401AF006BA56
S31508015D802DE9F04F0C46C98822794FF00009891A86
S31508015D908EB285B0C846CB464F464A46CC4604F134
S31508015DA00D01002E0BD94B78042B08BF0CF1010C01
S31508015DB00B78EBB11A4492B219449642F3D80028EB
S31508015DC01CBF4068002818D000F11805804A6146B2
S31508015DD0284613F00EFB0028BCBF05B0BDE8F08FBE
S31508015DE06868009048B1A07B04F10D05042809D024
S31508015DF005B04FF07F40BDE8F08F05B04FF0214068
S31508015E00BDE8F08F4FF0000ACDF804A0002E46D960
S31508015E100098143004906878042844D005287DD069
S31508015E202878801E0290002FE7D040467A7C07F139
S31508015E30140102FB001408F10108002CDDD0654AA3
S31508015E402146654812F092F80028BCBF05B0BDE8A6
S31508015E50F08F6468002CD0D004F118000390DDE9B6
S31508015E6002105E4A13F0C5FA0028BCBF05B0BDE8AA
S31508015E70F08F039840680028BFD06B785849C4E969
S31508015E8003131430B9D0A91C029AFAF79BFA287899
S31508015E9000EB0A011FFA81FA0544B245BBD305B0E6
S31508015EA00020BDE8F08FDDE90010421C0192497C13
S31508015EB0049A01FB0024464A2146474812F056F83F
S31508015EC00028BCBF05B0BDE8F08F6468002C94D0EB
S31508015ED0A9784348C4E9030169790023C4E90C0197
S31508015EE0A9791F46C4E90F01E979C4E91201297A9A
S31508015EF0C4E9150129784819514489B28E4210D945
S31508015F004278052A08BF5B1C03D0042A18BF7F1CE8
S31508015F1007D00278114489B2104400E024E0B14266
S31508015F20EED304F118082F4A1946404613F061FAD0
S31508015F300028BCBF05B0BDE8F08F4FF00009D8F8BE
S31508015F4004B0002FD8BF00270BDD2434214A394677
S31508015F50204613F04EFA0028AEBF676805B0BDE8C3
S31508015F60F08F4FF0000892E7BBF1000F3FF445AF01
S31508015F7048469BF811200BF1140102FB001409F1A4
S31508015F800109002C3FF439AF164A2146124811F08F
S31508015F90EDFF0028BCBF05B0BDE8F08F606800289A
S31508015FA03FF42BAFA978104A01F07F01C0E903211C
S31508015FB0AB78E97803F080031943C0E90621AA887A
S31508015FC00A49C0E90912AA79C91EC0E90C125EE795
S31508015FD0245500101C55001058520010205400106A
S31508015FE0030001002055001007000100060001000A
S31508015FF02DE9F34F89B006001CBF0A98002815D071
S315080160000024F068254606900028C4BF06F114004E
S31508016010079079DD717C01FB050000281CBF4068EB
S31508016020002803D00178112905D06DE00BB04FF097
S315080160302140BDE8F08F464A4168D2F800319942BD
S3150801604008BF163470D0D2F81031994247D1C069C9
S315080160500D340028EAD0D0F80C800023B8F1000FDF
S31508016060C4BF00F1140990F811A05DDD0AFB039085
S3150801607000281CBFD0F804C0BCF1000FD6D0DCF84C
S31508016080287004F10902F7B1D7F80CB00020BBF16A
S31508016090000F84BF07F114047F7C14D907FB004E57
S315080160A0BEF1000F1FBFDEF804E0BEF1000FDEF8F7
S315080160B01CE0BEF1000FB9D0DEF80CE0921C401CC2
S315080160C072448345EAD8DCF81C000028AED0C068C3
S315080160D05B1CC0EBC00084189845C7DC24E0D2F8E5
S315080160E01431994215D1C06900281CBF406800289F
S315080160F09CD000907E2168460EF009FB0028A4BFBB
S31508016100A11D01EB40040FDA0BB04FF07D40BDE84D
S31508016110F08FD2F818219142F6D1C06C002885D0AB
S31508016120C06804F10A01441806986D1CA842C8BF44
S3150801613007983FF76FAF002CE6D0211D054A0A984C
S3150801614013F057F90028A8BF00200BB0BDE8F08F5F
S3150801615018540010205400100A4A02EB8002BFF3BB
S315080161605F8F116400F01F020121914042094FF02F
S31508016170E02000EB8200C0F88012C0F8001101206F
S315080161807047000000FE01200022026010460A60E6
S31508016190704770B504460E00154608BFF9F796FF15
S315080161A06069A84238BF0546002D14BF002270BD9C
S315080161B0D4E90010884202BFE1680029104608D0D8
S315080161C0411C6160A368994208BF6260E260216967
S315080161D008446D1E007806F8010BE9D170BD002050
S315080161E0704700002DE9FF4F06468A4600F00F006A
S315080161F0012101FA00F48107090F0F2202FA01F8B9
S31508016200320902FA01F900EB4001454883B000EB77
S315080162100115DDF840B01F462846C5F824A006F04A
S315080162203FF900216846ED60FBF78CFE3D48C6F351
S3150801623081013D4B00EB8100BAF1000F60D0016886
S3150801624001EA080149450FD01968214206D0684676
S31508016250FBF77DFE07B00020BDE8F08F016821EA53
S31508016260080141EA0901016085F8206085F8217075
S3150801627085F822B00598A8622C480168A1430160F7
S31508016280011D0A68A2430A60062F25D2DFE807F036
S315080162902403080F0803086820430860002003E068
S315080162A0016821430160012085F8230014E00A688A
S315080162B022430A60016821430160DFF87480C8F847
S315080162C000403046FEF796F8D8F800102142F6D17C
S315080162D080F0010085F82300186820431860042F10
S315080162E002D0052F05D013E03046FEF783F878B1C2
S315080162F003E03046FEF77EF850B90E48046007E021
S31508016300006800EA0800484502D11868A0431860E9
S315080163106846FBF71CFE07B00120BDE8F08F0000B8
S315080163202843001008380140003C0140083C014060
S31508016330143C0140103C01404A88002A01BF8A8862
S31508016340002AC98801290FD190F85E1003290BD0BC
S3150801635000F1600181670121A0F87C10A0F87E1088
S31508016360024941670020704701207047013501083D
S3150801637070B5044688881546002804BFC8880028D1
S3150801638006D194F85E00032802D04888012801D96D
S31508016390012070BD10F0FF0084F860000CBF0420D6
S315080163A0052084F85E002046FDF7DAF925B10020BC
S315080163B0A4F87C0001486067052070BD0135010815
S315080163C00DF01CBF70B51F4C00260125E06882B090
S315080163D000F47F41B1F5807F08D1CDE90056C0B2FE
S315080163E0401E082300222169FDF77CF8606900F444
S315080163F07F41B1F5807F08D1CDE90056C0B2401E74
S31508016400082300222169FDF76DF8E06800F47F4151
S31508016410B1F5007F11D1C0F342100021FCF7F3FB5F
S3150801642058B9E068C0F34210FCF7DEFDE0680222C5
S31508016430C0B2401E0121FCF7D9FD02B0BDE870408B
S31508016440FDF747BB3840001000F47F40B0F5407FA8
S315080164501CBF0020704703480068002818BF0120A8
S31508016460704700004C41001008B588B10022D0F8E9
S315080164701CC00092002914BF064B002302460121C5
S315080164806046FEF789FF002804BF4FF07D4008BD2E
S31508016490002008BD992E01080123036000200B6026
S315080164A0C2E90000704702460020D2F814C001462E
S315080164B0BCF1000F8CBF1369704753F82120491CA2
S315080164C08C4552691044F8D870477047704770B5C3
S315080164D005460C460120FBF7D1FE0220FBF7CEFE4E
S315080164E0A088C1B22846FFF72FF90120FCF70EF95B
S315080164F00220FBF7AFFEBDE870400120FBF7AABEFC
S3150801650038B505460C460120FBF7B8FE0220FBF715
S31508016510B5FE6946284600F04BF9002819BF9DF8D3
S315080165200000A080A08920F0800008BFA081022079
S31508016530FCF7ECF80220FBF78DFE0120FBF78AFE3B
S3150801654038BD00F01F01012202FA01F140094FF09E
S31508016550E02202EB8000C0F880110120704710B5D7
S3150801656082B004004FF000011046019102BF4FF0BE
S315080165707F4002B010BD01A90091002322460221E5
S31508016580FEF70AFF002802BF4FF07D4002B010BD9A
S315080165900198E06102B0002010BD10B50446406ABA
S315080165A0002808BF10BD94F82000FDF723FF94F8D2
S315080165B02320824218BF10BD94F820C00146636AA1
S315080165C06046A26A984794F82100032818BF10BDAF
S315080165D094F8230080F0010084F8230010BD2DE90A
S315080165E0F041164600EB46148046D4F808090D46D4
S315080165F010F0010F1CBF0120C4F8080904F5106743
S31508016600D4F8000910F0004F18BFBDE8F0815EB359
S3150801661005EB8600016900291CBF406B00282BD0B9
S31508016620012231462846FCF72AFB01001CBF081D3A
S31508016630096821D000B341F40022C4F81029D4F81E
S31508016640002942F004423A6008EB063202F580520C
S315080166500029D8BFBDE8F08150F8043B1360091F33
S315080166600029F9DCBDE8F081696F29B12846884718
S3150801667095F85C10A86DDDE7D4F8000940F00060D4
S315080166803860BDE8F081F8B5064615001C468C460B
S3150801669015D06A4629466046FCF7B9FA0146001D37
S315080166A00C6006EB053101F58051002CD8BFF8BD09
S315080166B00A68241F40F8042B002CF9DCF8BD0CF1FC
S315080166C08000CCF8580081F85C40EAE72DE9F041F2
S315080166D0054688460120FBF7D1FD0220FBF7CEFDD2
S315080166E06C6914F0100F14D0286A00F00F02C0F379
S315080166F00A1300F4F010B0F5802F18BFB0F5402F3B
S3150801670003D141462846FFF7BEFF6C6914F0100F06
S31508016710EAD114F4802F11D0D5F818084FF00007E4
S315080167200604360C0AD016F0010F04D03A46414643
S315080167302846FFF754FF7F1C7608F4D114F4002F7E
S3150801674010D0D5F818084FF00007060C0AD016F035
S31508016750010F04D03A464146284600F0A7F87F1CA7
S315080167607608F4D114F4805F06D04146284600F035
S31508016770E3F84FF48050686114F4006F06D041467F
S31508016780284600F0E7FA4FF40060686114F0004FFC
S3150801679006D04146284600F05CFA4FF00040686191
S315080167A00220FBF757FDBDE8F0410120FBF752BD7A
S315080167B002F062B941094FF0E02202EB8101D1F8FA
S315080167C0001100F01F0021FA00F000F001007047E7
S315080167D0044B10B10528B8BF034B18090860180CFB
S315080167E01060704700BD010580DE8002054A10B1C0
S315080167F00528B8BF044A0868904292BF01200020C4
S315080168000A607047D01B5000E80D2800024A52F86A
S315080168102000818070470000F40E04082DE9F0413C
S315080168201D4FF86800F47F41B1F5807F03D1C0B2EE
S31508016830401EFDF76CF9786900F47F41B1F5807F58
S3150801684003D1C0B2401EFDF762F90025002404EB0E
S31508016850451601213046FCF782FC786800F47F4131
S31508016860B1F5007F03D1C0B2401EB04202D0304616
S31508016870FCF773FC641C062CE9DB2846FCF7B5FE1D
S3150801688000212846FCF7BFF96D1C022DDEDBBDE8A9
S31508016890F041FEF751B800003840001008B5DDF8A0
S315080168A008C0CDF800C00DF078FF08BD30B400EB84
S315080168B04213D3F808CB1CF0010F1CBF0124C3F8FF
S315080168C0084B1CF0080F1CBF4FF0080CC3F808CB87
S315080168D0A2B101EB820C00EB4210DCF810C000F506
S315080168E03060DCF808C0BCF1000F1CBFD3F8001BF0
S315080168F041F0006113D0016030BC704791F85F2008
S3150801690042F4002242F0C042C0F8102BD0F8003BF6
S3150801691043F00443C0F8003B30BC00F0D5B911443C
S3150801692091F82E1041F40021C3F8101BD3F8001B6F
S3150801693041F00441DFE700002DE9F0470C464FF02E
S31508016940FF314161402141624FF04011816294F863
S31508016950702080230021002AC4BF4FF0FF0C4FF09E
S31508016960804515DD00EB810643F48002C6F8002157
S3150801697000EB41124033C2F808C9C2F808CBC2F885
S315080169800059C2F8005B94F87020491C8A42E9DC78
S315080169904FF4866101614FF40041C0F80019C0F84F
S315080169A0001B0026C0F810694FF0C041C0F8101B43
S315080169B0B4F8CC104FF001128B084FF001014FF0DB
S315080169C0020C18BFDFF89C802BD013F0030523D0E7
S315080169D0671804EB810997F82E7048EA8545D9F8B6
S315080169E034903D43B9F1000F0AD045F0006500EB3C
S315080169F0411745EA8155C7F8005942EA0C020BE0EE
S31508016A0047F4002900EB4117C7F8109B45F00445E8
S31508016A10C7F8005B42EA0C42491C9B084FEA4C0C3A
S31508016A20D3D10125C0F810580921C0F81418C0F8A7
S31508016A301C280D49816100F50061D0F8000820F491
S31508016A40FE600860A91E0020FCF790FA032065661F
S31508016A5084F85E0084F85D602046BDE8F047FCF7DF
S31508016A607FBE00000080001010180C80F0B41A4A8E
S31508016A704169D0E9006552F82110D0E90272002A6D
S31508016A801DBF0069141840422C4608BF4FF000404C
S31508016A9096F800C0A1F80CC00122012C11DDAA420A
S31508016AA0B8BF16F802C00B8913F0010FFBD08B890A
S31508016AB0A1F80CC00028A8BF3B54401C521CA24296
S31508016AC0EDDB0A8912F0010FFBD089890028A8BFDE
S31508016AD039540120F0BC7047B0BA0308044951F88B
S31508016AE02000008810F0400018BF01207047000000
S31508016AF0F40E04080022026010460A60704700215D
S31508016B0001600120704700002DE9F04399B0054660
S31508016B100020414ECDE90C600F46144614A80CA975
S31508016B200DF054FC1CB1204607F038FC04464FF022
S31508016B3000094A4629460CA8C7F8009014F04EFDEC
S31508016B40B0F100085ADB4FF0FF30CDE90009042304
S31508016B5039460D9A314812F0AFFBB0F100084DDB0A
S31508016B60002C1CBF3868C0F870413868D0F8584105
S31508016B70226B557A002D3ED06846E16A13F09DFADC
S31508016B800498646910F0200F05D00020C4E900605C
S31508016B90681EC5B20C3410A9684613F0A3FAB0F101
S31508016BA000082BDB9DE84F100DF11808BCF1000F0A
S31508016BB0A8E84F100FDD10A906A813F093FAB0F153
S31508016BC000081BDB9DF8400010B14FF0224815E084
S31508016BD00B980028EFDC0026002D0CD96A462146C1
S31508016BE00E4811F0EBF9B0F1000807DB701CC6B2CC
S31508016BF00C34AE42F2D34FF0000805E0386818B1FC
S31508016C0005F0DEFAC7F8009014A80DF005FC19B0D6
S31508016C104046BDE8F08300001000010058520010FC
S31508016C2070B505460E000FD02868002460B155F8E6
S31508016C30240020B101683046F9F736FD30B1641CED
S31508016C4055F824000028F2D1002070BD55F824001B
S31508016C5070BD00F60402D0F8040820F001001060A7
S31508016C6091F8CE0081F85E000846FCF779BD19F067
S31508016C7015BB000008B588B10022D0F81CC00092E7
S31508016C80002914BF064B0023024602216046FEF77F
S31508016C9083FB002804BF4FF07D4008BD002008BDD6
S31508016CA0992E01080020704702494FF0A040FFF7CE
S31508016CB00DBD00002092001001490248FFF706BDEC
S31508016CC0F49200100000044070B506460D460846C9
S31508016CD0FDF7BAFA044604280ED2DFE800F00D2EB5
S31508016CE00B02D6F8001895F85D2041EA0211C6F89C
S31508016CF0001801E000206867002229463046FFF7A0
S31508016D006EFC052C18BF70BD012495F8700001288A
S31508016D10D8BF70BD05EB8400016900291CBF406B13
S31508016D20002804D0224629463046FFF758FC95F834
S31508016D307000641CA042EDDC70BDD6F8001941F460
S31508016D400011C6F80019D6F8001B41F40011C6F85F
S31508016D50001B70BD084691F85E1080F8CE1006211A
S31508016D6080F85E10FCF7FCBC70B5044648880D46F1
S31508016D70030AC1B2E888454EA4F87E004FF0000C1C
S31508016D80B0B194F85E20032A0AD8626E42B1C4F8FB
S31508016D9064C094F85F20824298BF1046A4F87E002A
S31508016DA0C4F878C0A4F87CC06878062805D053E0F2
S31508016DB0A4F87CC00020666770BD012B04D0022BA5
S31508016DC013D0032B48D11EE02A4601212046FCF7A1
S31508016DD0CFF800283ED0011DA167B4F87E100079CE
S31508016DE0814235D2A4F87C1034E02A460221204695
S31508016DF0FCF7BEF870B3011DA167B4F87E10C08810
S31508016E008142EFD324E011B1052914D109E02048C4
S31508016E10A067B4F87E00042828BF0420A4F87C00E3
S31508016E2018E01C49087830B1A167B4F87E10814290
S31508016E3038BF0846F2E72A4603212046FCF798F8A8
S31508016E4040B1011DA167B4F87E1000798142C9D30A
S31508016E500146C7E7A06FA8B92A46FF212046FCF7D5
S31508016E6087F8002804BF012070BD00F10A01A16757
S31508016E704088B4F87E10A0F10A02914228BF114653
S31508016E80A4F87C100020666770BD00000135010872
S31508016E905841001028A50010F0B41B4A4169D0E9F1
S31508016EA0006552F82110D0E90272002A1DBF006957
S31508016EB0141840422C4608BF4FF00040B6F800C0EF
S31508016EC0A1F80CC00122012C12DDAA42B8BF36F87E
S31508016ED012C00B8913F0010FFBD08B89A1F80CC0E6
S31508016EE00028A8BF27F81030401C521CA242ECDB30
S31508016EF00A8912F0010FFBD089890028A8BF27F853
S31508016F0010100120F0BC7047B0BA03080C4910B53F
S31508016F1051F82010898A11F4007F0ED00B2101281F
S31508016F2008BF002102D0022808BF1D210846FDF727
S31508016F3061FA00281CBF002010BD012010BD000009
S31508016F40F40E0408072070470121016070470023E9
S31508016F50136009B1072801D3002070470C20086087
S31508016F600120106070473E2070470023136009B165
S31508016F70022801D3002070470C2008600120106008
S31508016F807047012070470000054A002952F8200081
S31508016F90818914BF41F0200121F0200181817047C8
S31508016FA0F40E0408044951F82000808910F0800085
S31508016FB018BF012070470000F40E0408054A00298D
S31508016FC052F82000818914BF41F0800121F0800127
S31508016FD081817047F40E04082DE9F04704462DED2A
S31508016FE0028B82B08A469DED0C8ADDE90D8916462B
S31508016FF01D464846FEF799FA071E52DB01215046FF
S31508017000FCF782FE002808BF4FF0544749D0B9F172
S31508017010000F04D041465046FEF7B5FB15E0300097
S3150801702003D0022D0CBF01200220CDE90005300056
S3150801703014BF1F4A0022002301465046FEF78AFB69
S31508017040002808BF4FF07D471DD004F130012046C6
S3150801705019F05AF8071E16DB5046FCF7CBFD014618
S31508017060B9F1000F14BF02200120084084ED108AEF
S31508017070C4F858A0C4F87C80266740F01000E5647F
S31508017080002760660DE000200221CDE900010346D4
S31508017090024601465046FEF75DFB00215046FCF7C5
S315080170A033FE02B03846BDEC028BBDE8F08700001E
S315080170B0C338030870B500F16402C36C066F856DA9
S315080170C0006C82B0C4B2106803F0FF0C10F0200FF8
S315080170D01EBF4FF0554002B070BD10F0100F10D012
S315080170E020F010001060CDE9004C0B46064A3146E7
S315080170F02846FEF72FFB002802BF4FF07D4002B05D
S3150801710070BD002002B070BDC338030800B500F198
S315080171106401D0F858C0C06C83B0C2B2086810F0D8
S31508017120200F1EBF4FF0554003B000BD10F0100FE1
S3150801713011D140F0100008600020CDE90002034695
S31508017140024601466046FEF705FB002802BF4FF0DE
S315080171507D4003B000BD002003B000BD072824BF51
S31508017160002070470749CA6C074A105C486388685B
S3150801717040F080408860086810F0020FFBD0C86CA8
S31508017180704700000020014066280408FEE7000059
S31508017190002814BF01480248016070471474004072
S315080171A00874004070B58C4610490A5C0831085CC1
S315080171B0103101EB820151F8044C228C8000012127
S315080171C001FA00F022EA0005258400231A46194629
S315080171D06046FCF714FD25F0EE0030F46E4018BF4A
S315080171E070BD208820F00100208070BD08280408A1
S315080171F02DE9F04106460F46151E4FF0000498BFCB
S31508017200BDE8F08157F824103057FFF7CBFF641C0F
S31508017210A542F7D8BDE8F08100F07CBE02490148D5
S315080172200860FEE70400FA050CED00E070B5284C8D
S31508017230254D264E2168302807D0402837D030689A
S3150801724040F00400306030BF70BD002918BF884780
S31508017250286840F004002860316840F20520084398
S31508017260306030BF1B48016841F4803101602968EC
S3150801727021F004012960016811F4003FFBD001687F
S3150801728041F080710160016811F0007FFBD012495D
S315080172900A6842F002020A60016821F001010160F0
S315080172A06068002808BF70BDBDE870400047002926
S315080172B018BF8847286840F004002860306840F005
S315080172C00600306030BF70BD10ED00E00070004070
S315080172D024400010003802400838024070B50246C2
S315080172E08C4611481149805C8D5C103101EB800197
S315080172F0012251F8044C0E490844002110F8013CBA
S315080173006046FCF77CFCA8000121228C01FA00F0FA
S3150801731010432084208810F0010F03D1A18240F088
S3150801732001002080012070BD0828040810280408DF
S31508017330582804082DE9F04106460F46151E4FF058
S3150801734000040BD957F824103057FFF7C7FF002858
S3150801735008BFBDE8F081641CA542F3D80120BDE849
S31508017360F08100F05DBE00F0C6BE0178102902D09A
S315080173704FF0224070474068002804BF4FF0214073
S3150801738070470078132808BF0020F1D170474FF0E5
S31508017390014070474FF002407047000000B583B0C6
S315080173A000216846FAF7CEFD0C49C86838B908467F
S315080173B0021D02600022C0E901200120C860FEF713
S315080173C0C5F80028684604D0FAF7C1FD03B00120C4
S315080173D000BDFAF7BCFD03B0002000BD20AA0010CD
S315080173E010B582B000216846FAF7ACFD114CE06889
S315080173F0A0B1FEF773FC0023E36020680168002949
S3150801740008BF002080B1D0E90012002A18BF116018
S31508017410002918BF4A6003604360EEE76846FAF739
S3150801742096FD02B0002010BD6846FAF790FD02B03D
S31508017430012010BD20AA001010B5D0E905128A4214
S3150801744004D0807F10F0300F08BF10BD4FF0805078
S31508017450FBF75CF9BDE8104000F058B810B582B0EA
S3150801746004000CD000216846FAF76CFDA07F0428B9
S315080174700ED008DC012814D002280BD011E0F8F749
S3150801748025FE02B010BD082818BF102809D101E051
S31508017490FEF7BAF920460AF051FB2020A07700F042
S315080174A035F86846FAF753FD02B010BD10B582B03B
S315080174B0040022D000216846FAF744FD2246114904
S315080174C010460AF003FB0220A0770F48A0420CD011
S315080174D0D4E90012002A18BF1160002918BF4A60B2
S315080174E04168C4E9000144600C6000F00FF8684681
S315080174F0FAF72DFD02B0012010BDF8F7E7FD02B03D
S31508017500002010BD3974010824AA00100648006835
S315080175100168002908BF0020002808BF7047042118
S3150801752081770021FEF7F0BB20AA001010B50446AA
S3150801753000F038FAD4E904238018594110BD000037
S315080175402DE9F041164E0446306830BB0125A56188
S315080175500021E561C4E9081104F12002111F081F81
S31508017560FEF79AFF0020C4E902000F480D49C92217
S31508017570A1FB00C702FB0072C31701FB0321C4E983
S3150801758000C10849C922A1FB00C7C31702FB007045
S3150801759001FB0300C4E904C035600020BDE8F081A1
S315080175A0D840001000C0692A8C49020070B5064609
S315080175B014461D4600F0F6F9201A65EB0101C6E9E5
S315080175C004013046BDE87040FFF7B0BF1D4870B4EE
S315080175D080FB01C04FEA601CACEBE0706FF0180C41
S315080175E000FB0CF04FF4C87591FBF5FC05FB1C1C60
S315080175F011F0030F01EB800000D110B9BCF1000FA7
S3150801760004D1541C022CC8BF012400DC00240E4DF1
S3150801761011F0030F55F82260344400D110B9BCF1BA
S31508017620000F03D1022AC8BF012000DC002005EBA8
S31508017630820151F8041C0844201A186070BC002005
S31508017640704700001F85EB51D40D04080FB4084696
S3150801765010B5114606AB059AFDF7F6F910BC5DF8AB
S3150801766014FB10B50446FFF761FFD4E9022380181D
S31508017670594110BD70B515460C461A46049B296832
S315080176802068FBF74AFB012111EBE07208BF0020D5
S3150801769021680023014421600B702968081A2860B3
S315080176A0104670BD2DE9F0411046194642F2107296
S315080176B00023069CF8F7BEFD4FF47A720023F8F70B
S315080176C0B9FDE2813C220023F8F7B4FDA2813C22F0
S315080176D00023F8F7AFFD628118220023F8F7AAFD07
S315080176E0054622810E46401C41F10001072200236E
S315080176F0F8F7A0FDA28040F26D1200232846314614
S31508017700F8F798FD40F24161401880B2A0F10101F5
S31508017710474F4FF4C87887FB01324FEA6213A3EB50
S31508017720E2724FEAE17301EB9373C2EBA30291FB99
S31508017730F8F320801A44A0F2416040F26D1300FB71
S315080177400320A0F5C2704FEAE0722B1A76EB02020B
S3150801775017DA89B2481E87FB00325311A3EBE2728E
S31508017760C31700EB937390FBF8F0C2EBA3022180D9
S315080177701044A1F2416140F26D1201FB0200A0F52D
S31508017780C2702D1A66EBE0710E464FF01F024FF0DC
S3150801779000032846F8F74EFD401C81B26180208817
S315080177A010F0030F08D1A7FB003252096FF0180336
S315080177B05A4310EB820204D1B0FBF8F208FB12021D
S315080177C022B94A1C022A88BF012200D80022194B75
S315080177D053F821C062444FEAE27CAA1A76EB0C02FE
S315080177E0A4BF491C618010F0030F08D1A7FB002133
S315080177F049096FF01802514310EB810104D1B0FB1E
S31508017800F8F108FB110020B96088022888BF012019
S3150801781000D80020618803EB810151F8041C084453
S31508017820281A401CE0804FF00100BDE8F0810000F5
S315080178301F85EB51D40D04080348016800291CBFB4
S315080178400021016000207047D840001011F0030F95
S315080178500DD1114880FB01C04FEA601CACEBE0700A
S315080178606FF0180C00FB0CF011EB800006D14FF4F9
S31508017870C87091FBF0FC00FB1C1018B9022AC8BF9E
S31508017880012000DC0020054901EB820151F8041CA6
S3150801789008441860002070471F85EB51D40D040871
S315080178A030B40888DFF8F4C0421E8CFB02435C1131
S315080178B0A4EBE373D41702EB9474C3EBA4044FF45B
S315080178C0C87392FBF3F22244A0F2416440F26D15AB
S315080178D004FB05244A8810F0030F0AD1ACFB005CAF
S315080178E04FEA5C1C6FF018050CFB05FC10EB8C0CC1
S315080178F004D1B0FBF3FC03FB1C0018B9022A88BFAC
S31508017900012000D80020264B03EB820252F8042CF2
S3150801791010442044CA8800241044A0F28510182275
S31508017920A0FB02C5C31703FB025200FB0422088908
S315080179301CEB000054413C22A0FB023504FB025219
S315080179404FF0000C00FB0C224889181842EB0C0476
S315080179503C226346A0FB02C504FB025200FB03233B
S3150801796088894FF47A721CEB000043F10004A0FBEE
S31508017970023504FB02524FF0000C00FB0C2CC8899F
S3150801798042F210721918A1FB02044CF1000C0CFB0F
S315080179900242002301FB032130BC70471F85EB51CE
S315080179A0D40D040870B50446FCF7B4FFA269002A91
S315080179B008BF70BDE369A3FB00C6DD1705FB0060C0
S315080179C003FB0101D4E90803BDE870401CEB000084
S315080179D05941D317F8F72EBC2DE9F843D1E90054DC
S315080179E0804617461E46002C08DA00206D4260EBD9
S315080179F0040428A219463846FCF784FC264A0023C3
S31508017A0028462146F8F766FB1446244A0023121A2B
S31508017A1073EB01020CD2214AF8F75CFB994615462D
S31508017A2003461FA231463846FCF76CFC28464946F0
S31508017A304FF461620023F8F74DFB9946154600900D
S31508017A4018A3324639464046FFF700FE28464946FE
S31508017A503C220023F8F73EFB1546009011A3324657
S31508017A6039464046FFF7F2FD10A3324639464046ED
S31508017A700095FFF7EBFD200006D00EA332463946E6
S31508017A8040460094FFF7E2FD3068002818BF012040
S31508017A90BDE8F8832D00000080969800805101000A
S31508017AA025642E00253032643A0000002530326400
S31508017AB0000000002E25303764000000D0E902C11D
S31508017AC0024A00236046F8F7B5BB00000046C32307
S31508017AD030B583B005460C4600216846FAF732FAF6
S31508017AE02846FBF755FB78B1856825EA0401002489
S31508017AF081602046FBF74CFB806858B16846FAF767
S31508017B0026FA03B0284630BD6846FAF720FA03B0CC
S31508017B10002030BD641C022CEBDB0420FAF7D2FEF0
S31508017B20ECE70000F0B505462DED028B8BB0FBF7AF
S31508017B302FFB0446002108A8FAF704FA002C63D0A3
S31508017B40424F206860B1786800F47F41B1F5007F43
S31508017B5006D1C0F34210A84204BF284600F054F9E2
S31508017B60E06818B90021284600F08EFB38A02022CB
S31508017B70694609F0CCFE0026DFF8E4C000281ABFE2
S31508017B8000206B468CF8006010D00CEB4002195CA3
S31508017B909170D67011B1401C2028F6DB022101EB49
S31508017BA040008CF8000003208CF801000022022115
S31508017BB02046FBF7DDF90646206828BB26B394ED77
S31508017BC0038A80212046F8F71DFD002084ED038AEB
S31508017BD0FF2204EB4001401C81F84C2081F84D201E
S31508017BE00628F6DB65712271F07A10F0400FB4F8B9
S31508017BF0680014BF40F0010020F00100A4F86800F5
S31508017C002846FBF7FFFD38B108A8FAF7A0F90BB02B
S31508017C100020BDEC028BF0BD786800F47F41B1F518
S31508017C20007F04BFC0F34211A94205D1C0B2401E6C
S31508017C3002220121FBF7DAF90120206008A8FAF7E8
S31508017C4086F90BB00120BDEC028BF0BD384000105F
S31508017C505553425F4E414D455F434F4E4649470096
S31508017C6028A5001070B50C46C0F3421100F01F0696
S31508017C7082B015460846FBF78BFA00281CBF016837
S31508017C8000294AD0062E48DAFF2D12D0691E052989
S31508017C9043D2FF2C02D0611E05293ED200EB4606CF
S31508017CA096F84C10FF2904BF96F84D10FF2934D1D8
S31508017CB002E0FF2C31D0EEE7FF2D03D000EB850162
S31508017CC0096951B3FF2C03D000EB8401096921B37B
S31508017CD0FF2D03D000EB8501496BF1B9FF2C03D0C9
S31508017CE000EB8401496BC1B10021FF2D09D000EBDE
S31508017CF0410292F84C30AB421CBF92F84D20AA4281
S31508017D000BD0FF2C0CD000EB410292F84C30A34269
S31508017D101CBF92F84D20A24202D102B0002070BDCC
S31508017D20491C0629E1DB00216846FAF70BF986F8B2
S31508017D304C5086F84D406846FAF709F902B0012019
S31508017D4070BD30B5C0F3421100F01F0583B0084677
S31508017D50FBF71EFA04001CBF2068002801D0062D77
S31508017D6002DB03B0002030BD00216846FAF7EAF8C5
S31508017D7004EB4501002291F84C00FF2806D004EBDC
S31508017D808000006910B1026042608260FF2381F8B9
S31508017D904C3091F84D00FF2806D004EB80000069AD
S31508017DA010B102604260826081F84D306846FAF788
S31508017DB0CEF803B0012030BD70B50D46C0F34211AF
S31508017DC000F01F040846FBF7E3F900281ABF01680B
S31508017DD0002970BDC168002908BF70BD002D00EBE0
S31508017DE044010CBF91F84C1091F84D10FF2908BFBA
S31508017DF070BD00EB81000069002808BF70BD002135
S31508017E0001604160816070BDF0B583B00546FBF73E
S31508017E10BFF9040004BF03B0F0BD00216846FAF7B4
S31508017E2091F82068C8B11C4900204968CEB201F40E
S31508017E307F42C1F34213A6F1010CB2F5007F04BFDC
S31508017E40AB4284450FD004EB400191F84C70FF2FEB
S31508017E5004BF91F84D10FF2905D06846FAF777F85F
S31508017E6003B00020F0BD401C0628E6DBB2F5007F12
S31508017E7002BFAB426046FBF770F900202060284636
S31508017E80FCF726FC0548FAF7A6F86846FAF75FF8FC
S31508017E9003B00120F0BD000038400010A0860100A3
S31508017EA030B583B00546FBF773F9040015A0D0E990
S31508017EB00010CDE9001005F131008DF8030002BF6D
S31508017EC0002003B030BD114DE068002818BFA84254
S31508017ED002D0FCF765FF88B10020024601460290F0
S31508017EE002AB684609F016FD00281CBF0298002857
S31508017EF003D0E060FCF754FF00B1E560E06803B029
S31508017F0030BD00005553420000000000D21D040890
S31508017F10022070472DE9F74F8B4684B0C0F3421112
S31508017F2000F01F0408460091FBF732F95FEA0009E1
S31508017F301FD0062C1DDA99F85E00052819D109EB20
S31508017F40440090F84CA0BAF1FF0F12D009EB8A0051
S31508017F500190006968B1002102A8F9F7F3FF00242E
S31508017F60069EA046002E88BF09EB0A074AD924B106
S31508017F7015E007B00020BDE8F08F01980069D0E947
S31508017F8000218A4202BF8268002A002405D001EB3B
S31508017F90011100EB810000F10C04002C39D097F88F
S31508017FA0280021680D1AAE4238BF3546211D014405
S31508017FB02A465846F8F706FA97F82800761B284401
S31508017FC0C0B287F828002168AB44A844884216D174
S31508017FD0002287F82820019814460069D0E9003163
S31508017FE08B4204BF8368002B05D0491C082908BFAA
S31508017FF00021C0E9011251464846FBF7D5F8069813
S315080180008045B4D302A8F9F7A2FF07B04046BDE8F8
S31508018010F08F012000FA0AF10098FAF7A7FFF1E7B5
S315080180202DE9F041C0F3421100F01F054FF47A74AF
S315080180300846FBF7ADF807001ED0062D1CDA97F89F
S315080180405E00052851D107EB450090F84D80B8F13F
S31508018050FF0F11D007EB8805286968B1D0E900122E
S315080180608A4284BF881A00F108062FD8806800283A
S3150801807014BF08268E1A29E00020BDE8F081414682
S315080180803846FBF71BFF0020F9F77AFF58B1FDF7D1
S315080180909CFD40B10620FEF78DFB00281CBF4FF45E
S315080180A0FA70F9F7B3FF2869D0E9001291423CBF8B
S315080180B0881A083004D38068002814BF0820881A53
S315080180C086420CBF641E4FF47A7406462869D0E9C5
S315080180D00012914204BF8068002809D0002CCEDC2A
S315080180E0286900210160416081600120BDE8F081B5
S315080180F0002CFADCF4E72DE9F74F8946C0F3421163
S3150801810000F01F0484B000250846FBF741F8070074
S3150801811033D0062C31DA0698002804BF07B0BDE82B
S31508018120F08FB9F1000F28D097F85E00052824D101
S3150801813007EB440090F84D000290FF281DD007EB8D
S31508018140800003900069C0B100216846F9F7FAFE7C
S3150801815002984FF0000A069E544607EB000B039857
S3150801816000690268511C082908BF00218368002B91
S3150801817018BF4FF0000811D104E007B04FF0FF30E7
S31508018180BDE8F08F43688B4204BF01238360016019
S3150801819002EB021100EB810000F10C08B8F1000FA7
S315080181A018D09BF82E40B44228BF34462CB122463B
S315080181B0494608F10400F8F705F99BF82E00A04294
S315080181C088BF4FF0010A361BA1442544C8F8004070
S315080181D0002426E0641C642C09D9069886422BD112
S315080181E003980021006901604160816024E0012053
S315080181F0FAF73AF800BB6846F9F7ADFE002804BF5E
S3150801820097F85E00052817D138460299FBF756FEFE
S315080182106846F9F7A7FE3220F9F7F8FE6846F9F736
S31508018220A5FEBAF1000F9AD097F85E00052803D18A
S3150801823038460299FBF742FE6846F9F788FE07B009
S315080182402846BDE8F08F30B583B004460D460021B7
S315080182506846F9F777FE2046FAF79AFF70B18468FF
S3150801826044EA05018160A1421CBF0420FAF74EFACF
S315080182706846F9F76CFE03B0204630BD6846F9F743
S3150801828066FE03B0002030BD2DE9F0410D460024FD
S31508018290FAF77EFF060004BF1C20BDE8F081002D19
S315080182A008BF144D2846FCF77BFD070018BFBDE83B
S315080182B0F081DFF84080F068404518BF22F03FF9A9
S315080182C0454508BFF56011D02978284629B1418866
S315080182D008440C4401780029F9D1241D204622F0CE
S315080182E030F922462946F060F8F76CF83846BDE8B9
S315080182F0F0810000D21D040810B5FAF749FF0028DD
S3150801830004BFFE2010BD016800291BBFC1680029F2
S31508018310FF20007910BD0160002141608160C160C4
S31508018320016141618161C161016241628162C0E9A4
S315080183300B11C0E90D1170472DE9F041044600689B
S31508018340069E0D46006890461F46002808BF13A0E2
S31508018350016861604068A060002239463046FBF733
S31508018360BFFB2061286960612068B0F8501021833D
S31508018370B0F85010491CA0F85010A88A608348F03C
S3150801838002006662C4E9070700200246E060202170
S31508018390201DFBF7A5FBE060BDE8F0814D53706B2E
S315080183A07456310070B50446C56800200246E0607F
S315080183B02021201DFBF794FBA8420CBF01200020B9
S315080183C0E56070BD10B50446D4E9081000B939B99D
S315080183D00022FBF785FB2169884204BF012010BDF5
S315080183E0002010BD2DE9F04104460068069D0F46A0
S315080183F0006890461E46002808BF12A00168616001
S315080184004068A060002231462846FBF769FBC4E9AB
S3150801841004072068B0F850102183B0F85010491CA1
S31508018420A0F8501000206083C4F81C80E060C4E9FD
S31508018430086502462021201DFBF752FBE060BDE8D6
S31508018440F08100004D53706B7456310030B50D46FE
S3150801845093B00446016802A8FFF75DFF002000906B
S3150801846044F2010045EA00020023194602A8FFF773
S31508018470B9FF02A9206803F0FEFE13B030BD012141
S31508018480816370472DE9F05F071D0446B8464FF032
S31508018490020B4FF0060A4FF00109A06B072880F07E
S315080184A0B780DFE800F09E040D415377A40020460B
S315080184B000F0BCF82020C4F838B0C4E90A80ECE71B
S315080184C0206804F12C02111FD0F80CC0406803681B
S315080184D060469847002818BFE06A7DD0C0F120059C
S315080184E0002D1BDD082D34BF2E46082632464AA12B
S315080184F0201DF7F717FF88B1324649A1201DF7F766
S3150801850011FF58B16A1E791C3846F7F7A0FFA06A11
S31508018510401EA062E06A401CE062DFE7082D28BF22
S315080185200320BAD3A063B8E7206804F12C02111F0F
S31508018530D0F80CC04068036860469847002850D0B8
S31508018540E06A002808BF0420A7D1EBE72046FFF719
S3150801855029FFB0B120682146C368806802681846B9
S31508018560904770B1206AB0B3606AB0B3F9F72AFDD3
S31508018570C4E90C010520A063606AA062206AE06272
S315080185808BE7E06910F0010F2ED104212046FFF791
S315080185905DFF29E0F9F716FDD4E90C2305460E46D9
S315080185A0801A61EB0301FCF7BCF91F4A801A71F1C5
S315080185B0000019D2C4E90C56206804F12C02111FD7
S315080185C0D0F80CC0406803686046984720B1E06A55
S315080185D000287FF462AF01E003E005E0C4F838A0A3
S315080185E05BE70120BDE8F09FC4F8389055E72046BF
S315080185F0FFF7E8FE38B120682146C36880684268FB
S3150801860018469047F0E708212046FFF71FFFEBE7DA
S315080186100020BDE8F09F00004D53646267563100A3
S315080186204D53706B745631000087930310B5044699
S31508018630406A002808BF10BD20682146C3688068C3
S315080186408268184690470020606210BD4FF04A4084
S3150801865070470000062824BF002070472DE9F04125
S3150801866004462DED028B84B00E46174698469DEDBD
S315080186700C8A002102A80D9DF9F764FC04EB44005D
S315080186802C4900EBC40001EBC000416911F4003F1D
S3150801869008D002A8F9F75BFC012004B0BDEC028BF7
S315080186A0BDE8F0810021C0E90F144161426942F039
S315080186B0080242F40032426115F0080F03D04269FC
S315080186C042F48072426115F0100F03D0426942F0FC
S315080186D00402426115F0020F03D0426942F40062B6
S315080186E04261C02242634022002383618263C361DF
S315080186F04FF480730160104AC0E9011302EB0422AA
S31508018700C0E903120162C0E909130C4A434602EBA8
S315080187100422C0E90B128DED008A3A4631462046FD
S315080187200195FBF703FF044602A8F9F710FC20465A
S31508018730B3E70000C8A5001040460010404C0010E1
S31508018740062824BF0020704710B582B004460021D0
S315080187506846F9F7F7FB04EB4400104900EBC4003F
S3150801876001EBC000416911F4003F10D00021C0E9B6
S315080187700F14416921F4003141612046FCF748FC98
S3150801878004466846F9F7E3FB02B0204610BD684681
S31508018790F9F7DDFB02B0012010BD0000C8A50010E5
S315080187A0062824BF4FF0FF30704700EB400202EB6A
S315080187B0C000044A02EBC00011B1203021F026BFE7
S315080187C021F024BFC8A5001070B5094D002404EB9B
S315080187D0440000EBC40005EBC000406910F4003FFB
S315080187E01CBF2046FFF7ACFF641C062CEFDB70BDEF
S315080187F0C8A50010062828BF7047F0B506460D46DD
S3150801880000EB4600404900EBC60001EBC00485B009
S3150801881000216846F9F796FB00239C46002D2DD0CA
S31508018820D4E9081088421CD9A26A0A44121A02928B
S31508018830002A50D0884201D1E76AC7B1814298BF60
S31508018840A16AA1EB00018A4298BF11460844029128
S315080188506062A16A884208BFC4F824C0C4F82CC063
S3150801886039E0E26A002A14BFA26A0A1ADFE7CDF8DC
S3150801887008C0C4F824C0C4F820C02CE0D4E900100C
S3150801888088421CD9A2681144091A039119B32268AE
S31508018890904201D1E768C7B1824298BFA268A2EBAC
S315080188A00002914298BF0A46104403926060A1688B
S315080188B0884208BFC4F804C0C4F80CC00BE0E268DB
S315080188C0002A14BFA168091ADFE7CDF80CC0C4F85D
S315080188D004C0C4F800C05B1C022B9FDB7DB1606934
S315080188E010F4807F03D00121304600F031FB606926
S315080188F010F4006F03D001213046FEF745FB6846A8
S31508018900F9F725FB05B0F0BDC8A50010062824BF58
S31508018910002070472DE9F04182B004460E46904684
S315080189201F4600216846089DF9F70CFB04EB440035
S315080189300D4900EBC40001EBC000002D046418BF0B
S315080189402C60022E04BFC0F84480C76404D0012EEF
S3150801895004BFC0F8488007656846F9F7F8FA02B017
S315080189600120BDE8F0810000C8A50010062824BF33
S315080189700020704770B505460E4600EB450035499F
S3150801898000EBC50001EBC00482B0606910F0040F6A
S3150801899003D0112E15D0132E08D000216846F9F7F9
S315080189A0D1FAE26A216A0020F2B90FE0F9F70AFB67
S315080189B0A061E161606920F00800606102B00120F0
S315080189C070BD606940F00800606130E04A1C2262AF
S315080189D0A36A9A4214BF10462062626A904204BF93
S315080189E00120E062206B084420B3067004F12000E0
S315080189F021F00CFE616B88420FD3606910F4807F09
S31508018A0003D00121284600F0C1FA606910F4006F0D
S31508018A1003D000212846FEF7B7FA6846F9F797FA10
S31508018A200521284600F0D2FA0120F9F76FFE02B0B7
S31508018A30012070BD0121284600F0C8FA06A021F0E0
S31508018A406BFD09A0F9F709FF6846F9F780FA02B044
S31508018A50002070BDC8A500100C42756666657220B7
S31508018A604F56464C570D0A00427566666572204F89
S31508018A7056464C570D0A0000062824BF00207047A9
S31508018A8030B50D4600EB400101EBC000244983B027
S31508018A9001EBC00400216846F9F754FA606910F041
S31508018AA0010F60690AD020F0010060611320287067
S31508018AB06846F9F74CFA03B0012030BD10F0020FF1
S31508018AC00BD0606920F002006061112028706846A9
S31508018AD0F9F73DFA03B0012030BDD4E900200021A1
S31508018AE0904204BFE268002A08D0421C6260A3686B
S31508018AF09A4208BF6160E1602169014451B1087871
S31508018B0028700220F9F702FE6846F9F720FA03B041
S31508018B10012030BD6846F9F71AFA03B0002030BDC6
S31508018B20C8A500102DE9F04784B081468846164647
S31508018B30062806D3F7F7CAFA04B04FF0FF30BDE8A6
S31508018B40F087B8F1000F37D009EB49004D4900EB22
S31508018B50C90001EBC004606910F4803F2CD160693B
S31508018B6010F4003F28D00025AA46002E62D900211C
S31508018B7002A8F9F7E7F9721B0092606A08BF57461F
S31508018B8026D0216A884204BFE36A002B19D08142A4
S31508018B909ABFA36A191A091A8A4298BF11460091FF
S31508018BA001446162A26A914208BFC4F824A0C4F8CC
S31508018BB02CA0216B0F180BE004B04FF0FF30BDE875
S31508018BC0F087CDF800A0C4F824A05746C4F820A021
S31508018BD0002F47D0D4E90801814247D9A26A024445
S31508018BE0521AA36B9A4218D8814245D9A26A1044EF
S31508018BF0401A0099084498420FD9606910F4807F99
S31508018C0003D00121484600F0A3F9606910F4006F0A
S31508018C1003D001214846FEF7B7F908EB05003946A6
S31508018C20009AF7F7CFFB0098054402A8F9F78FF9E0
S31508018C30AE429CD800216846F9F784F9C4F83CA0ED
S31508018C40D4E90801884204BFE06A002803D0052157
S31508018C50484600F0BBF96846F9F779F904B02846A1
S31508018C60BDE8F08702A8F9F772F9E3E7E26A002A94
S31508018C7014BFA26A421AB4E7E26A002A14BFA06ABC
S31508018C80401AB6E7C8A5001070B584B0054606288F
S31508018C9002D3F7F71BFA8AE005EB4500504900EBCA
S31508018CA0C50001EBC004606910F4803F7AD16069A0
S31508018CB010F4003F76D06069062610F0040F03D041
S31508018CC0606910F0080F72D02846FEF71FF90028D0
S31508018CD06DD000216846F9F735F96846F9F73BF989
S31508018CE090B92846FEF75EF970B13046FDF762FD88
S31508018CF050B1D4E90001884201D1E06898B36069AE
S31508018D0010F4803F50D136E0D4E90001884204BF0F
S31508018D10E068002827D0606910F4803F44D12846CE
S31508018D20FEF7F4F8E8B32846FCF7AAFB40B928464B
S31508018D30FEF7ECF8A8B32846FCF7A2FB0028F6D004
S31508018D4002A92846FFF798FE9DF808102846FDF760
S31508018D505DFD6846F9F70CF9D4E90001884204BFBC
S31508018D60E0680028D7D16846F9F7F1F8606910F488
S31508018D70803F1CD11EE02846FEF7C8F888B1684630
S31508018D80F9F7F0F84FF47A70F9F740F96846F9F708
S31508018D90EDF8D4E90001884204BFE0680028AED1A5
S31508018DA0E1E701E018E002E06846F9F7D0F804B017
S31508018DB0002070BD2846FCF763FB20B92846FEF75C
S31508018DC0A5F80028F6D12846FDF788FE20B92846D9
S31508018DD0FEF79CF80028F6D104B0012070BD00000A
S31508018DE0C8A500102DE9F04F002585B08146174624
S31508018DF0884606280FD227B3B8F1000F0BD009EB26
S31508018E004900524900EBC90001EBC004606910F43E
S31508018E10803F07D015E0F7F759F905B04FF0FF3055
S31508018E20BDE8F08F606910F4003F0AD060694FF021
S31508018E30010A10F0040F26D0606910F0080F05D05A
S31508018E4021E005B04FF0FF30BDE8F08FFAF7D6FC08
S31508018E50C0EB00101AEB800018D0FAF7CFFCC0EB74
S31508018E60001086004FF0000BF9F7ACF8A269E36928
S31508018E70801A61EB0301301A7BEB010006D26069A7
S31508018E8040F0080060610026B3463FE005B00020C7
S31508018E90BDE8F08F002102A8F9F754F8781B009075
S31508018EA0E2682168E2B9D8B16368994232BF5A1AB1
S31508018EB0D4F808C0ACEB0102904298BF0246009272
S31508018EC0206810442060A268904208BFC4F800B028
S31508018ED02068984208BFC4F80CA02069084402E03B
S31508018EE05846CDF800B038B14146009AF7F76AFA04
S31508018EF000980544804403E0606910F4006F11D0BE
S31508018F0002A8F9F724F8761C022E01DABD42C1D36C
S31508018F1000216846F9F716F887B1606910F4803FB1
S31508018F2008D00BE00021484600F050F802A8F9F7EE
S31508018F300EF8EDE701214846FEF740F86846F9F7CD
S31508018F4006F805B02846BDE8F08F0000C8A5001050
S31508018F5000EB40020C4B02EBC00203EBC202536961
S31508018F6013F4803F18BF7047536923EA41215161C1
S31508018F70516911F4C06F18BF7047516941F0020178
S31508018F8051610121FEF71AB8C8A5001070B50D4642
S31508018F9000EB40010C4A01EBC00102EBC104616917
S31508018FA011F4803F18BF70BD616911F4C06F06D115
S31508018FB0616941F0010161610121FDF7FFFF606906
S31508018FC040EA4520606170BDC8A50010062828BF83
S31508018FD0704730B583B004460D4600216846F8F758
S31508018FE0B1FF04EB44000E4900EBC40001EBC001DC
S31508018FF0052D06D20A6D002A1CBF886C29460AD09F
S3150801900008E0C86B38B9C86C28B10120C863CA6CB6
S31508019010486C691F90476846F8F799FF03B030BD59
S31508019020C8A50010F0B504462DED048B81B00D4698
S315080190302448DDED0A8A9DED0B9A81689DED0C8A1F
S3150801904016461F46A94201BF4068A842002E01B034
S3150801905004BFBDEC048BF0BD94F8A80000282CD100
S315080190601948C4E9000419490320A161A060C4E9AB
S31508019070074004F188000BF074F904F194000BF031
S3150801908070F9134B13A1A3F1380204F130000094CF
S3150801909003F0C9F80020E660C4E9280584ED048ACE
S315080190A06761C4ED098A84ED0A8A84ED0B9A28461C
S315080190B0FCF7F2F9012084F8A80001B0BDEC048B95
S315080190C0F0BD000038400010980D0408B00D0408E2
S315080190D0C80D04084D536462675631002DE9F04105
S315080190E00446886816461F468568002D14BF4FF04A
S315080190F00008BDE8F081D0E90612891B72EB070169
S3150801910004DBD4F8A010B1F5A05F13D9D0E9012189
S31508019110002918BF4A60002A18BF9160C0F8088064
S31508019120C0F80480D4F8A0100269891AC4F8A010FE
S3150801913000F020FB2846AD68002DDCD1BDE8F081A2
S3150801914070B50646FBF774F8094A821841F1FF35EE
S3150801915014462B4606F194013046FFF7BFFF224617
S315080191602B4606F188013046BDE87040FFF7B6BFC9
S31508019170803C36FE10B5486A0C4618B100F0FAFA7A
S3150801918000206062012010BD0120704730B50C48EF
S3150801919083B00A4C0460B0212046F7F711FA00257E
S315080191A000950848CDE9015481682B462A46204690
S315080191B0FFF738FF03B0284630BD00000C5B0010EE
S315080191C0A840001038400010034810B5006800F0A8
S315080191D08DFA002010BD0000A840001070B50546A4
S315080191E08EB0D5E90804A0F114020020079002A860
S315080191F094EC050A0E4604F114030F4980EC050A9E
S315080192003046CDED001A8DED012A00F013FA012141
S31508019210089109AA94EC050A182308A982EC050AFB
S3150801922002463046CDE900130023294600F0B7F877
S315080192300EB0012070BD00009100020070B506460F
S31508019240C8690D4610F4804F6ED110F0020F3AD05E
S31508019250D6F894406168002918BF6B6930D0D4F8F4
S3150801926034C02A1D04F124009C4525D1808AD28A5E
S31508019270904221D116F1900011D0002C18BFA042BE
S315080192800DD0D4E90121002918BF4A60002A18BF68
S31508019290916021464268C1E9012094604460FAF769
S315080192A0C7FFC4E90601E06810F0010F04BF40F0EA
S315080192B00100E06065D103E00C4649680029CED17A
S315080192C006F1180236E0D6F888406168002918BF09
S315080192D06B692ED0D4F834C02A1D04F124006345E5
S315080192E023D1928AC08A82421FD116F1840011D0F5
S315080192F0002C18BFA0420DD0D4E90121002918BFBE
S315080193004A60002A18BF916021464268C1E90120D6
S3150801931094604460FAF78CFFC4E90601002204F15F
S315080193202001304600F0CCF82BE00C4649680029AC
S31508019330D0D132464FF0010C91681068491E4B1C7A
S3150801934018BF002811D043686C69A34218BF0830BA
S31508019350F4D15168026828469047024600232946F7
S31508019360304600F010F8012070BD0C32BCF1000047
S31508019370ACF1010CE0DC00231A462946304600F020
S3150801938002F8012070BD00B583B04FF0000CCDF88E
S3150801939000C0CDF804C000F002F803B000BD2DE905
S315080193A0F04192B00D460746DDE91868C969002003
S315080193B011F0010F1CBF12B0BDE8F08141F00101A7
S315080193C0E96111F4005F18BF4FF40050002A14BF79
S315080193D040F4004440F48044002B08BF44F00104E3
S315080193E0002A04BF0026B04607F1300102A8FEF79D
S315080193F092FF43462246291D02A80096FEF79CFFC6
S3150801940002A907F1300002F036FF12B0BDE8F0817B
S3150801941070B5446A054688B00E4604F10C0012F090
S3150801942006F9002818BF01200290B4E80F100DF1C3
S315080194300C0EAEE80F10182102A8CDE90001002391
S31508019440012229463046FFF7AAFF08B0012070BD60
S3150801945070B505468EB0D5E90804A0F114020020BE
S31508019460079002A894EC050A0E4604F114030F4965
S3150801947080EC050A3046CDED000A8DED011A00F0A3
S31508019480D9F80121089109AA94EC050A182308A913
S3150801949082EC050A02463046CDE900130023294627
S315080194A0FFF77DFF0EB0012070BD0000920002009B
S315080194B090F8A810002908BF7047303002F0D8BECE
S315080194C02DE9F0470D460646D5E907481746D0F86F
S315080194D0A4002022091DFAF7B8FA20280AD1286A19
S315080194E058B1696A49B14246D6F8A400FAF7ADFA05
S315080194F0404502D00020BDE8F087D6F8A400FAF767
S315080195008DFA002F55D014F4005F52D114F0020FD2
S3150801951018BF06F1880731D0002F4AD008F1600933
S315080195204FF40061484600F013F9040041D0D6F81B
S31508019530A0004844C6F8A000C4F81090FAF778FECF
S31508019540C4E9060104F1200095EC080A04F1400A71
S31508019550B8F1000F80EC080A05F1200090E84F12D7
S31508019560AAE84F121CBF686A00280ED004F16000F1
S3150801957060644246696AF6F725FF09E014F0010FAF
S3150801958008BF06F1940714D1C6E700202064606479
S31508019590381F18BFA0420CD0D4E90121002918BFF1
S315080195A04A60002A18BF91604168C4E901108C60BD
S315080195B044600120BDE8F08770B5154612680C466F
S315080195C072B12168D0F8A400FAF740F80028DCBF88
S315080195D0002070BD2168014421602968081A2860A5
S315080195E0012070BD70B505460C46FBF7E5FC214622
S315080195F02846FFF7C9FD002808BF70BD206A38B1A3
S315080196004FF4006100F0C8F8002814BF606270BD0D
S31508019610012070BD70B504460D46FBF7CDFC294601
S315080196202046FFF70BFE002818BF012070BD012256
S31508019630FFF746BF2DE9F04188462DED068B84B02C
S3150801964012A915461F46D1EC058A10A89DED178A61
S3150801965011F0EDFF060002BF04B0BDEC068BBDE8B4
S31508019660F081684631460AF0B1FE4FF4006105F112
S31508019670300000F091F8040030D000206060C4E9A1
S31508019680020804F11000C0EC058AA56284ED098A76
S3150801969027B12A4639461C30F6F794FE16F1200002
S315080196A018BFA0420CD0D4E90121002918BF4A608D
S315080196B0002A18BF91608168C4E9010184604C6081
S315080196C04FF0807108480DF077FE68460AF0A4FE4F
S315080196D0012004B0BDEC068BBDE8F08168460AF0AE
S315080196E09BFE0020F5E700005852001010B504460D
S315080196F090F8A800002808BF10BD0B48007800287C
S3150801970004BFD4F8A400FCF776FA04F188000AF03D
S3150801971016FE04F194000AF012FE0020C4F8A00017
S3150801972084F8A80010BD00000C40001008B5944646
S315080197300093029A6346303002F0A2FD08BD10F884
S31508019740013D1360A3EB830C00EB8C0008607047A6
S3150801975070B5054600F020F804001CBF2946F6F747
S315080197602FFF204670BD00000149081FF9F7BCB854
S315080197708C40001007494968002914BF0028704722
S3150801978010F8101D1E2901D0F8F744BD012113F068
S3150801979033B900008840001010B50446134882B05A
S315080197A0406848B141F00401204613F033F9002816
S315080197B018BF103002B010BD00200090019001A919
S315080197C06846F9F791F80198844204D9F6F77EFCC0
S315080197D002B0002010BD064A0099106801442044D1
S315080197E00091106002B0084610BD000088400010C4
S315080197F0784000100160704710B582B00446FBF747
S3150801980089F8CDE900014840206002B010BD00008A
S3150801981010B500F011F821F060FA9FED051B53EC25
S31508019820112B21F097F841EC100B10BD0000000038
S315080198300000C0FFFFFFDF410E4B0168DFF83CC0A7
S3150801984081EA03020C4992FBF1F101FB0C2244F275
S31508019850A71C02FB0CF26FF4317C01FB0CF102EB45
S3150801986081010029BCBF6FF00042114459400160D3
S315080198700846704724D95B071DF30100E30CFEFF78
S315080198802DE9F041804612480C461746A0FB071001
S315080198904608A6F101050AD04046FFF7CDFF20701C
S315080198A0001260700012A070E41C6D1EF4D2A6EBC3
S315080198B08600C51908BFBDE8F0814046FFF7BCFF21
S315080198C0691E04F8010B0012491EFAD2BDE8F0819F
S315080198D0ABAAAAAA2DE9F04F0646D0F82C90D0F8E3
S315080198E00C80C06BF5698BB0A0F10C044FF0010A2E
S315080198F0D8F82800012818BF2F7800F0F783ECE183
S315080199003CDC38466E2F81F09783DFE807F07D7DD2
S315080199107C7B7B7B7A7978777676767675747372C3
S3150801992071706F6E6E6E6E6E6E6E6E6E6E6D6C6B48
S315080199306A69686766656465636261605F5E5D5CE6
S315080199405B5A595857566261605F5E5D5C5B5A594E
S3150801995058575655545454545454545454545453AF
S315080199605353535353535251504F4E4D4C4B4A49EF
S315080199704847464544434241403F3E3DA7F16F00B3
S31508019980B02881F0598340E0FDE3FDE3FDE3FDE303
S31508019990FDE3FDE3FDE3FDE3FDE3FDE3FDE3FDE3B8
S315080199A0FDE3FDE3FDE3FDE3FDE3FDE3FDE3FDE3A8
S315080199B0FDE3FDE3B7E3ADE39CE375E366E35AE351
S315080199C04DE342E337E32BE31FE312E307E3FEE24A
S315080199D0F7E243E3EDE3EDE3EDE347E2E9E2EBE347
S315080199E0D8E2CFE2C3E2BDE2B7E2AFE2AAE240E2E1
S315080199F0EBE1D0E17CE202E291E11AE2C2E1B8E1EF
S31508019A00AEE1A6E17DE175E1F8E3810079444968B3
S31508019A108F440000EE090000720B00008C0B000059
S31508019A20EC0B0000100C0000AC0D0000AC0D0000A2
S31508019A308809000024160000241600002C110000D5
S31508019A40EC0D00000E0E0000E20E0000560F00009D
S31508019A506A100000A2100000DC100000720B000062
S31508019A60F408000006090000340900006409000032
S31508019A709A090000AC090000BE090000CE020000E8
S31508019A8046090000D00900002C1100001012000040
S31508019A906E12000086120000A2120000A212000037
S31508019AA0A2120000A2120000A2120000A2120000D7
S31508019AB0A2120000A2120000A2120000A2120000C7
S31508019AC0A2120000DC120000DC120000DC12000009
S31508019AD0DC120000DC120000DC120000DC120000BF
S31508019AE0DC12000018160000181600007611000096
S31508019AF0241600002416000024160000241600006F
S31508019B00241600002416000024160000241600005E
S31508019B10241600002416000024160000241600004E
S31508019B2024160000F40800009A090000060900003E
S31508019B30AC09000034090000BE09000064090000F0
S31508019B40CE02000024160000241600002416000088
S31508019B50241600002416000024160000241600000E
S31508019B601816000018160000241600002416000016
S31508019B7018160000241600002416000024160000FA
S31508019B8024160000241600002416000024160000DE
S31508019B90241600002416000038130000AC09000042
S31508019BA09A0900004609000046090000D00900008C
S31508019BB0A6070000A6070000D2070000D20700008A
S31508019BC0BC070000BC070000AC130000CC13000062
S31508019BD0CC13000012070000D0090000241600006B
S31508019BE0241600002416000024160000241600007E
S31508019BF0241600002416000024160000241600006E
S31508019C00241600002416000024160000241600005D
S31508019C10241600002416000024160000241600004D
S31508019C20241600002416000024160000241600003D
S31508019C30241600002416000024160000241600002D
S31508019C40241600002416000024160000241600001D
S31508019C50C002000024160000181600005A1400005D
S31508019C607214000084140000A8140000BE14000039
S31508019C70D41400000815000024160000240300006F
S31508019C8004040000040500009C030000D003000042
S31508019C90980400001816000024160000E0150000BC
S31508019CA02E1600002E1600002E160000561500006E
S31508019CB0DC1500001816000018160000241600000E
S31508019CC062150000241600008C1500001816000005
S31508019CD018160000287800F580776D1C6E2F7FF422
S31508019CE00FAE0B21204607F0F7F9031EC1F2FC81DE
S31508019CF001F0A7B90C342046716907F0CDFC00F0D4
S31508019D00E9BF07EB47016FF01702706902EB8101A2
S31508019D100C340144204607F0BFFC00F0DBBF15F800
S31508019D20010B716900EB40000C3401EB8001204600
S31508019D3007F0B2FC00F0CEBF35F8020B716900EBF3
S31508019D4040000C3401EB8001204607F0A5FC00F029
S31508019D50C1BF0C342046B16907F09EFC00F0BABFBA
S31508019D60B0690C3400F10C01204607F095FC00F0AF
S31508019D70B1BFB0690C3400F11801204607F08CFC1C
S31508019D8000F0A8BFB0690C3400F12401204607F0A1
S31508019D9083FC00F09FBF15F8010BB16900EB400089
S31508019DA00C3401EB8001204607F076FC00F092BFE7
S31508019DB035F8020BB16900EB40000C3401EB800168
S31508019DC0204607F069FC00F085BF15F8010BB1695B
S31508019DD000EB40000C3401EB8001204606F044FFFD
S31508019DE001F02FB935F8020BB16900EB40000C34CC
S31508019DF001EB8001204606F037FF01F022B915F87C
S31508019E00010B716900EB40000C3401EB800120461F
S31508019E1006F02AFF01F015B935F8020B716900EB56
S31508019E2040000C3401EB8001204606F01DFF01F0CD
S31508019E3008B907EB47016FF07702B06902EB8101B8
S31508019E4047186088012818BFF6F740F9787810F0A6
S31508019E50080F3BD16088012818BFF6F737F9616802
S31508019E60A068C7E9011038780C2868D80C3C01F0BD
S31508019E70E8B815F8010BB16900EB400001EB800762
S31508019E806088012818BFF6F721F9787810F0080FCD
S31508019E901CD16088012818BFF6F718F96168A0680F
S31508019EA0C7E9011038780C28E0D948E035F8020BE3
S31508019EB0B16900EB400001EB80076088012818BFF3
S31508019EC0F6F704F9787810F0080F04D021463846D9
S31508019ED007F091FBCAE76088012818BFF6F7F6F87C
S31508019EE06168A068C7E9011038780C28BED926E050
S31508019EF015F8010B716900EB400001EB80076088DA
S31508019F00012818BFF6F7E2F8D4E90101C7E901010A
S31508019F1038780C28AAD912E035F8020B716900EBDA
S31508019F20400001EB80076088012818BFF6F7CEF8D4
S31508019F30D4E90101C7E9010138780C2896D92068C6
S31508019F40386093E70C340021F8481FE00C341638C2
S31508019F50F749C4E9001001F074B815F9011B0C346E
S31508019F60F34813E055F8041B0C34F1480EE0296850
S31508019F706A68F04B083544F80C3F201DC0E9001209
S31508019F8001F05FB855F8041BEB480C34C4E900012D
S31508019F9001F057B828686968E84BCDE9000144F82B
S31508019FA00C3FCDE90001606001980835A06001F019
S31508019FB048B80C34A4F10C01204607F06DFB01F0FA
S31508019FC040B80C3C04F10C001CF042F975E00C3C5D
S31508019FD004F10C001CF03CF980F001006DE020460C
S31508019FE0183C0C3804F11801012206F019FFA8B330
S31508019FF058E02046183C0C3804F11801012206F0F5
S3150801A0000FFF012101EBE07057E02046183C0C38A0
S3150801A01004F11801012206F003FF002840DC41E0A3
S3150801A0202046183C0C3804F11801012206F0F8FE06
S3150801A030002835DD36E02046183C0C3804F11801B5
S3150801A040012206F0EDFEC00F37E02046183C0C3819
S3150801A05004F11801002206F0E3FE10B320E02046C1
S3150801A060183C0C3804F11801002206F0D9FE01212A
S3150801A07001EBE07021E02046183C0C3804F1180188
S3150801A080002206F0CDFE00280ADC0BE02046183C2B
S3150801A0900C3804F11801002206F0C2FE002801DC82
S3150801A0A001200AE0002008E02046183C0C3804F19B
S3150801A0B01801002206F0B4FEC00FA149C95D07299F
S3150801A0C00CBF15F9011B35F9021B002818BF0D44F1
S3150801A0D0706A10F0004F04D02A46314699480EF0AE
S3150801A0E0BDFBD8F8280000283FF402AC4FF00073F6
S3150801A0F000F0FABF214615F8010B49680C3C81426C
S3150801A10004D205EB4101B1F900100D4405EB4005F8
S3150801A11000F097BF2146084607F028F9031EC0F24A
S3150801A120E38700F0D7BD183C4FF0000B552F18D028
S3150801A1300EDC512F17D0522F08BF4FF0010B12D04A
S3150801A140532F08BF4FF0020B0DD0542F06D00AE04B
S3150801A150562F03D0572F04D0DF2F04D14FF0040B0D
S3150801A16001E04FF0080B04F1180007F0A4FA5A466B
S3150801A17004F10C0104F1180007F062F8031EC0F29D
S3150801A180B38700F05EBF24E108E1FEE0F4E0DBE01E
S3150801A190C3E0B9E0ACE0A3E097E08BE07FE072E0D2
S3150801A1A064E058E04CE040E034E028E01BE00FE0D2
S3150801A1B003E0D2E125E1FDE3FDE30C3C04F10C01EA
S3150801A1C0204606F087F9031EC0F28E8700F039BFD4
S3150801A1D00C3C04F10C01204606F06BFB031EC0F291
S3150801A1E0838700F02EBF0C3C04F10C01204606F0D3
S3150801A1F032FA031EC0F2788700F023BFFEE30C3C57
S3150801A20004F10C01204606F0CDF9031EC0F26C8755
S3150801A21000F017BF0C3C04F10C01204606F012FCB5
S3150801A220031EC0F2618700F00CBF0C3C04F10C015F
S3150801A230204606F09EFA031EC0F2568700F001BFBB
S3150801A2400C3C04F10C01204606F02AFC031EC0F260
S3150801A2504B8700F0F6BE21460C3C4B686268201D10
S3150801A2601A406260A2688968114009E021460C3CDF
S3150801A2704B686268201D1A436260A26889681143A7
S3150801A280416000F0DEBE21460C3C4B6862685A40CC
S3150801A2906260A26889685140A16000F0D2BE0C3C98
S3150801A2A004F10C01204606F0BFFA031EC0F21C8712
S3150801A2B000F0C7BE0C3C04F10C01204606F0D0FAAA
S3150801A2C0031EC0F2118700F0BCBE0C3C04F10C0160
S3150801A2D0204606F00DFC031EC0F2068700F0B1BE4B
S3150801A2E0204606F00BFA031EC0F2FE8600F0A9BE50
S3150801A2F06168A068C943C043CDE9001008460199C1
S3150801A300C4E9010100F09DBE0221204606F0E4FEE3
S3150801A310031EC0F2E98600F094BE0521204606F028
S3150801A320DBFE031EC0F2E08600F08BBE10000100C2
S3150801A330070001000A000100090001000C000100E4
S3150801A340F8050408585200100721204606F0C4FEF5
S3150801A350031EC0F2C98600F074BE207814281CBFFB
S3150801A3601A28072100F06D86204606F0B5FE031E61
S3150801A370C0F2BA8600F065BE0A21204606F0ACFE98
S3150801A380031EC0F2B18600F05CBE0921204606F024
S3150801A390A3FE031EC0F2A88600F053BE0C21204678
S3150801A3A006F09AFE031EC0F29F8600F04ABE0321FC
S3150801A3B0204606F091FE031EC0F2968600F041BEC5
S3150801A3C00621204606F088FE031EC0F28D8600F09F
S3150801A3D038BE0821204606F07FFE031EC0F2848699
S3150801A3E000F02FBE207814281CBF1A28082100F077
S3150801A3F02886204606F070FE031EC0F2758600F018
S3150801A40020BE35F8020BF949C20B8A5CC0F30E016E
S3150801A41062F31F614A46684611F00EF9002800F0FA
S3150801A420D4850298407AC0F1010000EB400004EBA4
S3150801A43080090298406810F4003F30D0D9F80470BA
S3150801A4401FB138781B2804D076E04FF0214300F07D
S3150801A4504BBE07F11001684611F020F902984068D1
S3150801A46010F0100F0BD0029809F10C01407A00EB9D
S3150801A470400082004846F6F75EF80C3C5CE007F1BE
S3150801A4801401484607F008F999F80000102834D154
S3150801A490D9F8040088B3007835282ED14AE010F09F
S3150801A4A0100F49D1282F04BFD9F80400002843D03A
S3150801A4B003A948460AF008FD031EC0F215866F2F48
S3150801A4C011D10298406810F4107F0CD004AB6A468B
S3150801A4D003A9C74807F002FC002800F0768504A9FD
S3150801A4E0684611F0DBF899F80000102805D1D9F86B
S3150801A4F0040010B1007835281CD00020E0B104F121
S3150801A5000C00F561F06399F800004FF0000A102875
S3150801A51002BFD9F804000028F5F7D8FD09F10C03A4
S3150801A5204A466946404607F0E7FE031EC0F2E38540
S3150801A53000F0BFBD0120E1E704F10C00F561F0630D
S3150801A5404FF0000A4FF0FF326946404608F034F8EA
S3150801A550031EC0F2D08500F0ACBD04F10C00F56114
S3150801A560F063706A10F4802F06D03046B46807F09D
S3150801A57017FF264600F0A8BD304607F011FF4FF039
S3150801A580A06300F0B8BD183CAD1C04F1180104F134
S3150801A5900C0007F0ABF8031EC0F2A68500F051BD0A
S3150801A5A035F8020B9349820B8A5CC0F30D0162F3FD
S3150801A5B01F614A4607A810F0E5FD002800F0058549
S3150801A5C00AA920460AF080FC031EC0F28D850A9965
S3150801A5D00798884240F0F98404F10C00F06321469B
S3150801A5E004A807F059F8684604A909F0EFFE04A97A
S3150801A5F0204606F0BBFE031EC0F2038300F00EBB25
S3150801A60035F8021B0B2060F31F61204618300C3405
S3150801A610F0634A46204610F0A7FD031EC0F2648582
S3150801A62000F00FBD35F8020B7049C20B8A5CC0F306
S3150801A6300E0162F31F614A46684610F0FDFF0028C5
S3150801A64000F0C384694603A810F068FE20460C345E
S3150801A6501830F561F06305994FF0000AC98A11F4BB
S3150801A660C06F0299497A0BD0494201EB410100EBCF
S3150801A670810505F10C00F063287B10280CD007E052
S3150801A680A1F1010BA0F10C07BBF1000F29DC3EE09B
S3150801A6904FF0224300F02FBD2C6974B10398E06096
S3150801A6A004F1100106A810F0F9FF0028F0D0089867
S3150801A6B0406810F0100F04D008E04FF0214300F075
S3150801A6C01ABD294604F1140006F0E6FF4A48C5E911
S3150801A6D00004F06B4FF0010AA0F10C04F56900F0D3
S3150801A6E0B0BC37F80A0CA7F10C09012818BFF5F711
S3150801A6F0EDFC3846D9E90012D9F80830C0E900124C
S3150801A700BB600C3FABF1010BBBF1000FE9DC00218B
S3150801A7103948C7E9000103AA394638480EF00EFD43
S3150801A720031EC0F2E184706A40F010007062059859
S3150801A730C08A00F0300010282FD13878102804BFBD
S3150801A7401420387029D0F76B07F10C00F0630298D2
S3150801A750407AA0F1010BBBF1000F15DD37F80A0CA1
S3150801A760A7F10C09012818BFF5F7B0FC3846D9E955
S3150801A7700012D9F80830C0E90012BB600C3FABF1F2
S3150801A780010BBBF1000FE9DCA7F10C01384606F015
S3150801A7906BFA706A20F0100070624FF0FF3269465A
S3150801A7A0404607F009FF031E80F28384B3F1774F11
S3150801A7B040F09A84706A20F01000706200F094BC30
S3150801A7C035F8020B0B49820B752F8A5CC0F30D0114
S3150801A7D062F31F610CBF012300234A4620460CF091
S3150801A7E0F5F9031EC0F2808400F02BBC752D040810
S3150801A7F09C560010702D04081000010058520010D4
S3150801A800214608F1300006F047FF30693146A0F1CC
S3150801A8100C0408F1300015F0BBFF4FF0414300F07E
S3150801A82063BC35F8020BF949C20B8A5CC0F30E0109
S3150801A83062F31F614A4601A810F03CFE002800F0A9
S3150801A840C483009420788DF81C0007A968460AF08D
S3150801A850FEFA031EC0F248849DF81C0011280CD08C
S3150801A86005DC0D2818BF0E2817D000F0AEBB12283C
S3150801A87003D0352840F0A98319E002990198C96FD8
S3150801A88080B231F81000009900EB400001EB80011D
S3150801A890204606F001FF00F01DBA0099DC4B201D89
S3150801A8A08A6849682360C0E9001200F0CABB0098AB
S3150801A8B01BF0BAFC031EC0F2178404F10C00F06306
S3150801A8C00098029AD0E901130198D26F80B232F842
S3150801A8D0100000EB400001EB8001CE480DF05BFB58
S3150801A8E004AA05F023FB031EC0F2FE8304A9204631
S3150801A8F006F0D2FEEEE135F8020BC449C20B8A5CBA
S3150801A900C0F30E0162F31F614A4601A810F0D2FD99
S3150801A910002800F05A83049420788DF800006946CF
S3150801A92004A80AF094FA031EC0F2DE839DF800001B
S3150801A930352808BFF5F7CAFB9DF80000112818BF8E
S3150801A940122802D0C1B200F040BB02990198C96F22
S3150801A95080B231F81000049900EB400001EB800148
S3150801A960204606F081F900F06CBB35F8020BA749C1
S3150801A970C20B183C8A5CC0F30E0162F31F614A469A
S3150801A98001A810F097FD002800F01F8304F10C00C0
S3150801A99007460090207B8DF81C0007A968460AF037
S3150801A9A056FA031EC0F2A0839DF81C0011280FD089
S3150801A9B008DA01E03AE33FE30D2818BF0E2826D04E
S3150801A9C000F003BB122803D0352840F0FE8227E0A9
S3150801A9D002990198C96F80B231F81000009900EB0D
S3150801A9E0400001EB8007608B012818BFF5F76EFB65
S3150801A9F0D4E90701C7E90101387800E0A4E10C2888
S3150801AA0088BFA06940F21D83386000F01ABB04F1C3
S3150801AA1018010098D1E90121C0E9012100F011BB13
S3150801AA20F76300981BF000FC031EC0F25D830098D3
S3150801AA30002304AA806804F1180105F077FA031EB9
S3150801AA40C0F252830098029A41680198D26F80B287
S3150801AA5032F8100000EB400001EB8007BDF8120048
S3150801AA60012818BFF5F732FBDDE90501C7E9010140
S3150801AA7038780C2884BF0498386000F0E2BA35F8B3
S3150801AA80020B6249C20B8A5CC0F30E0162F31F61B5
S3150801AA904A46684610F00EFD002800F09682684680
S3150801AAA00DF0FAF8002800F090820C340146204691
S3150801AAB006F0F2FD0EE135F8020B5449C20B8A5C29
S3150801AAC0C0F30E0162F31F614A46684610F0F2FCB4
S3150801AAD0002800F07A8268460DF0DEF8002800F0BA
S3150801AAE074820C340146204606F0BEF800F0A9BA75
S3150801AAF035F8020B4549C20B8A5CC0F30E0162F3B5
S3150801AB001F614A46684610F0D5FC002800F05D82B0
S3150801AB1068460DF0C1F8002800F057820C3C07463C
S3150801AB20E089012818BFF5F7D1FAD4E90401C7E984
S3150801AB30010138780C2888BFE06840F2828263E711
S3150801AB4035F8020B3449820B8A5CC0F30D0162F3B6
S3150801AB501F614A46684610F015FB002800F0358249
S3150801AB6004F10C00F0638C2F6946204606D006F0E6
S3150801AB7063FA031EC0F2B88200F063BA06F088F8D9
S3150801AB80031EC0F2B18200F05CBA35F8020B224905
S3150801AB90820BC0F30D07895C4A4661F31F67394684
S3150801ABA007A810F0EFFA002876D004F10C00F0633C
S3150801ABB00998C08A00F0300110290DD0302131EAF8
S3150801ABC0000009D000234A46394620460BF0FEFF0D
S3150801ABD0031EC0F2898234E207A9204606F02CFA40
S3150801ABE0031EC0F28182214604A806F055FD684677
S3150801ABF004A909F0EBFB04A9204606F0B7FB031EDE
S3150801AC000CDA684609F008FC00F06EBA732D0408E0
S3150801AC100A00010058520010702D0408684609F010
S3150801AC20FBFB57E035F8020BF849820BC0F30D0B15
S3150801AC30895C6068009004F10C00F063706A61F346
S3150801AC401F6B20F02000002770625B464A462046AB
S3150801AC5000990EF09FFB031E76DAB3F17A4F08BF0F
S3150801AC60002F72D104F10C00F561F063E8480DF08C
S3150801AC7021FAF06B4FF0010AA0F10C045746F56969
S3150801AC80E3E72046FCF771FB031E5EDB6168E148DA
S3150801AC90C968C4E90001D4E1A1E020460C3C426838
S3150801ACA0AD1C2146204606F087FC031E4DDB2046D7
S3150801ACB006F0CCFCC5E120460C3C426821466846B4
S3150801ACC006F07AFC031E40DB6946204606F04EFB79
S3150801ACD0031E3ADB2078112871D2DFE800F070EE06
S3150801ACE0EDEEECEBEC707070707070707070EA00DD
S3150801ACF0243C04F10C016846E26906F05DFC031E7A
S3150801AD0023DBA7F19B004FF0000B072810D2DFE8E1
S3150801AD1000F004070A040D040D004FF0040B07E0C8
S3150801AD204FF0010B04E04FF0020B01E04FF0080B66
S3150801AD3004F1240006F0BFFC5A46694604F12400D2
S3150801AD4006F07EFA031E00DB7BE128E10C3455F898
S3150801AD50041B0022B048C4E90002080E09283ED2A5
S3150801AD60DFE800F03D0F19230F19233D05004A4678
S3150801AD70684610F0F2FB90B36946204606F010F8D3
S3150801AD805FE14A46684610F0FDF940B36946204638
S3150801AD9005F0E2FF55E14A46684610F08BFBF0B133
S3150801ADA06946204605F0F0FF4BE14A46684610F031
S3150801ADB043FCA0B16946204606F008F841E16CE17A
S3150801ADC03069F561F063404600F0F2FF031E6FDB60
S3150801ADD0D8F83400002818BFF5F778F913E1C3E06D
S3150801ADE03069DD2FA0F10C040CBF35F9020B15F9FA
S3150801ADF0010B2F18D8F81411404619B13A463146B5
S3150801AE0000F014FA012102A8CDE900013B466A1EA9
S3150801AE103146404600F076F998B1404601F054F8BB
S3150801AE20050008BFF5F752F90020AF60C5E90060D3
S3150801AE300598E86006982861072085F82000059D91
S3150801AE40FFE0D8F820003D4610F0020F40D0D8F8B0
S3150801AE503400002818BFF5F739F9334600226F493F
S3150801AE6008F1300015F0C8FC4FF041433CE121469A
S3150801AE700C3C0122204605F0D3FFA8B116E068492B
S3150801AE80C4E90010DDE021460C3C0122204605F00C
S3150801AE90C7FF002808DC09E021460C3C00222046B1
S3150801AEA005F0BEFF002801DD0120E8E70020E6E7FE
S3150801AEB021E1DFE0D8E0D3E0C9E0CDE021460C3C52
S3150801AEC00122204605F0ACFFC00F5549C4E9001020
S3150801AED0B7E021460C3C0022204605F0A1FFC00F31
S3150801AEE04F49C4E90010ACE035F8020B4D49C20BD5
S3150801AEF00C348A5CC0F30E0162F31F614A46684648
S3150801AF0010F09AFB80B304F10C00F06332466946EF
S3150801AF10204610F063FB031E41DB92E035F8020B75
S3150801AF204049C20B8A5CC0F30E0162F31F614A46AF
S3150801AF30684610F081FBB8B103A9204609F0C4FFA1
S3150801AF40031E2CDB04AB6A4603A9374806F0C6FE86
S3150801AF5050B104F10C00F063324604A9204610F002
S3150801AF603DFB031E1BDB6CE02FE0AD1C204605F004
S3150801AF7079FA0C3C65E0D8F8140170B1401EC8F89E
S3150801AF80140100EBC00008EB8000006C00281CBF10
S3150801AF902149C8E90C107FF440AC4FF01243A3E0F5
S3150801AFA035F8020B1949820B8A5CC0F30D0162F36D
S3150801AFB01F614A46684610F0E5F830B10298C07B31
S3150801AFC0002818BF0C2003D00DE04FF022438BE078
S3150801AFD001990098896F80B201EBC0004088401C36
S3150801AFE000EB400080000C340D49C4E9001028E04C
S3150801AFF0AD1C26E004F10C00F561F063404600F053
S3150801B00069FE031E77DBD8F858615DE0702D0408E8
S3150801B0105852001008000100100001007C5400106D
S3150801B02007000100752D04089C5600103846FCF7E8
S3150801B030B1F9031E58DB04E03846FCF7A8F9031EEC
S3150801B04052DB706A10F0004F3EF452AC2AE0072139
S3150801B050217094F904100BE007212170217907E08A
S3150801B06007212170A18803E007212170B4F9041092
S3150801B070616012E0606880B1017812290DD14078CB
S3150801B08010F0100F09D104F10C002246F0631146A5
S3150801B0901B480BF09DFE031E26DB706A10F0004F5D
S3150801B0A03EF426AC2A46314615480DF0D7FBFEF785
S3150801B0B01FBCD8F85801416A11F4003F12D0716AD1
S3150801B0C021F48031716206464FF0010A706A40F434
S3150801B0D080307062F06BD6F82C90A0F10C04F569FB
S3150801B0E0FEF706BC4FF0A063BAF1000F03D004F1D6
S3150801B0F00C00F561F0630BB01846BDE8F08F00004F
S3150801B100585200102DE9FF4F85B04FF00004DDE9D4
S3150801B110129BC86A0F46150098462646A246009015
S3150801B12008BFF4F7D3FFBBF1000F04D1B8F1000F44
S3150801B13018BFF4F7CBFF386B406810F0804F71D019
S3150801B140786A10F0030004BF09B0BDE8F08F012842
S3150801B15018D1B86A02AB81B203AA009802F07CFB47
S3150801B160002804BF09B0BDE8F08FBDF80810BDF886
S3150801B1700C20B86B891A084401AA6946FEF7DFFA5A
S3150801B180DDE9006ABAF1010A4CD346B133460C36F9
S3150801B19007F128014846BA6B0FF0AEF84C46A08A6B
S3150801B1A0032807D12168A94204D8E168A94288BFC2
S3150801B1B0656833D861688D4224BFA268AA422DD931
S3150801B1C0BBF1000F09D0022828D1B8F1000F19D018
S3150801B1D0414517D8904515D220E0012812D00328F9
S3150801B1E005D00598214630300BF0A0FFB0B194E8A0
S3150801B1F00F106469C9F81440A9E80F1009B00120B5
S3150801B200BDE8F08FD4E9033C20686469C9F81440A5
S3150801B210A9E80F1009B00120BDE8F08F1834BAF17A
S3150801B220010AB2D209B00020BDE8F08FD0F8143176
S3150801B230002BD8BF704703EBC30300EB83039B695D
S3150801B2408B4218BF7047D0F8141101EBC10300EB0C
S3150801B250830318333AB1D3F80CC0944503D81B6954
S3150801B260934288BF7047491EC0F814110029EADCC9
S3150801B270704700002DE9F047DFF8489106464FF080
S3150801B2800208A9F2346A8FE0D6F85841A068002866
S3150801B29067D0606A10F44C5F3ED010F0005F02D0B0
S3150801B2A04FF07F458AE010F4085F02D04FF042451F
S3150801B2B084E010F4805F15D020F48050012260628A
S3150801B2C01146204606F012FF051E07DAB5F1424F70
S3150801B2D004BF606A40F4005070D117E0606A40F418
S3150801B2E08040606210F4807F16D020F4807060621E
S3150801B2F000220121204606F0F9FE051E08DAB5F1FD
S3150801B300424F04BF606A40F4007057D1606255E04D
S3150801B310606A40F48060606210F0030705D0012F6F
S3150801B32004BF40F48030606201E00DF025FCD9F8D5
S3150801B3301800B0F5803F03D2606A40F020006062D1
S3150801B340616B204688470546706B002818BF4FF089
S3150801B3504145D6F85841A06818B1B5F17A4F05D0DC
S3150801B3600FE04FF08075C6F81C8027E0606A10F080
S3150801B370200F06D020F02000606213480CF09AFED8
S3150801B380DEE7002F08BF0DF025FB002D03DAB5F126
S3150801B3907B4F09D012E0606A20F48030606204BFF6
S3150801B3A0D6F8580106F0FCFFB06A28B9DAF80000A9
S3150801B3B010F0004F3FF468AF4FF000752846BDE81E
S3150801B3C0F08700008C5800105852001012F0C1BBCB
S3150801B3D070B50D461C4611462246049B00F00EF830
S3150801B3E00028B8BF70BD35B12946206800F0A8F914
S3150801B3F00028B8BF70BD002070BD0000F0B5054635
S3150801B4000F4614461E4685B0202300221F213948BF
S3150801B41006F0E0FB2060002808BF4FF07A4365D0AC
S3150801B4206846354A214608F0C3FF206812F072FBC8
S3150801B43020688561216803200022C86120680662A8
S3150801B440206842622068826220682C49C2622068AC
S3150801B450C0E90C122068511E4B08C0F81421206857
S3150801B460C0F818212068C0F81C212068C0F82021DE
S3150801B4702068C0E94A1320680021C0E94C112068F8
S3150801B48000F59C7008F06DFF2068C0F8442120681B
S3150801B490C0F84821206800F5A87008F062FF206806
S3150801B4A000F5AE7008F05DFF21684FF0FF3004AB80
S3150801B4B0C1F868012068002180F86C2120683A46A5
S3150801B4C0C0F87001206806F0ABF9031E03DA684676
S3150801B4D008F0A2FF0AE00A48006918B1084821687D
S3150801B4E00DF09FF8684608F097FF002305B0184647
S3150801B4F0F0BD00009C56001071B60108100001004D
S3150801B5005852001010B5044612F030FB204600F0E0
S3150801B51005FE206A10F0040F05D020F00400206211
S3150801B520204600F08FF82046BDE8104000F05AB8D2
S3150801B53070B5D0F858410546606A10F4803F08D0C6
S3150801B540E069401EE061606A20F4803040F00050F6
S3150801B5506062D5F8140190B100EBC00005EB8000DC
S3150801B560183090F8201011F0800F08D021F08001D2
S3150801B57080F8201042680F49C5E90C1240B92846DF
S3150801B58000F0A2FC696BC0E90041012180F8201096
S3150801B59090F8200000F00700032805D8284600F097
S3150801B5A01BF90028A8BF70BD2846BDE8704000F009
S3150801B5B065BA000010000100016A11F0040F05D0F8
S3150801B5C0C069022812BF032801207047002070476E
S3150801B5D00349D1F89C1181420CBF01200020704714
S3150801B5E05852001010B50346006A10F0040F1CBF2C
S3150801B5F0002010BD184612F09FFA002808BF10BD9A
S3150801B6000F490020D1F89C219A4208BFC1F89C0134
S3150801B610D1F8A8219A4208BFC1F8A801D1F8AC21EE
S3150801B6209A4208BFC1F8AC01D1F8A0219A4208BFD5
S3150801B630C1F8A0011846BDE8104012F06FBA000023
S3150801B6405852001010B5044612F0A2FA002211460B
S3150801B650204606F00DF905480069002808BF10BD07
S3150801B6602146BDE8104001480DF003BB58520010B1
S3150801B670014601480EF08EBE8C580010426A521AD5
S3150801B680212AC4BF21314162704770B54169044618
S3150801B6908CB00878102811D14868002808BF4FF0E7
S3150801B6A0214349D00278266B1B2A08BF012208D0FC
S3150801B6B01C2A04BF00F11801026902D04FF0224387
S3150801B6C03AE0606C824201D8002335E000EB400382
S3150801B6D001EB8303401C60645D68002DF1D0287876
S3150801B6E01B28EED12069E06304A8294608F06EFEFE
S3150801B6F005F1100108A80FF0D1FF0A98717A62695D
S3150801B7004068491EC0F300100C32002814BF0020FF
S3150801B71005F114000291CDE90002DDE9081220467F
S3150801B7200A9B07F0B7F8031E04A802DA08F074FEAC
S3150801B73002E008F071FE00230CB0184670BD000047
S3150801B74070B505460C4684B0096A22480CF072FCAD
S3150801B75006466CB120781B280AD104F11001684607
S3150801B7600FF09CFF20B1206A04F066FE18B10EE0C6
S3150801B7704FF0224327E02846FFF72AFF002808BF93
S3150801B7804FF048431FD0286A40F00800286200207D
S3150801B790EC62E86102986946427A284606F00CFF8F
S3150801B7A0031E10DB0298406810F0100F06D1D5F879
S3150801B7B0580104F11401406905F06EFF2946054850
S3150801B7C00BF080FF0023314602480CF033FC04B02D
S3150801B7D0184670BD585200102DE9F04F0746D0F8AB
S3150801B7E0140189B000EBC00007EB800000F11804D2
S3150801B7F0456B002D08BFD7F858514FF0000ADFF8FE
S3150801B8007492A868002818BF0DF1080B00F013817F
S3150801B810D9F8100000283CD094F8200000F0070061
S3150801B820032836D2E969A1B3E561022813D20023B8
S3150801B8301A4629468F480CF003FC94F8200020F09C
S3150801B840070040F0020184F82010D9F8000010F032
S3150801B850004F40F00781D5E90A01D1F8841011FAA1
S3150801B86080F0007810F0010F13D000230122294639
S3150801B87080480CF0E5FB94F8200020F0070040F022
S3150801B880030184F82010D9F8000010F0004F40F0A9
S3150801B890E980286B406810F0804F7DD0A268002AA5
S3150801B8A00ABFEA69C4F808A0002A75D0CDE900BA2A
S3150801B8B0002329463846FFF725FC00286CD0059851
S3150801B8C060610698C4E90605BDF81C00032817D06F
S3150801B8D094F8200020F0070040F0040184F82010B5
S3150801B8E0D9F81000002869D0022229466148059B2B
S3150801B8F00CF0A6FBD9F8000010F0004F5ED0B1E0BD
S3150801B9000298E06005982061286B90F80980D9F8BB
S3150801B9100000C0F30036D9F8000040F48050C9F899
S3150801B9200000424605F12801E86806F045FE2EB9F1
S3150801B930D9F8001021F48051C9F800100028BCBFBD
S3150801B940E068A06073DBD7F85861B8F1000F706A38
S3150801B95040F400207062266006D008EB4800820099
S3150801B96069697069F4F7B5FD286B807A30B100EB27
S3150801B97040008200A969B069F4F7ABFDD6E90F0169
S3150801B98007F13004884228BFF4F7A0FBF06B00F1F9
S3150801B9900C01F163214600E015E005F07DFE0298F1
S3150801B9A0F06100213448C7E90C016022314631486B
S3150801B9B00CF0D8FE09B00020BDE8F08F09B04FF0B1
S3150801B9C04140BDE8F08F686A10F0805F1AD0C4F86C
S3150801B9D01CA094F8200020F0070040F0040184F828
S3150801B9E02010D9F810000028E8D0A86B0222431EBF
S3150801B9F0294620480CF024FBD9F8000010F0004F26
S3150801BA00DCD02FE010F4002F08BFAD680FD0C4F8C2
S3150801BA101CA094F8200020F0070040F0040084F8E8
S3150801BA20200009B04FF04140BDE8F08FFFE7A86854
S3150801BA3000287FF4EDAEC4F81CA094F8200020F08D
S3150801BA40070040F0040184F82010D9F810000028F6
S3150801BA50B4D0394607480DF07FF9D9F8000010F03F
S3150801BA60004FABD094F8200040F0800084F8200005
S3150801BA70A0E7000058520010100001002DE9F04F10
S3150801BA800646D0F81401D6F8584100EBC00006EB7B
S3150801BA90800000F11805A06889B04FF0000A002857
S3150801BAA000F0FA80DFF80C92DFF80C820DF1080B32
S3150801BAB0D8F81000D0B1E869A04217D195F820004E
S3150801BAC010F0400F12D0D6F814012146401EC6F8D0
S3150801BAD014012069E0630020C6E90C90606A40F011
S3150801BAE00050606274480DF04EF997E0206B40688B
S3150801BAF010F0804F1CBFE269002A5AD00120CDE917
S3150801BB0000B0E869A0420CBF6B69002321463046A4
S3150801BB10FFF7F8FAF8B1C5F808A02C600598E860AF
S3150801BB200698286195F82000012220F0070040F0C8
S3150801BB30040085F820000020C6E90C902069E0631E
S3150801BB400598E061606A214620F0005060625A4813
S3150801BB500CF002FD62E0E869A0422AD16869E86052
S3150801BB60A8692861E869286095F8200020F007008F
S3150801BB7040F0060185F820106869E061606A20F0E6
S3150801BB80005060622069E063216C884228BFF4F79F
S3150801BB909DFAE06B012200F10C01E1636968C0E9D5
S3150801BBA000910020C6E90C90214643480CF0D4FCCC
S3150801BBB034E0606A10F4002F34D0D6F81401224616
S3150801BBC0401EC6F8140100EBC00006EB800000F128
S3150801BBD01805416B304600F041F9E868C5F800A040
S3150801BBE0A860D8F80000C0F30037D8F8000040F480
S3150801BBF08050C8F80000204606F0D2FB2FB9D8F8C5
S3150801BC00000020F48050C8F800006868C6E90C9066
S3150801BC1095F8200040F0800085F8200009B0002042
S3150801BC20BDE8F08F10F0805F1AD0D6F81401401ED7
S3150801BC30C6F81401D8F80000C0F30035D8F800009A
S3150801BC4040F48050C8F80000204606F0A9FB002DF4
S3150801BC50E4D1D8F8000020F48050C8F80000DDE7E8
S3150801BC60C5F800A0D8F80000C0F30037D8F80000DE
S3150801BC7040F48050C8F80000204606F091FBD6F83B
S3150801BC8058412FB9D8F8000020F48050C8F80000B0
S3150801BC90A06800287FF40CAFC6F814A1306A10F02A
S3150801BCA0020F04BF05A01AF0D1F94FF0414009B0BF
S3150801BCB0BDE8F08F100001005852001020556E6340
S3150801BCC0617567687420657863657074696F6E203D
S3150801BCD00D0A00002DE9F047D0F85861054631698B
S3150801BCE0F06B884298BFF4F7F1F9F06B32460C38DD
S3150801BCF0F063D0F80480D5F8140100EBC00005EB19
S3150801BD00800000F11804416B284600F0A7F8DFF817
S3150801BD10989000202060D9F80000C0F30037D9F8C0
S3150801BD20000040F48050C9F80000304606F038FBA0
S3150801BD302FB9D9F8000020F48050C9F80000B8F1ED
S3150801BD40010F1CBFE068A06012D094F8200040F0F3
S3150801BD50800084F82000D9F8000010F0004F16D0B2
S3150801BD6061681248C5E90C014FF04140BDE8F0870A
S3150801BD7094F82000022220F0070040F0040184F81C
S3150801BD80201009486369E1690CF05AF9DDE728468C
S3150801BD90FFF7CEFB686B002814BF4FF04140BDE8A2
S3150801BDA0F087BDE8F0870000585200101000010026
S3150801BDB0F0B50646D0F85851D0F8140189B000EB11
S3150801BDC0C00006EB800000F11804076A002F2ED088
S3150801BDD0012102A8CDE90001E8693B46421E294630
S3150801BDE03046FFF78FF980B10020A760C4E90050FB
S3150801BDF00598E0600698206194F8200040F0070055
S3150801BE0084F820000598E86105E0D6F81401401E7B
S3150801BE10C6F81401EF61686A10F0004F04D029468C
S3150801BE200D48EA690CF01AFD09B00020F0BD6068FA
S3150801BE30002804BF09B0F0BD94F8200040F0800046
S3150801BE4084F820003046FFF773FB706B002818BF93
S3150801BE504FF0414009B0F0BD5852001070B5106B53
S3150801BE600D461446407A30B100EB40008200616904
S3150801BE706869F4F72EFB206B807A002808BF70BD2D
S3150801BE8000EB40008200A169A869BDE87040F4F79B
S3150801BE9020BB000010B50446C06902280FD0002255
S3150801BEA0084904F13000D4F8583114F0A5FC206A89
S3150801BEB0012140F002002062204600F0CBF8002064
S3150801BEC010BD00007C54001010B50446D0F81401CA
S3150801BED0062819D200EBC00004EB80000021C163DB
S3150801BEE0016441648164C164016541658165C16517
S3150801BEF0D4F8140100EBC00104EB81013C31401C6C
S3150801BF00C4F81401084610BD08A01AF09FF8B42217
S3150801BF1004F1600104F13C00F4F70DFBD4F81401B7
S3150801BF2000EBC00004EB8000183010BD5741524E9B
S3150801BF30494E473A20544F4F204D414E59204E45C0
S3150801BF405354454420455843455054494F4E53216F
S3150801BF50210D0A0010B5016A11F0010F1CBFC26953
S3150801BF60022A06D021F001010162014602480BF0BE
S3150801BF70A9FB002010BD0000585200102DE9F04120
S3150801BF8004462DED028BD0F858018168002918BFA7
S3150801BF90C16C2F480CF04EF82D4F064697ED608A76
S3150801BFA0C7F88041606B002814BF4FF04145002552
S3150801BFB00020A062386810F0004F18BFF4F786F821
S3150801BFC0142104F12800F7F7C7FFA06A00282ED12B
S3150801BFD029E0002D04DB2046FFF74CF9051E28DA77
S3150801BFE0B5F1414F0ED0B5F1424F18BFB5F1784FB3
S3150801BFF01FD0D4F85821906820B1294604F13000A1
S3150801C00014F036FC386810F0004F10D12046FFF7BF
S3150801C0108FFA051E0DDB386810F0004F04BF606B00
S3150801C0200028D2D003E0386810F0004FD1D04FF085
S3150801C0300075314606480BF0FDFF002187ED608A41
S3150801C0400846F7F789FFBDEC028B2846BDE8F08163
S3150801C0505852001070B50D46002604460146C661C1
S3150801C06006480BF02FFB002D08BF70BD4FF0FF31BE
S3150801C0704808C4F82061C4E94A1070BD5852001036
S3150801C08010B5016A11F0010F09D1C269022A06D059
S3150801C09041F001010162014602480BF013FB002041
S3150801C0A010BD00005852001070B504462C300EF031
S3150801C0B021FB04F1300005F003FAD4F81401002637
S3150801C0C00028D8BF70BD06EBC60004EB800000F15E
S3150801C0D03C0528460EF00EFB05F11C000EF00AFB86
S3150801C0E0281D0EF007FB05F108000EF003FB05F10C
S3150801C0F00C000EF0FFFA05F110000EF0FBFA05F13F
S3150801C10014000EF0F7FA05F118000EF0F3FAD4F858
S3150801C1101401761CB042D6DC70BD000070B5044629
S3150801C120006A20F00B0020622248002818BFA042AE
S3150801C1300DD0D4E90121002918BF4A60002A18BF89
S3150801C140916021464268C1E9012094604460002556
S3150801C150691E4808C4F82051C4E94A10D4F84811A0
S3150801C16021B1154805F026FDC4F84851206A10F09A
S3150801C170040F1CBF0320E06115D000210F48C4E954
S3150801C1800C01D4F8181121B1C4F81851D4F81C01BE
S3150801C1908847E069022814BF0328E5622046BDE8FE
S3150801C1A07040FFF71FBA0220E0612046FFF74AFAFE
S3150801C1B0E3E70000C45300109C560010100001006C
S3150801C1C010B504460220E0610022064904F1300058
S3150801C1D0D4F8583114F010FB214603480BF072FAD3
S3150801C1E0002010BD7C5400105852001030B4DDE90F
S3150801C1F00245DDF810C00180428083800021C48099
S3150801C2000172002D12BFBCF1000F30BC7047BCF1A2
S3150801C210370F28BF4FF0370C63462A46382130BC02
S3150801C2200830F6F763BD10B504460298C4E9001252
S3150801C230C4E902300022A4F8502022616261A26199
S3150801C240E26122626262A262E26222636263A263BD
S3150801C250E26322646264A264214604F11000E26486
S3150801C260FCF759F804F11000BDE81040FCF707B9CE
S3150801C2701030FCF707B9C36840684268184610478A
S3150801C280F0B593B00D460446014616461F469DED88
S3150801C290180A02A8FCF73FF88DED000A3B4632461C
S3150801C2A0294602A8FCF79EF802A92046FFF7E3FFF4
S3150801C2B013B0F0BD4FF04A4070470A46002300F01C
S3150801C2C099B8000070B506461D4682B0144652EA72
S3150801C2D0050008BFF3F7FAFE00216846F5F732FEB6
S3150801C2E0164BC6E904451868016849B1D0E9042C1A
S3150801C2F0A21A75EB0C0203D3084609680029F5D181
S3150801C300002818BFB0420DD0D6E90012002A18BF7E
S3150801C3101160002918BF4A6031464268C1E9000226
S3150801C320466016601868B04203D120462946F7F7D9
S3150801C33043FF6846F5F70BFE02B070BD08AA001068
S3150801C34000B583B000216846F5F7FCFDDFF834C077
S3150801C3500023DCF800000168002908BF002048B165
S3150801C360D0E90012002A18BF1160002918BF4A60D7
S3150801C370036043600028ECD16846F5F7E8FD03B091
S3150801C38000BD000008AA001030B583B00021684638
S3150801C390F5F7D8FD16480468256825B3F5F712FEA2
S3150801C3A0D4E90423801A71EB030038BFF3F78EFE34
S3150801C3B01020F6F7ABF9D4E90001002918BF086087
S3150801C3C0002818BF416000202060606028680028A6
S3150801C3D012BFD5E904014FF0FF30010CF7F7ECFE67
S3150801C3E0204600F087F86846F5F7B1FD03B030BD81
S3150801C3F008AA00102DE9F041804616461F46F5F7B2
S3150801C400E1FD04460D4630463946F5F7D9FD2218B1
S3150801C41045EB01034046BDE8F041FFF753BF000075
S3150801C4200348011D01600021C0E9011070470000A1
S3150801C43008AA00102DE9F041DFF860801746DDE90A
S3150801C4400656D8F800201368002B08BF052407D024
S3150801C450D2E90432C31A71EB020234BF0324002461
S3150801C46014F0010F18BFF7F7A7FE2A463346F8B2AC
S3150801C470FAF7DCFE14F0060F08BFBDE8F081D8F81C
S3150801C480001014F0020F12BFD1E904014FF0FF307A
S3150801C490010CBDE8F041F7F78FBE000008AA0010AD
S3150801C4A010B582B0044600216846F5F74BFD1048E1
S3150801C4B00268D4E90001002918BF0860002818BFDE
S3150801C4C04160002020606060A2420BD10848021D2D
S3150801C4D001688A4206BF4FF0FF30010CD1E9040119
S3150801C4E0F7F76AFE6846F5F732FD02B010BD00009F
S3150801C4F008AA0010816929B1D0E90210002908BFEC
S3150801C5007047084705F032BB0649086838B9064836
S3150801C510021D02600022C0E90120012008600020F6
S3150801C52070470000D4400010D891001005480168F2
S3150801C53031B1002101600448021D0260C0E9011001
S3150801C54000207047D4400010D891001070470000B1
S3150801C55010B504483821F4F733F802490020087069
S3150801C56010BD0000D458001010B5024800F0C4F8F8
S3150801C570002010BDD45800102DE9F843064605F0F1
S3150801C580ABFA344F3868FCF7DBFDDFF8CC80D8F816
S3150801C590000001F0E5FB706BF6F7A2F80546F06AB4
S3150801C5A0002428421CBF3868FCF782FFB06A2B4F6B
S3150801C5B0284211D0D8F8000001F0E9FE386810F0D9
S3150801C5C0005F09D026A019F041FDB86810F0010FE7
S3150801C5D004BF01200CF0A8FC15F0030F18BF0224B4
S3150801C5E015F0805F18BF44F0400415F0006F07D1BD
S3150801C5F0386810F0004F06D11D480168884202D0FC
S3150801C600304600F086F815F4804F18BF44F0005400
S3150801C61015F4002F18BF44F0800415F4803F0ED09E
S3150801C6206846F6F781FB50B10098124900F00100FF
S3150801C63000900A6882421CBF44F008040860002C76
S3150801C64008BFBDE8F8832146BDE8F84303480AF068
S3150801C650B3BE0000A84000108440001058520010D4
S3150801C6605265626F6F74696E672E2E2E0D0A000071
S3150801C670EC58001084410010F0B51E4F054685B0F0
S3150801C680386810F0005F31D1AC696068002808BFCE
S3150801C6900024002C2AD0052207F5D47115480BF081
S3150801C6A01DFC18B3D4E90110002818BF4160002900
S3150801C6B018BF88600020A0606060A6696846314698
S3150801C6C007F084FE21463046D7F8A82113F0DAFC94
S3150801C6D0061EBCBF204613F081FE686A401E6862CA
S3150801C6E0684607F099FE05B03046F0BD05B0002052
S3150801C6F0F0BD00005852001010B504460078012814
S3150801C70018BF10BDF7F766FEF6F726FE0020207063
S3150801C71010BD10B5044600F07FF80028B8BF10BD5B
S3150801C7202046FFF7A9FF002010BD000070B504469A
S3150801C7300078002867D1F6F7ABFC344DF6F7EDFD26
S3150801C74000266660C4E90260C4E9046504F11800BC
S3150801C75007F007FE6662A6622D4A0021E66202EB31
S3150801C7608100A36A406800F47F40B0F5807F08BF66
S3150801C770012016D0B0F5007F08BF042011D0B0F50E
S3150801C780407F08BF4FF480400BD0B0F5806F08BFDB
S3150801C7904FF0005005D0B0F5E06F0CBF4FF0804068
S3150801C7A000201843A062491CD9D0002102EB810060
S3150801C7B0E36A806800F47F40B0F5807F08BF0120F6
S3150801C7C016D0B0F5007F08BF042011D0B0F5407F20
S3150801C7D008BF4FF480400BD0B0F5806F08BF4FF00B
S3150801C7E0005005D0B0F5E06F0CBF4FF08040002037
S3150801C7F01843E062491CD9D00649A06A0843C4E92E
S3150801C8000C6001202070002070BD0000D485001046
S3150801C810384000101740097870B582B004460026E2
S3150801C82000216846F5F78EFBD4E90110814202BF63
S3150801C83021690029002504D0616900EB400001EB5C
S3150801C840C0056846F5F783FB002D3DD04FF400611E
S3150801C8502820FCF77DFF00283DD0E968C1612969D8
S3150801C860016269694162D5E90012C0E90412A96841
S3150801C870816114F1180118BF81420CD0D0E9013247
S3150801C880002A18BF5360002B18BF9A608A68C0E94E
S3150801C890011288605060606A0021401C6062684627
S3150801C8A0F5F750FBD4E90110884204BF2169002934
S3150801C8B006D0401CA060E168884208BFA6602661D0
S3150801C8C06846F5F744FBABE7606A00280CBF4FF0F2
S3150801C8D0584500251FE04FF07A4500216846F5F7CF
S3150801C8E031FBD4E90110814204BF206900280FD029
S3150801C8F0A068884204BF2269002A06D0401CA060AD
S3150801C900E268904208BFA6602661A0688142EFD11D
S3150801C9106846F5F71CFB02B0284670BD70472DE93D
S3150801C920FF4F074640693E6B4FF0000B816B81B0A4
S3150801C9304418914698465D46002EC8BF4FF6FF7AC1
S3150801C94018DDE088504511D16188384601F096F81E
S3150801C95000902188384601F091F80299F3F7A4FE70
S3150801C96020B949460098F3F79FFE48B16D1C183463
S3150801C970B542E6DBC8F800B005B00020BDE8F08F87
S3150801C980F86845EA0040C8F8000005B00120BDE88E
S3150801C990F08F2DE9F05F074640698A463E6B816B49
S3150801C9A04FF0000B4418914698465D46002E0EDD61
S3150801C9B0E088484507D12188384601F05FF8514695
S3150801C9C0F3F772FE40B16D1C1834B542F0DB002056
S3150801C9D0C8F800B0BDE8F09FF86845EA0040C8F815
S3150801C9E000000120BDE8F09F30B4046B0023D0F8A5
S3150801C9F078C0002C08D9DCF804508D4204D05B1CA1
S3150801CA000CF1080C9C42F6D8A34206D0C06843EA4A
S3150801CA100040106030BC012070470020106030BC17
S3150801CA2070472DE9F04117462DED028B84B00C466F
S3150801CA309DED0C8A00930D9D8DED018A02951E468A
S3150801CA404A7D8046498A3B46F7F77AF850B90096F7
S3150801CA508DED018A0295227D218A3B464046F7F7EC
S3150801CA606FF828B1012004B0BDEC028BBDE8F08156
S3150801CA7000202860F7E700002DE9F04706464069DF
S3150801CA800027B46F816B84B00D18306BB846002847
S3150801CA90CEBFDFF8C89004B0BDE8F087298AF06FE9
S3150801CAA000EB4101287D28B13A467F1C21F8022B6B
S3150801CAB0401EF9D1F06803A948EA00400390684688
S3150801CAC00EF00EFC4FF0000A0298C08A10F4804F4F
S3150801CAD003D0208840F0020020800098D9F8301150
S3150801CAE0884203D1208840F0040020800298407DC6
S3150801CAF050441FFA80FA68460EF088FB0028E3D1F5
S3150801CB00A4F802A0698AF06F00EB4102697DAAEBDD
S3150801CB100100401C29B122F8020B491E00F101004F
S3150801CB20F9D16989D6F880006A7B00EB4100297B37
S3150801CB301144AA7B891818BF1FFA88F203D020F876
S3150801CB40022B491EFBD1306B08F101081835083450
S3150801CB504045A3DC04B0BDE8F08700001854001076
S3150801CB6081B00A49009100219DF800300A46122B2E
S3150801CB7018BF01210069064B33EA000008BF0122EC
S3150801CB808A420CBF0020012001B070476745230186
S3150801CB90800000802DE9FF4F82460E46087B497BBF
S3150801CBA08DB00844B17BDDE91A7900EB0108DAF8A2
S3150801CBB0140071890024026C9B46104400EB011590
S3150801CBC0B8F1000F2EDD2988504600F057FF0F995E
S3150801CBD0F3F76AFD10BBA7F57F40FF3812D02A4646
S3150801CBE0514668460DF069FADBF81400816D084470
S3150801CBF0C219594606A80DF068FA06A9684606F04C
S3150801CC0033FD58B17189DAF80C00214441EA004034
S3150801CC10C9F8000011B00120BDE8F08F641C103579
S3150801CC204445D0DB0020C9F8000011B0BDE8F08FFB
S3150801CC302DE9F041AEB005460E460CAC88212046DA
S3150801CC40F3F7BEFC284619F0F1FB00280DBF4FF09B
S3150801CC507F40002011952EB008BFBDE8F081C1B212
S3150801CC6005EB8101CA6A896A521A55FA80F191F867
S3150801CC706C10511A04EB8002401C11620F28EED386
S3150801CC809C48216AA0FB0121C9082162616AC90879
S3150801CC906162A16AC908A162E16AC908E162216BF8
S3150801CCA0A0FB01210A092263616BC9086163A16BB3
S3150801CCB00909A163E16BC908E163216C890821644B
S3150801CCC0616CC9086164A16DA0FB01100009A0652A
S3150801CCD06069816B08440021002A08DD90F814C0B8
S3150801CCE0236E491C6344183023668A42F6DC882081
S3150801CCF00290216A032000EB810121F003010391CF
S3150801CD00616A00EB810121F003010491A16A00EB3C
S3150801CD10810121F003010591E16A00EB810121F00E
S3150801CD2003010691216B00EBC10121F00301079173
S3150801CD30616B00EB410121F003010891A16B00EB46
S3150801CD40410020F0030009906069806E00281EBF2B
S3150801CD504FF017402EB0BDE8F081A06BC01C20F043
S3150801CD6003000A90DDE90412039811448830084447
S3150801CD70069900220844079908440899084409991C
S3150801CD8008440A9901EB0008434617215A4804F05A
S3150801CD90C9FF3060002802BF4FF07A402EB0BDE8C7
S3150801CDA0F0810746A8F10C010C30F3F72BFC7C2225
S3150801CDB004F10C0107F10C00F3F78BFB02A93068AB
S3150801CDC000F031FC698C288CCDE900013068EB8BC9
S3150801CDD0AA8B816949A019F039F950484068012898
S3150801CDE0C0F284800021284619F016FB0646012167
S3150801CDF0284619F011FB06440221284619F00CFBB6
S3150801CE0006440321284619F007FB0644042128464F
S3150801CE1019F002FB06440521284619F0FDFA0644D5
S3150801CE200621284619F0F8FA06440721284619F07A
S3150801CE30F3FA06440821284619F0EEFA06440C21AD
S3150801CE40284619F0E9FA3318414635A06A6E19F0F1
S3150801CE50FDF8226A3CA0039919F0F8F8626A46A01F
S3150801CE60049919F0F3F8A26A4FA0059919F0EEF89A
S3150801CE70E26A59A0069919F0E9F8226B62A00799A6
S3150801CE8019F0E4F8626B6CA0089919F0DFF8A26B47
S3150801CE9075A0099919F0DAF836A019F0D7F8E26BF6
S3150801CEA07DA0D10019F0D2F8226C87A0910019F063
S3150801CEB0CDF8626C90A0D10019F0C8F8A26D9AA0BD
S3150801CEC0D10019F0C3F8A4A0A16C19F0BFF8ABA062
S3150801CED0E16C19F0BBF8B2A0216D19F0B7F8B9A049
S3150801CEE0616D19F0B3F816A019F0B0F82EB000204C
S3150801CEF0BDE8F081ABAAAAAA9C56001020202041C1
S3150801CF007373656D626C793A202573202825642E22
S3150801CF1025642E25642E25642920200078400010DA
S3150801CF20202825642052414D202D20256420524F6A
S3150801CF304D202D202564204D455441444154412915
S3150801CF400D0A0D0A00000000202020417373656D4B
S3150801CF50626C79526566202020203D2025386420A0
S3150801CF606279746573202825386420656C656D655A
S3150801CF706E7473290D0A00002020205479706552B9
S3150801CF80656620202020202020203D202538642089
S3150801CF906279746573202825386420656C656D652A
S3150801CFA06E7473290D0A00002020204669656C6499
S3150801CFB0526566202020202020203D202538642027
S3150801CFC06279746573202825386420656C656D65FA
S3150801CFD06E7473290D0A00002020204D6574686F50
S3150801CFE0645265662020202020203D2025386420B3
S3150801CFF06279746573202825386420656C656D65CA
S3150801D0006E7473290D0A0000202020547970654436
S3150801D010656620202020202020203D2025386420F8
S3150801D0206279746573202825386420656C656D6599
S3150801D0306E7473290D0A00002020204669656C6408
S3150801D040446566202020202020203D2025386420A4
S3150801D0506279746573202825386420656C656D6569
S3150801D0606E7473290D0A00002020204D6574686FBF
S3150801D070644465662020202020203D202538642030
S3150801D0806279746573202825386420656C656D6539
S3150801D0906E7473290D0A0000202020417474726988
S3150801D0A062757465732020202020203D2025386470
S3150801D0B0206279746573202825386420656C656D4E
S3150801D0C0656E7473290D0A00202020547970655302
S3150801D0D070656320202020202020203D20253864EB
S3150801D0E0206279746573202825386420656C656D1E
S3150801D0F0656E7473290D0A002020205265736F75B9
S3150801D10072636573202020202020203D2025386465
S3150801D110206279746573202825386420656C656DED
S3150801D120656E7473290D0A002020205265736F7588
S3150801D130726365732046696C6573203D20253864E2
S3150801D140206279746573202825386420656C656DBD
S3150801D150656E7473290D0A002020205265736F7558
S3150801D16072636573204461746120203D202538640B
S3150801D1702062797465730D0A00000000202020538F
S3150801D1807472696E67732020202020202020203D9C
S3150801D190202538642062797465730D0A0000000041
S3150801D1A02020205369676E6174757265732020208B
S3150801D1B02020203D202538642062797465730D0A84
S3150801D1C00000000020202042797465436F646520C1
S3150801D1D0202020202020203D2025386420627974D3
S3150801D1E065730D0A00000000C26832B1DFF814C089
S3150801D1F000230CEB820242F8043C0146024804F083
S3150801D200D9BC00008C5500109C5600102DE9F04140
S3150801D2100025104C07462E46A368186828B92268C7
S3150801D2206AB138466168FFF77AFB2068002818BF9B
S3150801D2302546761C0C345D2EEED3BDE8F081002D13
S3150801D240F7D0A8686168006882B23846FFF7A1FB83
S3150801D250EBE7000038FD03082DE9F047054640696C
S3150801D2600026EF6EC16A84B00C18686A002845DD8D
S3150801D270A08810F4004F24D0E96EC0F30E0001EB2C
S3150801D280800168460EF02CF868B12188284600F01E
S3150801D290F5FB804600983B4682B241460198FFF766
S3150801D2A078FB28B124E0A1881BA018F0CFFE2EE058
S3150801D2B0414621A018F0CAFE04B04FF07F40BDE8F0
S3150801D2C0F087A96E51F820A0BAF1000F1FD0618826
S3150801D2D0284600F0D3FB80462188284600F0CEFB7D
S3150801D2E0814601463B4642465046FFF718FB48B180
S3150801D2F0686A761C08343F1DB042B9DC04B00020C8
S3150801D300BDE8F0874A46414612A018F09FFE04B0D0
S3150801D3104FF07F40BDE8F0875265736F6C76653ACA
S3150801D32020756E6B6E6F776E2073636F70653A202A
S3150801D330253038780D0A00005265736F6C76653AA8
S3150801D34020756E6B6E6F776E20747970653A20253D
S3150801D350730D0A005265736F6C76653A20756E6BAC
S3150801D3606E6F776E20747970653A2025732E257352
S3150801D3700D0A00002DE9F0410546406900262F6F88
S3150801D380016B86B00C18A86A00281CDD6188E86E56
S3150801D39000EB810102A80DF0A3FFC0B12188284640
S3150801D3A000F06CFB8046A088CDE90007DDE90301A2
S3150801D3B02B464246FFF735FB90B1A86A761C08341E
S3150801D3C03F1DB042E2DC06B00020BDE8F08161886D
S3150801D3D008A018F03BFE06B04FF07F40BDE8F0818B
S3150801D3E041460EA018F032FE06B04FF07F40BDE868
S3150801D3F0F08100005265736F6C7665204669656C2D
S3150801D400643A20756E6B6E6F776E2073636F706505
S3150801D4103A20253038780D0A000000005265736FEE
S3150801D4206C76653A20756E6B6E6F776E20666965E8
S3150801D4306C643A2025730D0A000000002DE9F04FAF
S3150801D4408046406983B04FF00009016C4718D8F847
S3150801D45038000028CEBFDFF874B003B0BDE8F08FFE
S3150801D4601B4CD8F80C00002549EA004AD4E90116F4
S3150801D4700868B0B13068A0B968460DF031FF0028D8
S3150801D48008BFF2F723FE019840450AD1398840467C
S3150801D49000F0F4FA2168F3F707F9002808BFC6F87F
S3150801D4A000A06D1C0C34022DE0D3786810F0006FD3
S3150801D4B018BFCBF858A009F10109D8F83800103778
S3150801D4C04845CDDC03B0BDE8F08F0000405600109A
S3150801D4D0940104082DE9F043064640690027756F53
S3150801D4E0416B85B00C18F06A00282FDD6188F06E53
S3150801D4F000EB810102A80DF0F3FE98B121883046B0
S3150801D50000F0BCFA814602984FF0000810B3A088D3
S3150801D510CDE90005DDE9030133464A46FFF73AFB43
S3150801D52070B904E061881AA018F090FD2AE002A8F3
S3150801D5300DF06CFE02980028E9D1B8F1000F09D068
S3150801D540F06A7F1C08342D1DB842CFDC05B00020D7
S3150801D550BDE8F0836188F06E00EB810102A80DF049
S3150801D560BFFEDDE903432046198800F087FA054620
S3150801D5705988204600F082FA01464B462A460EA0F3
S3150801D58018F064FD05B04FF07F40BDE8F083000058
S3150801D5905265736F6C7665204669656C643A2075C9
S3150801D5A06E6B6E6F776E2073636F70653A202530E8
S3150801D5B038780D0A000000005265736F6C76653A7B
S3150801D5C020756E6B6E6F776E206D6574686F643A41
S3150801D5D02025732E25732E25730D0A0030B5ADF55A
S3150801D5E0037D684640F2FF15CDE98050144680ABAD
S3150801D5F081AA064805F025FF80982246291A684619
S3150801D600F6F76EFA0DF5037D30BD00008C55001056
S3150801D61008B50A4606F042FA8DF800000121684667
S3150801D620F6F75EFA08BD70B5034640690C46818C6B
S3150801D630184600F023FA98612068184498666168CC
S3150801D6400844D866A16808441867E1680844586719
S3150801D65021690844986761690144D967A269114437
S3150801D660C3F88010E26902EB010C1A6B0021002A4B
S3150801D670C8BF002207DD0280428042601D6B491C3B
S3150801D68008308D42F7DC5D6B0021D86F4FF6FF72CB
S3150801D690002D05DD20F8022B5D6B491C8D42F9DC56
S3150801D6A09D6B0021D3F88000002D05DD20F8022BA3
S3150801D6B09D6B491C8D42F9DCC3F884C0216ABDE81B
S3150801D6C070406046F2F77CBF10B50B46098800F03A
S3150801D6D0D5F9BDE81040191D06F002BE41698069F9
S3150801D6E01C3106F0FDBD000070B50546006910F055
S3150801D6F0100F04D0F2F7EAFC4FF07F402AE010F051
S3150801D700040F26D140F010002861286A0026AC6E65
S3150801D71000280EDD206818B9F2F7D8FC206818B180
S3150801D720FFF7E2FF002815DB286A761C241DB042A4
S3150801D730F0DC686981694A1C03D0026D104408440B
S3150801D740804708480AF027FC294602F045FB0028CD
S3150801D75000DB0020296921F0100141F0040129614B
S3150801D76070BD0000585200102DE9F04F054640697A
S3150801D77089460027816AAE6E0C18286A83B04FF075
S3150801D7800108002824DD2188284600F077F9834618
S3150801D7903068B8B968694FF0010A006910F0020FDC
S3150801D7A003D05846A969F2F77FFF5346221D594609
S3150801D7B0174805F017FE78B1016911F0010F18BF76
S3150801D7C0306009D0286A7F1C0C34361DB842DADC71
S3150801D7D003B04046BDE8F08FB9F1000F14D068696F
S3150801D7E0428C018CCDE90012C38B828B09A0A969F1
S3150801D7F018F02CFC61892089CDE90001E388A2880B
S3150801D80059460BA018F022FC4FF00008DAE7000091
S3150801D8108C550010417373656D626C793A202573D6
S3150801D820202825642E25642E25642E2564290000CA
S3150801D830206E6565647320617373656D626C79200A
S3150801D84027257327202825642E25642E25642E2551
S3150801D85064290D0A0000000030B4D0F814C0DCF8C1
S3150801D8604040A4440CEB011C4FF6FF74BCF802506F
S3150801D870A5420DBF00201580826B30BC08BF7047DA
S3150801D8800CF1100C491C89B28A4201D1406D04E0A1
S3150801D890BCF80250A542F3D0A8B2188030BC0120CA
S3150801D8A070472DE9F04F8246D0F87890006B8FB01B
S3150801D8B04FF000080028C8BFEB4677DDDAF80C0000
S3150801D8C007A948EA0040079004A80DF009FD0022BF
S3150801D8D007A95046FFF782FE07460498002857D045
S3150801D8E0DDE9050600254069718AC26B104400EB23
S3150801D8F0C104707D002845DDE08810F0080F3CD191
S3150801D900224608A805990CF08CFB694608A80CF074
S3150801D910E9FB0028BCBF0FB0BDE8F08F0198411E96
S3150801D9200191002809DD39461320FFF771FE0746E4
S3150801D9300198411E01910028F5DC9DF80800394639
S3150801D940FFF766FE07469DF80800112818BF12283A
S3150801D95006D13A460BF10C015046FFF73FFE074642
S3150801D9602188059800F08AF80E90F4F7FAFF014627
S3150801D9703A460E98F6F7B4F80746707D6D1C0834DA
S3150801D980A842B9DC04A80DF041FC04980028A7D1E7
S3150801D990002F08BF4FF0FF3708F10108C9F80470D6
S3150801D9A0DAF8300009F10809404587DC0FB0002094
S3150801D9B0BDE8F08F70B504460D460868E168000CAD
S3150801D9C0884218BFF2F782FB2868A16B80B28142B0
S3150801D9D013DD616982B20B6C194401EB0211E2682D
S3150801D9E040EA02422A60496811F4005F01D0012029
S3150801D9F070BDA16B401C8142EBDC0020286070BD24
S3150801DA002DE9F041064640690F460024C16B4518C9
S3150801DA10706B002818DDE88810F0100F0FD0F06F32
S3150801DA2033462A4630F8140000EB400007EB800124
S3150801DA3007480AF0B3FA0028B8BFBDE8F081641CAC
S3150801DA40706B0835A042E6DC0020BDE8F0810000D5
S3150801DA505852001010B5044614300CF04BFE04F170
S3150801DA6018000CF047FE04F164000CF043FE04F1C3
S3150801DA701C00BDE810400CF03DBE00004FF6CB324D
S3150801DA80914208D34FF6FF70401A054931F8100044
S3150801DA9001F6680102E04069426D10440844704786
S3150801DAA0B4BB0308C0E90423002282610A884277CD
S3150801DAB00122827700F11F024B68D11E1846F8F73A
S3150801DAC0EFB810B504468177002A18BF04F04EF85E
S3150801DAD0A07F10F0200F18BF10BDBDE81040F7F762
S3150801DAE093BE00000548011D01600021C0E901102F
S3150801DAF00348016001214160704700003446001067
S3150801DB00644000100549496800291FBF00680028BC
S3150801DB100168002908BF0020704700006440001012
S3150801DB2006484068002808BF70470548006801682C
S3150801DB3000290CBF002070477047000064400010A0
S3150801DB40344600102DE9F047224884B004683CB1F8
S3150801DB50DFF884A030270125DAF8000038B135E06E
S3150801DB601EA01CF0A5FC04B00020BDE8F0872068C3
S3150801DB7000282BD0D4E9021009688847002816BF67
S3150801DB80002D002501250DF10C08D4E902100DF12F
S3150801DB900409896802AE88474B46424639460096CB
S3150801DBA018F084FA30B1DAF80000002808BFCAF87C
S3150801DBB000400BD1246820680028DBD1DAF8000080
S3150801DBC000281EBF284604B0BDE8F087002004B02F
S3150801DBD0BDE8F08734460010644000105468657249
S3150801DBE06520617265206E6F20626C6F636B2073AE
S3150801DBF0746F7261676520646576696365732074FD
S3150801DC006F20696E697469616C697A650000000044
S3150801DC102DE9F0411248134F012504683868D8B137
S3150801DC2020680026B8B1D4E9021049688847002857
S3150801DC3016BF002D0025012520462468D0E90012CB
S3150801DC40002A18BF1160002918BF4A60066046609D
S3150801DC5020680028E7D13E602846BDE8F08100002B
S3150801DC6034460010644000102DE9F04707460020AD
S3150801DC70386020480D4616464068002808BFBDE8AA
S3150801DC80F0871D480468002C1CBF206800282ED088
S3150801DC90D4E902108968884743690021002B88BFA7
S3150801DCA0D0F818C01FD901EB81000CEB800002687F
S3150801DCB0AA4215D8D0E9018908FB092295420FD253
S3150801DCC03C6001688268691AB1FBF2F131608268C9
S3150801DCD0514331600068084430600120BDE8F0878F
S3150801DCE0491C8B42DFD8246820680028D0D100203F
S3150801DCF0BDE8F08764400010344600102DE9F04174
S3150801DD0004460D0016461F4608BFF2F7DFF9002C38
S3150801DD1008BFF2F7DBF90020E6602060C4E90105D7
S3150801DD2037B1296830468847002808BFBDE8F08121
S3150801DD300A48002C18BFA0420CD0D4E90012002AC8
S3150801DD4018BF1160002918BF4A604168C4E900017B
S3150801DD5044600C600120BDE8F081000038460010DF
S3150801DD600068FBF7EDB900002DE9FF4F8C4D87B030
S3150801DD700C462868DDF850B002AFC268806803AE69
S3150801DD8081681046884733463A46214618F0DDF938
S3150801DD90002800F0CC802868C2688068816810462F
S3150801DDA08847019081690298DDE9097900EB8002CB
S3150801DDB001EB82014FF001080A688968A21AB2FBD1
S3150801DDC0F1F301FB1321059101994969814240F259
S3150801DDD0E28001988169029800EB800001EB8006D8
S3150801DDE03168B068611AB1FBF0FA0599401A0490D6
S3150801DDF0002005907068504572D90498B84234BF1E
S3150801DE0005463D46B0680490039B316903EB43021E
S3150801DE10082000EB82000858504507D2581C039089
S3150801DE20F168884202D3F2F751F970E05A46214661
S3150801DE30079800F0F5F9002804BF0BB0BDE8F08F8C
S3150801DE40BBF1000F18BFBBF1010F06D0BBF1020FE2
S3150801DE5039D0BBF1030F44D04BE00198006810F0AC
S3150801DE60020F07D02A4621464846F2F7ABFA4FF089
S3150801DE70010841E0BBF1000F06D101210998FBF722
S3150801DE808BFC5FEA00090ED045482A464B460168D5
S3150801DE90C8688968D1F80CC02146E0478046BBF1BD
S3150801DEA0000F26D103E00BB00020BDE8F08F0A98D9
S3150801DEB0294602684846F5F713FE0A990860484656
S3150801DEC0FBF758FC15E036482A464B460168002000
S3150801DED00090C8688968D1F810C02146E04707E074
S3150801DEE015E02F4821460268D0689268526A904721
S3150801DEF08046B8F1000F0AD07F1B002F07DD706836
S3150801DF000AF1010AA9442C4450453FF676AF002090
S3150801DF100390002F3FDDB8F1000F3CD0029801991C
S3150801DF20401C0290496981423FF653AF33E0099894
S3150801DF30214622181B48D0E9063018449C4228BFBE
S3150801DF40884201D9824208D9009017A0099A18F087
S3150801DF507DF80BB00020BDE8F08FBBF1000F1AD099
S3150801DF60BBF1010F08BFDDE909200AD0BBF1020F99
S3150801DF7004BF2046DDE9092103D0BBF1030F03D015
S3150801DF8009E0F2F71FFA06E00999204600291CBFA5
S3150801DF90FF22F2F70DFB01200BB0BDE8F08F000060
S3150801DFA01C4000103840001020496E76616C696487
S3150801DFB0206164647265737320257820616E64201C
S3150801DFC072616E67652025782052616D20537461F0
S3150801DFD072742025782C2052616D20656E64202587
S3150801DFE0780D0A0070B5034608680C46010C1546FB
S3150801DFF0184600F0C5F850B12168006B89B288420D
S3150801E00005DD21462846BDE870400DF069B90020B6
S3150801E01070BD000030B5214D0A4685B0296841F02A
S3150801E02080412960C16911F0020F08D0406A20B306
S3150801E030406810F0010F18BF01241ED01EE0416A86
S3150801E04029B1496811F0010F18BF012400D1002434
S3150801E05000210291296811F4006118BF04210823DF
S3150801E060039102A9CDE90013D2F800C001460023A5
S3150801E07001226046FBF793F900E00024286810F4B2
S3150801E080406F07D12868002C14BF40F0004020F0EB
S3150801E0900040286005B0012030BD0000585200102C
S3150801E0A070B5034608680C46010C1546184600F07B
S3150801E0B067F850B12168406B89B2884205DD21466F
S3150801E0C02846BDE870400DF027BA002070BD70B52E
S3150801E0D0034608680C46010C1546184600F050F828
S3150801E0E050B12168806B89B2884205DD21462846F0
S3150801E0F0BDE870400DF0D2BA002070BD10B51648C3
S3150801E1008AB0144C04601548B021F2F759FA042173
S3150801E1102046F2F755FA1248D0E90112914206BF94
S3150801E120104909680D4921604168204600F094FAB2
S3150801E1300028BCBF0AB010BD5021684605F002FD93
S3150801E1400949002818BF09980860F6F75EF80AB069
S3150801E150002010BD9C40001084400010D8590010C2
S3150801E16038400010A84000101C400010034810B5A4
S3150801E170006800F010F9002010BD0000844000106E
S3150801E180084A1046D0F80001431E48B1106820B16C
S3150801E190D0F80CC08C4508BF7047121D5B1EF5D21E
S3150801E1A0002070478C5500102DE9F0411B4F446A39
S3150801E1B006460D46E4B1206810F0010F0CD0002385
S3150801E1C0012231462868FBF7DEF800216422202067
S3150801E1D0F6F7A4FAF5F7E6FEF7F7F5FC40B120687D
S3150801E1E010F0020F1CBFB86840F001000DD0B860EE
S3150801E1F0386840F00050386000230122314628680B
S3150801E200FBF7C1F80120BDE8F08110F0040F1CBF2F
S3150801E210B86840F00500EAD1EAE700005852001054
S3150801E2202DE9F043DFF80C91154683B0D9F80000C3
S3150801E2300E460024C2688068E84601AF8168104628
S3150801E24088473B464246314617F07FFFD9F800001A
S3150801E250C2688068816810468847816900981022DB
S3150801E26000EB800002EB8000002D0958019800EBB5
S3150801E270400001EB800056D02F4A012D05D02F4BC7
S3150801E280022D24D0032D51D12BE02D4B0168C81A3C
S3150801E290994248D00FDCA1F58040403818BF10EBF1
S3150801E2A0020040D0B0F5FF5F1CBFA0F50050B0F1E9
S3150801E2B0100038D03AE0102818BF502833D060280B
S3150801E2C01CBFA0F56040B0F5FD502CD02EE00068CB
S3150801E2D0C0B2502827D05868F7F71CF9012822D070
S3150801E2E023E00068DFF85CC0A0EB0C0160451AD09A
S3150801E2F00DDCA0F58040403818BF10EB020012D0A3
S3150801E300A0F50050103818BF30280CD00EE040296F
S3150801E31018BF502907D0A1F57F40903806D1586813
S3150801E320F7F7F8F808B1012400E0002403B0204605
S3150801E330BDE8F0831C400010F01F00C038400010F3
S3150801E34090400040A040004030B5084614461D469E
S3150801E35000F024F80021297050B1D0F85001416825
S3150801E36031B1641E38BF30BD084649680029F8D165
S3150801E370002030BD10B58446446A0868002301228E
S3150801E3806146FBF700F820688047012010BD006848
S3150801E3903030FDF76DBF0068FBF7A8B910B40F4C14
S3150801E3A00246D4F85801416841B18369934204BFD2
S3150801E3B010BC7047084649680029F6D1D4F86401AB
S3150801E3C0416841B18369934204BF10BC704708464E
S3150801E3D049680029F6D110BC002070475852001030
S3150801E3E02DE9F047084617469846FFF7D7FF060076
S3150801E3F00DBF4FF0214000254FF00C09BDE8F0870D
S3150801E4000024D6F850014368EBB1012D16D13968BD
S3150801E41009EB04121144826A0A60D0F838C0C2694D
S3150801E420B2EB0C024A601FBFD6F858C18445521E8A
S3150801E4304A60C26CD2698A60406AC86018465B68DD
S3150801E440641C002BE1D185B909EB04104FF4006176
S3150801E450C8F80000FBF77CF9386060B104603968D8
S3150801E460F06948603968306A88606D1C022DC7DB1F
S3150801E4700020BDE8F0874FF07A40BDE8F08700003C
S3150801E480844600B50D4889B0002382690292C269A3
S3150801E490039201220492026A0592406A06900220BA
S3150801E4A00790182202A8CDE90002086801226146F0
S3150801E4B0FAF775FF09B0012000BD000038400010C9
S3150801E4C02DE9F04184B0F5F7B3FE1A4A1A4F8418BC
S3150801E4D04FF00000194E41EBE27542F20108029035
S3150801E4E03868006830B102AB08220021CDF80080F7
S3150801E4F0FBF71CF9306810F0004F02D1F7F763FB00
S3150801E50088B90E4808F0A4FD306810F0804F01D094
S3150801E5100BA006E0F5F78CFE201A75EB0100DFDA91
S3150801E5200CA017F093FD054809F028FA04B0BDE8D8
S3150801E530F081000080F0FA02844000105852001061
S3150801E540466F756E64206465627567676572210D2D
S3150801E5500A0000004E6F206465627567676572215F
S3150801E5600D0A00000748D0F8D40042683AB1C369D9
S3150801E5708B4208BF704710465268002AF7D100201F
S3150801E580704700005852001070B50646406AADF54E
S3150801E590816D0D464468B4F5806F88BF4FF4806479
S3150801E5A00E490968002902BF00200DF5816D70BD6D
S3150801E5B001210091016802AB22462846FFF7D4FBE8
S3150801E5C002A8CDE900040023012231462868FAF79A
S3150801E5D0E6FE0DF5816D012070BD00001C4000109E
S3150801E5E02DE9F0411B4F0D46164607F5AC7005F0AF
S3150801E5F09AFE044607F5B27005F095FE0444042018
S3150801E60000EB840001213060FBF7A2F8286000289E
S3150801E61004BF4FF07A40BDE8F0810460D7F858117D
S3150801E62028684A68001D32B1896940F8041B1146F9
S3150801E6305268002AF8D1D7F864114A6832B1896953
S3150801E64040F8041B11465268002AF8D10020BDE89B
S3150801E650F08100005852001000B5084A83B0084BF3
S3150801E66012680093CDE90120064A00681368064A34
S3150801E670FAF7D8FC03B0002000BD00008C0D040891
S3150801E680800D0408880D0408B80B040830B583B05A
S3150801E69005460C46406A00210091D0E9001202ABFA
S3150801E6A02046FFF761FB042102A8CDE900010023FA
S3150801E6B0012229462068FAF772FE03B0012030BD0F
S3150801E6C0F8B50C460C490546406A0968002904BF95
S3150801E6D00020F8BD03210091D0E90012002320464D
S3150801E6E0FFF742FB06460023324629462068FAF719
S3150801E6F04AFE3046F8BD00001C400010F8B5054634
S3150801E700436A0B480C460068002808BFF8BD02207A
S3150801E7100090F3E802122046FFF726FB064600237F
S3150801E720324629462068FAF72EFE3046F8BD000023
S3150801E7301C40001030B589B005460C46406A0021D8
S3150801E7408DF81C10D0E9001207AB2046FFF7FCFD37
S3150801E75000B3816A0291826BC1690023891A039108
S3150801E760016B0122497A0491016B897A0591C16B82
S3150801E7700069081A0C4981FB00104110A1EBE070F1
S3150801E7800690142102A8CDE9000129462068FAF766
S3150801E79006FE05E000231A4629462068FAF7F3FD26
S3150801E7A009B0012030BD0000ABAAAA2A2DE9F84F0D
S3150801E7B08246406A8B460068FFF7F0FD002500286F
S3150801E7C008BFBDE8F88FD0F87081D8F80C00466804
S3150801E7D0DEB10469002C08BFF1F778FC04F13000BA
S3150801E7E00EF048FB07000FD01F4809F0D4FBF96863
S3150801E7F088420CBF012500250DB1A14626E0304609
S3150801E8007668002EE5D100E005BB0C201BF099FEC9
S3150801E8108146164A4946144809F0A8FB00281FDB19
S3150801E820D9F80450D8F8640105F12402294680690B
S3150801E830E86140460EF0FEFA002811DB0A4809F0A5
S3150801E840AAFB05F1300229460EF0F4FA0020034628
S3150801E85000904A465146584601F096FABDE8F88FA7
S3150801E8600020BDE8F88F0000585200104C550010E2
S3150801E8702DE9F843456A0F462868002814BF4FF06A
S3150801E88001084FF00008686801280ED002282AD02E
S3150801E89005281CBF0020BDE8F883424605F108019A
S3150801E8A03846BDE8F84300F0D8BEA868010C3846DA
S3150801E8B0FFF766FC060008BFBDE8F8830024306B45
S3150801E8C000280DDDA8684246000C44EA0040009085
S3150801E8D06946384600F0F2FC306B641CA042F1DC54
S3150801E8E00120BDE8F883424605F108013846BDE82E
S3150801E8F0F84300F0E3BCF8B50646446A00200D4625
S3150801E9008DF80000D4E900126B462846FFF71CFD76
S3150801E910B0B1816BA26800231144C161E168026943
S3150801E92001EB410102EB8101C163416A012221F038
S3150801E9300051416231462868FAF725FD0120F8BDE4
S3150801E94000231A4631462868FAF71DFD0120F8BD4D
S3150801E95030B50546406A83B00C460068FFF71EFDD0
S3150801E96010B1FDF72DFC01200290042102A8CDE982
S3150801E97000010023012229462068FAF710FD03B099
S3150801E980012030BD30B585B0054600200C46039000
S3150801E990029002AA03A92046FFF722FE002806DAFA
S3150801E9A000231A4629462068FAF7EDFC09E0DDE955
S3150801E9B00210CDE900010023012229462068FAF751
S3150801E9C0EEFC0398FAF7D6FE05B0012030BD01200A
S3150801E9D07047000070B50C46ADF5087D0546416ADD
S3150801E9E082AA2046FFF7FEFAD0B102AE40F2FF1026
S3150801E9F0CDE9856086AB85AA82A90D4804F021FD7B
S3150801EA0000280DDB4FF40070CDE9006000230122D8
S3150801EA1029462068FAF7C3FC0DF5087D012070BD6B
S3150801EA2000231A4629462068FAF7ADFCF4E70000E8
S3150801EA308C55001030B585B005460C46406A002154
S3150801EA4003910291016802AB03AA2046FFF7C8FCAD
S3150801EA50002806DA00231A4629462068FAF793FCA5
S3150801EA6009E0DDE90210CDE900010023012229466A
S3150801EA702068FAF794FC0398FAF77CFE05B00120A2
S3150801EA8030BD0000F0B5134F0646456A83B00C4603
S3150801EA907868F7F7D9FC002804BF03B0F0BD012058
S3150801EAA00290042102A8CDE9000101231A46314644
S3150801EAB02068FAF774FC00214FF496722020F5F7C6
S3150801EAC02DFE29687868F7F7B9F8012818BF0020DC
S3150801EAD003B0F0BD38400010F8B50546406A0E4649
S3150801EAE0D0E900142CB12046F3F7ACFF0028B8BFD3
S3150801EAF0002400200346009022462946304601F0AC
S3150801EB0043F9F8BD2DE9F34F83B003980291C06923
S3150801EB1010F0020F7ED100252E462C462F464FF0C7
S3150801EB200409FEF7FDFF5FEA000808D0012F14D19A
S3150801EB3006EB460080001BF004FD05000DD1002000
S3150801EB400090019002980023012200680399FAF7C0
S3150801EB5026FC05B00020BDE8F08FD8E902108968C7
S3150801EB608847834640694FF0000A002840D9DBF8F8
S3150801EB7018000AEB8A0100EB81000021C268002A0D
S3150801EB8030D9002F08BF761C28D001EB4102036952
S3150801EB9009EB820CD0F808E053F80C30D0F800C025
S3150801EBA003FB0EC304EB440C45F82C30036905EB53
S3150801EBB08C0C03EB8203D3F808E05B68AEEB030326
S3150801EBC0D0F808E05B1C03FB0EF3CCF804300369AC
S3150801EBD0641C53F82220D2B2CCF80820C268491C1A
S3150801EBE08A42CED8DBF814000AF1010A5045BED88C
S3150801EBF04046FEF787FF5FEA0008AED17F1C022F69
S3150801EC008FDB06EB46008000CDE900500298002311
S3150801EC10006800E006E001220399FAF7C0FB2846DE
S3150801EC201BF08DFC05B00120BDE8F08F30B50C4610
S3150801EC30ADF50D7D0546416A84AA2046FFF730FAEF
S3150801EC4040B304A88A9040F2FF108B908BAB8AAA36
S3150801EC5084A9144804F084FC00281BDB84A987A82E
S3150801EC600CF0F4FA8798859902908498C96F80B256
S3150801EC70002331F8100003904FF4027102A8CDE980
S3150801EC800001012229462068FAF789FB0DF50D7D59
S3150801EC90012030BD00231A4629462068FAF773FB7E
S3150801ECA0F4E700008C55001070B50646406A0C461C
S3150801ECB00068FFF773FB050018BFFDF74BF9002D38
S3150801ECC014BF01220022002331462068FAF75BFBB4
S3150801ECD0012070BDF8B58C46406A00218DF80010F8
S3150801ECE0D0E900126B466046FFF72EFB060026D0D8
S3150801ECF0F568D5F81401002808BFF1F7E7F9D5F842
S3150801ED00140100EBC00005EB800000F11804686BE4
S3150801ED106168884218BFF1F7D9F994F8200010F014
S3150801ED20800F08BFF1F7D2F9E66194F8200040F0A8
S3150801ED30400020F0070040F0040084F8200001207C
S3150801ED40F8BD000010B50BA140F20150F3F794FD90
S3150801ED5011A017F07BF9184C02E0174808F078F96A
S3150801ED60206810F0005F18BF10BD206810F4003F3E
S3150801ED70F3D010BD0D0A57616974696E6720666F15
S3150801ED807220646562756720636F6D6D616E647369
S3150801ED902E2E2E0D0A00000057616974696E6720D0
S3150801EDA0666F7220646562756720636F6D6D616E4B
S3150801EDB064732E2E2E0D0A00585200102DE9F041CB
S3150801EDC08AB080460D46446A042708AE02A818216F
S3150801EDD0F1F7F6FBB4F85400ADF80C00B4F8560098
S3150801EDE0ADF80E00206C0290606CADF81400A06CB2
S3150801EDF0ADF81600E06C0690206D079002A9204632
S3150801EE00F5F700FA0890CDE900670023012241468B
S3150801EE102868FAF7C4FA0AB00120BDE8F0810000B3
S3150801EE2030B50C46ADF50B7D0546416A83AA2046E9
S3150801EE30FFF74DF910B383A986A80CF06FFAE8B16C
S3150801EE4003A8899040F2FF108A90869802908598C7
S3150801EE5001888498FEF712FE03460DA28AA989A89D
S3150801EE60F4F7CBF84FF4017102A8CDE900010023AC
S3150801EE70012229462068FAF792FA05E000231A4684
S3150801EE8029462068FAF77FFA0DF50B7D012030BD7A
S3150801EE902573000070B50646406A0C460068FFF700
S3150801EEA07DFA050018BFFDF7EBF8002D14BF012206
S3150801EEB00022002331462068FAF765FA012070BD61
S3150801EEC02DE9F047456A8A468AB0814629681F486E
S3150801EED0CDE901010026B046374601A904A86A68AA
S3150801EEE002F06AFB002819DB059CA07C00B3627C52
S3150801EEF0686804F1140102FB00163046F4F710FAAB
S3150801EF0060B104F1080107A80CF0EAF930B10998D3
S3150801EF103021C08A31EA000008BF07AF43463246AE
S3150801EF2049465046009700F02FFF0AB0BDE8F08722
S3150801EF3004A901A802F01AFA0028B2BF002001AEFE
S3150801EF404FF0FF38D9DA0AB0BDE8F08710000100A2
S3150801EF5038B50446406A8C462146026800200346B5
S3150801EF600090604600F010FF38BD00002DE9F0431F
S3150801EF70446A894691B02168002780463E46019138
S3150801EF8000291CBF6068002821D002A805F094FE5C
S3150801EF90002835DBDDE90301059A0A92CDE9080166
S3150801EFA06068451E099A08990A98926F89B202EB18
S3150801EFB0C101407D4988081AA84225D80A9A291A02
S3150801EFC00898528A000C114441EA0040A0600BAA35
S3150801EFD004F108014846FFF763F8002804BF11B099
S3150801EFE0BDE8F0830198B8B16168D1B101781129FA
S3150801EFF018BF12291FD001A902F082FA00281ADACD
S3150801F00011B00020BDE8F08308A80CF0FFF800282D
S3150801F010C8D111B0BDE8F08304F1080008F03CFE40
S3150801F02014E00C9A0B99D26F89B232F8111061600B
S3150801F0300029DBD1E4E7019801780D2918BF0E29CB
S3150801F0401FD0616801EB410100EB81000190F4F7E3
S3150801F05067F960B10BA902A805F06EFF002806DB67
S3150801F06005983021C08A31EA000008BF03AE3B4645
S3150801F070009641464846019A00F086FE11B0BDE861
S3150801F080F083826841680746034B0EA80E930190E8
S3150801F090CDE90F12DBE700000A0001002DE9F04F68
S3150801F0A097B08246456A00208B468DF85800D5E907
S3150801F0B0001216AB5846FFF747F9002804BF17B0E8
S3150801F0C0BDE8F08F00F12807A96841B1012902D0EE
S3150801F0D0022946D107E04269006B407A0CE0826951
S3150801F0E0006B807A08E00269C06B3B4B801A83FB90
S3150801F0F000304310A3EBE070EB68834231D203EB97
S3150801F10043004FF0000902EB8006C846022958D091
S3150801F1103046F4F705F9002853D0D5E90204D7E9B2
S3150801F12001120128684611D00AF0B8FF0CA96846F1
S3150801F1300AF0D8FF641EF9D23078284900EB80001E
S3150801F14001EB80004079042829D10EE00AF0B5FFC9
S3150801F1500498641C10F0200FE8D0002C18BF641E18
S3150801F160E4D117B00020BDE8F08F9DF8380000EB18
S3150801F170800001EB80004079042810D270880128AC
S3150801F18018BFF0F7A3FFD6E90012B0681091CDE9D0
S3150801F19011209DF83800B1468DF8400010AE0FA930
S3150801F1A006A805F039FD09983021C08A31EA000020
S3150801F1B007D1DDE90701099A15920DF14C08CDE948
S3150801F1C013014B46324651465846CDF8008000F0A9
S3150801F1D0DBFD17B0BDE8F08FABAAAA2AAC0104087B
S3150801F1E0F0B5446A074687B00D4620681649CDE949
S3150801F1F000100026F0B1807CE0B9694603A8626870
S3150801F20002F0DAF9002815DB03A9684602F0AEF820
S3150801F21000280FDB9DF8001004F108026846F3F791
S3150801F22051FE38B1002203A9684602F009F8002800
S3150801F230A8BF01260023324639462868FAF7A3F8FB
S3150801F24007B00120F0BD00001000010070B50546A9
S3150801F250406A0C4600F10802D0E90031C9B21846E5
S3150801F260F3F730FED4F800C002460023294660466B
S3150801F270FAF789F8012070BD70B5446A84B006466C
S3150801F2800D4603A92046A268F7F73EFC0028B8BF39
S3150801F2904FF0FF3004DB03986168C0F86811806994
S3150801F2A00290042102A8CDE900010023012231467A
S3150801F2B02868FAF774F804B0012070BD2DE9F04307
S3150801F2C085B0914680460F466A46FEF78BFE0028B2
S3150801F2D004BF05B0BDE8F083029D0024287B697B45
S3150801F2E00844A97B4618002E0EDD38686989000C8A
S3150801F2F0214441EA004003904A4603A9404600F0EA
S3150801F300ACF9641CA642F0DC05B00120BDE8F08327
S3150801F31070B5446A06460D46D4E9000284B004F184
S3150801F3200801F4F705FA0290042102A8CDE90001C3
S3150801F3300023012231462868FAF731F8029878B194
S3150801F3400021C8222020F5F7E9F9D4E9000204F1E1
S3150801F3500801F4F706F80290012804BF04B070BD4D
S3150801F360002004B070BDF0B50646406A0D46ADF5FD
S3150801F370057D0068010C2846FEF702FF040019D036
S3150801F38040F2FF13591C02AF05A8A269F3F7AEFCB8
S3150801F39020690290606900230122D0E90710CDE9AE
S3150801F3A003104FF40370CDE9007031462868F9F768
S3150801F3B0F6FF05E000231A4631462868F9F7E3FF08
S3150801F3C00DF5057D0120F0BD2DE9F34FDFF8849198
S3150801F3D000248DB0D9F800208B4627462546002AF9
S3150801F3E07ED0502102A804F0B1FB08B90FE01CB980
S3150801F3F002A804F0F2FC07460498641C054402A816
S3150801F40004F0D4FB18B1029879198842EFD0D9F8DB
S3150801F4100000C2688068816810468847804604EB08
S3150801F4204400242101EB800A01215046FAF7B4F978
S3150801F430060004BF0FB0BDE8F08F5146F1F7C0F8DA
S3150801F4404548D0F80C01C6E900074FF0FF30C6E978
S3150801F4500250D9F80000C2688068016B10468847D7
S3150801F4603061D9F80000C2688068C16A10468847C9
S3150801F47070610027502102A8D9F8002004F066FB24
S3150801F48000284AD0002081460090D8F8000010F0E4
S3150801F490020F09D101210598FAF77EF90090002893
S3150801F4A004BF0FB0BDE8F08F2A48056802A804F02A
S3150801F4B094FC0146D5E90230049A1B6A984798B923
S3150801F4C0049D002D10DD694602A8059A04F089FC01
S3150801F4D04A4605990098F4F703FB8146059800E02A
S3150801F4E02BE02D1A002DEEDCD8F8000010F0020FE3
S3150801F4F004BF0098FAF73EF907EB470006EB8000D0
S3150801F500029981610499C0E907197F1CA74204DAA7
S3150801F51002A804F04BFB0028B4D1CDE9006A002308
S3150801F5200122DBF800000D99F9F739FF3046FAF7A1
S3150801F53021F90FB00120BDE8F08F0020009001905D
S3150801F540002308681A460D99F9F729FF0FB000201C
S3150801F550BDE8F08F1C4000108C55001000B583B033
S3150801F560844607480290042202A8CDE900020868E9
S3150801F570002301226146F9F712FF03B0012000BDFD
S3150801F580585200102DE9F0438046406A0F46ADF502
S3150801F590457D01683846FEF7E5FF05004FF0000492
S3150801F5A034D0287E0290286B02AED0F804904846E3
S3150801F5B0F3F7D7F9401CB0F5FF7F88BF40F2FF1378
S3150801F5C003D84846F3F7CDF9431C4A464FF4007170
S3150801F5D0301DF3F78BFB286A06F5017142684AB1BB
S3150801F5E04069641CC068000441F8040B104652685F
S3150801F5F0002AF5D1A00000F50170CDE900600023CD
S3150801F600012241463868F9F7CAFE05E000231A4681
S3150801F61041463868F9F7B7FE0DF5457D0120BDE885
S3150801F620F08330B50546406A0C4683B000684FF44E
S3150801F6300061FAF7B1F80290002804BF03B030BDA3
S3150801F640042102A8CDE900010023012229462068E8
S3150801F650F9F7A5FE03B0012030BD10B584B01446F4
S3150801F6606A46FEF734FD002804BF04B010BD0298AF
S3150801F6704088A0F57F41FF3902BF002004B010BDC4
S3150801F680DDE90001D1F8841011FA80F00178002C27
S3150801F69014BF41F0010121F00101017004B00120FC
S3150801F6A010BD00002DE9F043446A0D46064661681F
S3150801F6B04020042783B0B0EB511F28D9DFF8889082
S3150801F6C048094FF0010859F8202001F01F0008FAEF
S3150801F6D000F0024208BFCDF8088024D004F10800E2
S3150801F6E0CDE9000704F11002E3682068F4F7EFF9A1
S3150801F6F0029028B36068410900F01F0059F82120DB
S3150801F70008FA00F022EA000049F821000BE004F1AA
S3150801F7100800CDE9000704F11002E3682068F4F750
S3150801F720D6F9029060B102A8CDE9000700230122AB
S3150801F73031462868F9F733FE03B00120BDE8F083A6
S3150801F74003B00020BDE8F08324420010144B10B525
S3150801F750D3F8D430ADF5816D0022D3F804C002ACDC
S3150801F760BCF1000F0CD0DB6944F82230521CB2F50B
S3150801F770807F05D26346DCF804C0BCF1000FF2D1E4
S3150801F7809200CDE90042D1F800C0014600230122CA
S3150801F7906046F9F704FE0DF5816D012010BD0000E4
S3150801F7A05852001070B5154BC2B09C460022DCF8C1
S3150801F7B000C102AEACF10104BCF1000F10D0D3F8C0
S3150801F7C000C0BCF1000F08D0DCF80CC006EB8205BE
S3150801F7D04FEA0C4C521CC5F800C01B1D641EEED224
S3150801F7E09200CDE90062D1F800C00146002301224A
S3150801F7F06046F9F7D4FD42B0012070BD8C55001062
S3150801F80038B50446406A0D460068FEF7C7FD002272
S3150801F810002818BF00F13002002003460090214657
S3150801F820284600F0B1FA38BD2DE9F041446A074689
S3150801F83082B0884600262068F5F74EF805000FD0F5
S3150801F8400220ADF80000A068ADF8020060680190DA
S3150801F8506A462846E16809F0DBFD0028A8BF2E465E
S3150801F86000200346009032463946404600F08CFA9D
S3150801F87002B0BDE8F08138B50446406A0D46006815
S3150801F880F5F72AF800210B4602460091214628463B
S3150801F89000F07AFA38BD2DE9F04F87B0446A8246FE
S3150801F8A0884600260C2702A839460596F0F788FEF1
S3150801F8B00DF1140BCDE9006BD4E9000102AD04F199
S3150801F8C00C02A368F5F736F800281CBF059800282E
S3150801F8D01CDD00F1080948461AF033FE060015D06A
S3150801F8E006F10800CDE9000BD4E9000104F10C0288
S3150801F8F0A368F5F71FF830B1059870600120354601
S3150801F9004F46306002E030461AF019FECDE900573D
S3150801F910002301225146D8F80000F9F740FD02A854
S3150801F92085421CBF28461AF00AFE012007B0BDE829
S3150801F930F08F00002DE9F843446A074688460026F9
S3150801F9402068F4F7C9FF050007D00146221D0848BB
S3150801F95008F00CFB0028A8BF2E460020034600909D
S3150801F96032463946404600F00FFABDE8F8830000F2
S3150801F970585200102DE9F843446A0746884600267E
S3150801F9802068F4F7A9FF0500B1460DD061680BF0B0
S3150801F990CDFB48B14668202230466168F0F708FE7B
S3150801F9A0606806F800902E460023324639464046DE
S3150801F9B0CDF8009000F0E8F9BDE8F88370B5044683
S3150801F9C00D46D4E90810084A091FA2FB0121CA08F5
S3150801F9D0011D064808F09BFA0023012221462868E2
S3150801F9E0F9F7D1FC012070BD398EE3385852001061
S3150801F9F02DE9F04186B0446A00274FF00408CDE9A5
S3150801FA00037806460D46FF22511C1E48F0F7D0FD25
S3150801FA1004A803A9CDE90010029700231A4601217B
S3150801FA202068F4F787FF039802AF01280ED10097E3
S3150801FA30CDE901800023012231462868F9F7AFFC98
S3150801FA4000214FF4C8722020F4F768FED4E90002B9
S3150801FA5004F10801F5F79FF940B12068F3F7CDF8ED
S3150801FA60029018B92068F3F706FB0290CDE90078F1
S3150801FA700023012231462868F9F791FC06B00120D6
S3150801FA80BDE8F0812442001070B586B00646456A85
S3150801FA9000200C46029003A9686805F015FA0028AB
S3150801FAA009DB04AB2A4603A9094802F017F900281D
S3150801FAB01CBF04980290042102A8CDE90001002385
S3150801FAC0012231462068F9F76AFC06B0012070BDAB
S3150801FAD09C5600102DE9F0410746406A0D4601265D
S3150801FAE00168DFF8608084B0002904BF0020C8F8E7
S3150801FAF0B0011DD0144A684609F07BFC0028B8BF3E
S3150801FB00002615DBD8F8B001019C78B100F1140C78
S3150801FB10E168C06804F11403814238BF084600EB66
S3150801FB204000820061461846F0F74CFCC8F8B0411F
S3150801FB300023324639462868F9F725FC04B0002027
S3150801FB40BDE8F08158520010585400102DE9F043D1
S3150801FB508146D0F8248087B040200E468100059062
S3150801FB600C254FF48477FF221948F0F721FD02A8E6
S3150801FB700C21F0F725FD02AC05AA1549D8F80000B5
S3150801FB80F6F72DFB90B138461AF0DBFC040008BFE6
S3150801FB9002AC0BD0059860600120206005980C49DD
S3150801FBA0820004F10800F0F794FC3D46CDE90045D2
S3150801FBB00023012249463068F9F7F1FB02A884427D
S3150801FBC01CBF20461AF0BBFC012007B0BDE8F08334
S3150801FBD02442001030B58BB005460C4602A90D48E3
S3150801FBE008F0DDFB48B900200290039004900590C7
S3150801FBF006900790089009900A90242102A8CDE959
S3150801FC0000010023012229462068F9F7C8FB0BB039
S3150801FC10012030BD585200100B4610B51249426AF0
S3150801FC2084B0D1F800C014684CEA040CC1F800C0CD
S3150801FC30D1F800C052682CEA02020A60C26912F0C1
S3150801FC40010F0DD109680291042202A9CDE900121A
S3150801FC50D3F800C00146002301226046F9F79FFB4D
S3150801FC6004B0012010BD00005852001070B50646B8
S3150801FC70406A0C4601682046FEF774FC050003D06D
S3150801FC800146074808F0D6F9002D14BF01220022C3
S3150801FC90002331462068F9F776FB012070BD000084
S3150801FCA0585200102DE9F0438146D0F824800020EF
S3150801FCB09FB00F460446054602900126742102A804
S3150801FCC0F0F7A0FCD8F80000082848D2DFE800F0D1
S3150801FCD0470416224730393F029840F01B0040F48A
S3150801FCE0806040F004000290F5F76DFF18B10298A4
S3150801FCF040F02000029002AC042531E0F2F70CFE38
S3150801FD000290F2F775FF0390F4F77AFA02AC0C2524
S3150801FD10049025E01848079018A0F2F722FE03463A
S3150801FD2016A2142102A8F2F7E1FF02AC182517E082
S3150801FD3002A8F3F77BFA012804BF02AC74250FD099
S3150801FD400DE002A8F3F7B4FC02AC482508E002A8C6
S3150801FD50F5F7CCFC012804BF02AC402500D00026EB
S3150801FD60CDE900450023324649463868F9F717FBBD
S3150801FD701FB00120BDE8F083A7440600417567203E
S3150801FD80313520323031320070B5ADF5347D044657
S3150801FD909446B8980D4602AE00900422B2A9B296CE
S3150801FDA06046F2F7CBFC68B1B2980023801BCDE917
S3150801FDB00060012229462068F9F7F1FA0DF5347D2C
S3150801FDC0012070BD00231A4629462068F9F7DBFA97
S3150801FDD00DF5347D002070BD2DE9F0430E468046B1
S3150801FDE0014685B0284808F025F98146002000908B
S3150801FDF0002E08BF4FF021473DD03146404600F05E
S3150801FE00F7FA08B1002736E01F4808F00CFF306AF8
S3150801FE100024B56E00280ADD40462968FFF7DCFF95
S3150801FE20071E23DB306A641C2D1D8442F4DB6A46F7
S3150801FE30314640460BF0C4FA071E17DBD8F83400E2
S3150801FE400028DFD111A1B069F0F72EFC002818BFF0
S3150801FE50F0F73CF9104A01A9A2F5107008F086F8E6
S3150801FE60071EA4BF0298C8F83400CBDA0098002808
S3150801FE7018BF0BF0C9FA4946034808F0DBF805B084
S3150801FE803846BDE8F0830000585200106D73636F61
S3150801FE90726C696200000000985400102DE9F84F51
S3150801FEA00027DFF880A0814688463C463D46D9F8BA
S3150801FEB020004668FEB140694169096911F0020FDF
S3150801FEC015D1002D08BF7F1C11D0C0680AF1AC02FC
S3150801FED0000400902146144808F048F80028B8BFE5
S3150801FEE0BDE8F88F6946606800F042FF0C34304679
S3150801FEF07668002EDFD12DB16D1C022DD7DB0020CF
S3150801FF00BDE8F88F0AF1AC023946404609F071FAA4
S3150801FF100028A4BFD8F8040000F11404ECDABDE8FF
S3150801FF20F88F000018540010585200102DE9F04FB0
S3150801FF30064667488BB08A46D0F81802089000240E
S3150801FF4015461F46A0460978624808F024F8099024
S3150801FF50002F08BF0746B7420CBF0120002018B979
S3150801FF600E2988BF002000D8012048B1012078B1A8
S3150801FF704FF0010BBBF1000F08BF10293AD110E071
S3150801FF80102906BFDAF8040000280020EFD1EDE7B2
S3150801FF900F2906BFDAF8080000284FF0000BE9D14F
S3150801FFA0E6E7DAF8049099F80000112810D0352808
S3150801FFB020D14C46204616F037F9031E67DB6068E8
S3150801FFC040680890A068B04218BF4FF0010B11E0D5
S3150801FFD009F1040168460BF083F958B101990098B3
S3150801FFE0896F80B231F8300010F0040F02D0009802
S3150801FFF0C846089008A9304600F0C8F9031E5FDB19
S31508020000BBF1000F04D05146284601F045FB56E0E5
S31508020010DFF8C49044B1A068B04218BFF0F756F8AA
S315080200206068C5E900904AE0B8F1000F15D031467C
S31508020030284807F0FFFF012300223521254808F04A
S31508020040ABFD030008BF4FF07A4339D04246394622
S3150802005001F0F8FAC5E9009331E00020CDE90190F4
S3150802006004A801A904F0B2F91A4F3868C0F3C064AB
S31508020070386840F00060386001230022514601A822
S3150802008006F036FD031E03DA04A804F0C5F917E0E4
S315080200903146104807F0CEFF0120002300901A4689
S315080200A001A9284605F0E4F83868002C14BF40F088
S315080200B0006020F00060386004A804F0ADF900235F
S315080200C00448099907F0B6FF0BB01846BDE8F08F49
S315080200D040520010585200101000010010B5044694
S315080200E00DF037FD207E022818BF10BD20460DF000
S315080200F023FD002808BF10BD2046BDE8104000F0C9
S315080201004FB80000F0B589B006460D4600212148D1
S31508020110CDE9000104A8694604F058F9002E1CBF6F
S315080201203078002832D01C4FD7F8D40044684CB136
S31508020130006B31464068F0F7B7FA38B32046646870
S31508020140002CF5D1314668460AF08AFF002816DBEC
S31508020150062300223421114801F03CFD28600028BC
S3150802016008BF4FF07A400AD000F028F929680198AA
S31508020170086307F1D400296804F0C3F8002003468F
S3150802018004A804F049F909B01846F0BD4FF07D40BD
S31508020190F5E7000010000100585200109C560010A6
S315080201A010B5044600F03BF9204604F0FAFC214655
S315080201B0BDE81040014801F0FDBC00009C56001045
S315080201C02DE9F04F0E468046014685B0264807F0CF
S315080201D031FF81460020DFF894A0C6E900A0D8F8CE
S315080201E00C40DFF88CB06768A7B1256975B1287825
S315080201F011281CBF1228EFF769FF6868DBF82C1173
S31508020200884203D12069C6E900A023E03C467F68FC
S31508020210002FEAD16846314604F0D8F80BF59672F3
S315080202203146114807F0A2FE031E08DB74684046F1
S3150802023004F10C0221460CF0FDFD031E03DA6846A2
S3150802024004F0EAF807E0D8F83000C4E906A06846E0
S3150802025004F0E2F800234946034807F0EBFE05B02E
S315080202601846BDE8F08F0000585200101000010031
S31508020270185400102DE9F04F87B08346DDE910794E
S31508020280002F15BF14460C460D461546A3F1010666
S31508020290002BC8BFDFF8ECA070DD207895F8008047
S315080202A0142818BF1A2802D0002F56D060E0E7B1EA
S315080202B003A8616801F0F0F94B466A4603A9584655
S315080202C0FFF734FE0028BCBF07B0BDE8F08FB8F1CF
S315080202D0140F05D000222946684600F0B1FF47E010
S315080202E06946686801F0D8F942E014282BD02146FD
S315080202F003A801F03BF84B466A4603A95846FFF79E
S3150802030015FE0028BCBF07B0BDE8F08F0123002206
S3150802031010211D4808F040FC5FEA000818D09DF835
S31508020320000000EB80000AEB80004079002808BF35
S31508020330EFF7CCFE6946404601F0AEF9414628463B
S3150802034000F092FC14E003A8616801F0A5F9D2E76F
S3150802035007B04FF02140BDE8F08F4B462A462146AA
S315080203605846FFF7E3FD0028BCBF07B0BDE8F08F8B
S315080203700C340C35301EA6F101068EDC07B00020BF
S31508020380BDE8F08FAC0104085852001010B583B0CE
S31508020390044668460AF0A4FF002802BF4FF07D40D3
S315080203A003B010BD2046019900F022F800280CBFC0
S315080203B04FF04940002003B010BD000000B50246C8
S315080203C00DF0A8FB02F1200003F0CBFF074900203D
S315080203D01076D1F8E430D361D1F8E4305B1CC1F869
S315080203E0E430D06210635063906300BD5852001027
S315080203F08446806B18B142698A4208BF7047DCF8A6
S31508020400200042684AB143698B4202D1CCF83800CF
S31508020410704710465268002AF5D10020704710B579
S31508020420006A4468002C08BF10BD0AF0EDFF20469A
S315080204306468002CF9D110BD007E00280CBF01208B
S315080204400020704710B504462C300AF053F904F11F
S3150802045030000AF04FF904F13400BDE810400AF002
S3150802046049B9000030B504460078184A00EB800105
S3150802047052F8211011F4001F03D000206060A0601A
S3150802048030BD122804D0102818BF14280FD01BE03C
S31508020490607810F0100F17D16088451E05D00C340D
S315080204A02046FFF7DFFF6D1EF9D1002030BD6068D8
S315080204B0002808BF30BDFFF7D5FF002808BF30BDAA
S315080204C000210348C4E90001012030BDAC0104083B
S315080204D01000010010B5027882B00A2A16D006DC8E
S315080204E0072A18BF082A0CD0092A25D005E00B2AA4
S315080204F017D00C2A29D01A2A43D002B04FF022402C
S3150802050010BD426849681144416048E0D0E90123B8
S31508020510D1F808C049688A184CEB0301C0E90121E1
S315080205203DE0D0E90132D1F808C04968C9184CEB58
S315080205300202C0E9011232E090ED010AD1ED010A88
S3150802054030EE200A80ED010A29E0041D4068009079
S31508020550606801909DED001B4868009088680190CC
S315080205609DED000B53EC112B51EC100B1AF09AF877
S3150802057041EC100B8DED000B84ED000A01996160C8
S315080205800DE04268002A02BF4FF0214002B010BDBA
S315080205904968527C91FBF2F182681144816002B08B
S315080205A0002010BD30B5044687B00D46084615F042
S315080205B04FFE00281EBF4FF0314007B030BD2078ED
S315080205C0C01F062843D2DFE800F003031609091FF5
S315080205D06068696890FBF1F0606035E0D4E9010172
S315080205E0D5E90123EFF726FECDE90201CDE900019F
S315080205F0C4E9010128E094ED010AD5ED010A80EE6D
S31508020600201A84ED011A1FE060680490A06805901C
S315080206109DED040B68680490A86805909DED041B7F
S3150802062051EC100B53EC112B1AF094F941EC100B08
S315080206308DED040B8DED020ACDED030ADDE902010B
S31508020640CDE90001C4E9010107B0002030BD07B0B9
S315080206504FF0224030BD30B50446007887B0C01F3F
S31508020660062847D2DFE800F003031A080823606861
S315080206704968484360603AE0D4E90103D1F808C002
S315080206804968A1FB00250CFB005001FB0300CDE9DC
S31508020690022003991046CDE9002126E094ED010ACD
S315080206A0D1ED010A20EE200A84ED010A1FE06068F6
S315080206B00490A06805909DED041B4868049088681C
S315080206C005909DED040B53EC112B51EC100B1AF00F
S315080206D001FC41EC100B8DED040B8DED020ACDEDFC
S315080206E0030ADDE90201CDE90001C4E9010107B007
S315080206F0002030BD07B04FF0224030BD10B501785A
S3150802070084B0C91F062930D2DFE801F003031207B5
S31508020710071941684942416024E0011D836840681F
S315080207204FF0000C42426CEB0303C1E9002319E0C7
S3150802073090ED010AB1EE400A80ED010A12E0416825
S31508020740041D0291806803909DED020B51EC100B7B
S3150802075019F06AFF41EC100B8DED000B84ED000ACF
S315080207600198606004B0002010BD04B04FF022402A
S3150802077010BD70B5044684B00D46084615F068FDEE
S3150802078000281EBF4FF0314004B070BD2078C01F4C
S31508020790062845D2DFE800F00B03231A132C6068FB
S315080207A06968B0FBF1F201FB1200606035E060682F
S315080207B0696890FBF1F201FB120060602DE0D4E952
S315080207C00101D5E90123EFF785FC05E0D4E901012A
S315080207D0D5E90123EFF72EFDC4E901231DE094EDC7
S315080207E0010AD5ED010A17F067F984ED010A14E04A
S315080207F068680290A86803909DED021B60680290E3
S31508020800A0680390261D9DED020B17F0B9F88DED31
S31508020810000B86ED000A0198706004B0002070BDD6
S3150802082004B04FF0224070BD10B50278072A18BFEF
S31508020830082A0FD00A2A1EBF0B2A4FF0224010BDE3
S31508020840041D4A68D4E90001EFF7BBFCC4E90001BC
S31508020850002010BD4268496802FA01F14160F7E7D3
S3150802086010B50278072A14D0082A0DD00A2A16D0FB
S315080208700B2A1CBF4FF0224010BD041D4A68D4E95A
S315080208800001EFF7B1FC10E04268496822FA01F16B
S3150802089003E04268496842FA01F1416007E0041D33
S315080208A04A68D4E90001EFF7B2FCC4E90001002066
S315080208B010BD10B5027882B00A2A21D006DC072AB2
S315080208C018BF082A0CD0092A25D005E00B2A0CD015
S315080208D00C2A29D01A2A43D002B04FF0224010BD62
S315080208E042684968511A416048E0D0E90132D1F8B4
S315080208F008C04968591A62EB0C02C0E901123DE0C8
S31508020900D0E90123D1F808C04968521A63EB0C01F1
S31508020910C0E9012132E090ED010AD1ED010A30EE7B
S31508020920600A80ED010A29E0041D406800906068AB
S3150802093001909DED001B48680090886801909DED26
S31508020940000B53EC112B51EC100B1AF09FFC41ECE7
S31508020950100B8DED000B84ED000A019961600DE024
S315080209604268002A02BF4FF0214002B010BD496812
S31508020970527C91FBF2F18268511A816002B0002022
S3150802098010BD002808BF704770B504460078231DBD
S3150802099084B01646122821D008DA0F2816D0102855
S315080209A008BF60684AD0112804D117E01B2831D045
S315080209B01D283BD0204615F025FC0146324618462E
S315080209C0F3F78EF8064604B0304670BD64682046D2
S315080209D0F1F7C7FF01463246204624E00029F2D045
S315080209E0194668460AF07CFC01990098896F80B21C
